{
  "contractName": "Faucet",
  "abi": [
    {
      "anonymous": false,
      "inputs": [
        {
          "indexed": false,
          "internalType": "address",
          "name": "_beneficiary",
          "type": "address"
        },
        {
          "indexed": false,
          "internalType": "uint256",
          "name": "_balance",
          "type": "uint256"
        }
      ],
      "name": "Request",
      "type": "event"
    },
    {
      "inputs": [
        {
          "internalType": "address",
          "name": "",
          "type": "address"
        }
      ],
      "name": "lockTime",
      "outputs": [
        {
          "internalType": "uint256",
          "name": "",
          "type": "uint256"
        }
      ],
      "stateMutability": "view",
      "type": "function",
      "constant": true
    },
    {
      "stateMutability": "payable",
      "type": "receive",
      "payable": true
    },
    {
      "inputs": [
        {
          "internalType": "address payable",
          "name": "_beneficiary",
          "type": "address"
        }
      ],
      "name": "makeItRain",
      "outputs": [],
      "stateMutability": "payable",
      "type": "function",
      "payable": true
    }
  ],
  "bytecode": "0x6080604052662386f26fc10000600160006101000a81548167ffffffffffffffff021916908367ffffffffffffffff16021790555034801561004057600080fd5b50610767806100506000396000f3fe60806040526004361061004a576000357c010000000000000000000000000000000000000000000000000000000090048063a4beda6314610056578063ee5fda2e1461009357610051565b3661005157005b600080fd5b34801561006257600080fd5b5061007d60048036038101906100789190610391565b6100af565b60405161008a91906103d7565b60405180910390f35b6100ad60048036038101906100a89190610430565b6100c7565b005b60006020528060005260406000206000915090505481565b7fe31c60e37ab1301f69f01b436a1d13486e6c16cc22c888a08c0e64a39230b6ac818273ffffffffffffffffffffffffffffffffffffffff163160405161010f9291906104bc565b60405180910390a16000803373ffffffffffffffffffffffffffffffffffffffff1673ffffffffffffffffffffffffffffffffffffffff168152602001908152602001600020544211610197576040517f08c379a000000000000000000000000000000000000000000000000000000000815260040161018e90610568565b60405180910390fd5b6702c68af0bb1400008173ffffffffffffffffffffffffffffffffffffffff163111156101f9576040517f08c379a00000000000000000000000000000000000000000000000000000000081526004016101f0906105fa565b60405180910390fd5b600160009054906101000a900467ffffffffffffffff1667ffffffffffffffff163073ffffffffffffffffffffffffffffffffffffffff16311015610273576040517f08c379a000000000000000000000000000000000000000000000000000000000815260040161026a9061068c565b60405180910390fd5b8073ffffffffffffffffffffffffffffffffffffffff166108fc600160009054906101000a900467ffffffffffffffff1667ffffffffffffffff169081150290604051600060405180830381858888f193505050501580156102d9573d6000803e3d6000fd5b5062015180426102e991906106db565b6000803373ffffffffffffffffffffffffffffffffffffffff1673ffffffffffffffffffffffffffffffffffffffff1681526020019081526020016000208190555050565b600080fd5b600073ffffffffffffffffffffffffffffffffffffffff82169050919050565b600061035e82610333565b9050919050565b61036e81610353565b811461037957600080fd5b50565b60008135905061038b81610365565b92915050565b6000602082840312156103a7576103a661032e565b5b60006103b58482850161037c565b91505092915050565b6000819050919050565b6103d1816103be565b82525050565b60006020820190506103ec60008301846103c8565b92915050565b60006103fd82610333565b9050919050565b61040d816103f2565b811461041857600080fd5b50565b60008135905061042a81610404565b92915050565b6000602082840312156104465761044561032e565b5b60006104548482850161041b565b91505092915050565b6000819050919050565b600061048261047d61047884610333565b61045d565b610333565b9050919050565b600061049482610467565b9050919050565b60006104a682610489565b9050919050565b6104b68161049b565b82525050565b60006040820190506104d160008301856104ad565b6104de60208301846103c8565b9392505050565b600082825260208201905092915050565b7f4c6f636b2074696d6520686173206e6f7420657870697265642c20706c65617360008201527f652074727920616761696e206c61746572000000000000000000000000000000602082015250565b60006105526031836104e5565b915061055d826104f6565b604082019050919050565b6000602082019050818103600083015261058181610545565b9050919050565b7f596f7520616c7265616479206861766520656e6f75676820657468657220746f60008201527f20706c61792061726f756e642077697468000000000000000000000000000000602082015250565b60006105e46031836104e5565b91506105ef82610588565b604082019050919050565b60006020820190508181036000830152610613816105d7565b9050919050565b7f466175636574206973206472792c20636f6e73696465722073656e64696e672060008201527f736f6d6520657468657220746f20697400000000000000000000000000000000602082015250565b60006106766030836104e5565b91506106818261061a565b604082019050919050565b600060208201905081810360008301526106a581610669565b9050919050565b7f4e487b7100000000000000000000000000000000000000000000000000000000600052601160045260246000fd5b60006106e6826103be565b91506106f1836103be565b9250827fffffffffffffffffffffffffffffffffffffffffffffffffffffffffffffffff03821115610726576107256106ac565b5b82820190509291505056fea26469706673582212202481a9027853124316019b0d14eac162237172d52bdefb4e4b4c84ef71f0fb1d64736f6c634300080b0033",
  "immutableReferences": {},
  "source": "// SPDX-License-Identifier: MIT\n\npragma solidity ^0.8.11;\n\ncontract Faucet {\n    mapping(address => uint256) public lockTime;\n\n    uint64 faucetDistribution = 0.01 ether;\n\n    event Request(address _beneficiary, uint256 _balance);\n\n    function makeItRain(address payable _beneficiary) external payable {\n        emit Request(_beneficiary, _beneficiary.balance);\n\n        require(\n            block.timestamp > lockTime[msg.sender],\n            \"Lock time has not expired, please try again later\"\n        );\n        require(\n            _beneficiary.balance <= 0.2 ether,\n            \"You already have enough ether to play around with\"\n        );\n        require(\n            address(this).balance >= faucetDistribution,\n            \"Faucet is dry, consider sending some ether to it\"\n        );\n\n        _beneficiary.transfer(faucetDistribution);\n\n        lockTime[msg.sender] = block.timestamp + 1 days;\n    }\n\n    receive() external payable {}\n}\n",
  "sourcePath": "/Users/bmarquis/Crypto/solidity-swap-exchange/contracts/source/Faucet.sol",
  "compiler": {
    "name": "solc",
    "version": "0.8.11+commit.d7f03943.Emscripten.clang"
  },
  "schemaVersion": "3.4.5",
  "updatedAt": "2022-02-25T02:51:40.993Z",
  "networkType": "ethereum",
  "devdoc": {
    "kind": "dev",
    "methods": {},
    "version": 1
  },
  "userdoc": {
    "kind": "user",
    "methods": {},
    "version": 1
  }
}