{
  "contractName": "MockV3Aggregator",
  "abi": [
    {
      "inputs": [
        {
          "internalType": "uint80",
          "name": "_roundId",
          "type": "uint80"
        },
        {
          "internalType": "int256",
          "name": "_answer",
          "type": "int256"
        },
        {
          "internalType": "uint256",
          "name": "_startedAt",
          "type": "uint256"
        },
        {
          "internalType": "uint256",
          "name": "_updatedAt",
          "type": "uint256"
        },
        {
          "internalType": "uint80",
          "name": "_answeredInRound",
          "type": "uint80"
        }
      ],
      "stateMutability": "nonpayable",
      "type": "constructor"
    },
    {
      "inputs": [],
      "name": "decimals",
      "outputs": [
        {
          "internalType": "uint8",
          "name": "",
          "type": "uint8"
        }
      ],
      "stateMutability": "pure",
      "type": "function"
    },
    {
      "inputs": [],
      "name": "description",
      "outputs": [
        {
          "internalType": "string",
          "name": "",
          "type": "string"
        }
      ],
      "stateMutability": "pure",
      "type": "function"
    },
    {
      "inputs": [],
      "name": "version",
      "outputs": [
        {
          "internalType": "uint256",
          "name": "",
          "type": "uint256"
        }
      ],
      "stateMutability": "pure",
      "type": "function"
    },
    {
      "inputs": [
        {
          "internalType": "uint80",
          "name": "_roundId",
          "type": "uint80"
        }
      ],
      "name": "getRoundData",
      "outputs": [
        {
          "internalType": "uint80",
          "name": "",
          "type": "uint80"
        },
        {
          "internalType": "int256",
          "name": "",
          "type": "int256"
        },
        {
          "internalType": "uint256",
          "name": "",
          "type": "uint256"
        },
        {
          "internalType": "uint256",
          "name": "",
          "type": "uint256"
        },
        {
          "internalType": "uint80",
          "name": "",
          "type": "uint80"
        }
      ],
      "stateMutability": "view",
      "type": "function"
    },
    {
      "inputs": [],
      "name": "latestRoundData",
      "outputs": [
        {
          "internalType": "uint80",
          "name": "",
          "type": "uint80"
        },
        {
          "internalType": "int256",
          "name": "",
          "type": "int256"
        },
        {
          "internalType": "uint256",
          "name": "",
          "type": "uint256"
        },
        {
          "internalType": "uint256",
          "name": "",
          "type": "uint256"
        },
        {
          "internalType": "uint80",
          "name": "",
          "type": "uint80"
        }
      ],
      "stateMutability": "view",
      "type": "function"
    }
  ],
  "bytecode": "0x608060405234801561001057600080fd5b506040516105f83803806105f88339818101604052810190610032919061015d565b846000806101000a81548169ffffffffffffffffffff021916908369ffffffffffffffffffff16021790555083600181905550826002819055508160038190555080600460006101000a81548169ffffffffffffffffffff021916908369ffffffffffffffffffff16021790555050505050506101d8565b600080fd5b600069ffffffffffffffffffff82169050919050565b6100ce816100af565b81146100d957600080fd5b50565b6000815190506100eb816100c5565b92915050565b6000819050919050565b610104816100f1565b811461010f57600080fd5b50565b600081519050610121816100fb565b92915050565b6000819050919050565b61013a81610127565b811461014557600080fd5b50565b60008151905061015781610131565b92915050565b600080600080600060a08688031215610179576101786100aa565b5b6000610187888289016100dc565b955050602061019888828901610112565b94505060406101a988828901610148565b93505060606101ba88828901610148565b92505060806101cb888289016100dc565b9150509295509295909350565b610411806101e76000396000f3fe608060405234801561001057600080fd5b50600436106100575760003560e01c8063313ce5671461005c57806354fd4d501461007a5780637284e416146100985780639a6fc8f5146100b6578063feaf968c146100ea575b600080fd5b61006461010c565b60405161007191906101e2565b60405180910390f35b610082610115565b60405161008f9190610216565b60405180910390f35b6100a061011e565b6040516100ad91906102ca565b60405180910390f35b6100d060048036038101906100cb9190610333565b610135565b6040516100e1959493929190610388565b60405180910390f35b6100f2610173565b604051610103959493929190610388565b60405180910390f35b60006002905090565b60006007905090565b606060405180602001604052806000815250905090565b600080600080600085600154600254600354600460009054906101000a900469ffffffffffffffffffff169450945094509450945091939590929450565b60008060008060008060009054906101000a900469ffffffffffffffffffff16600154600254600354600460009054906101000a900469ffffffffffffffffffff16945094509450945094509091929394565b600060ff82169050919050565b6101dc816101c6565b82525050565b60006020820190506101f760008301846101d3565b92915050565b6000819050919050565b610210816101fd565b82525050565b600060208201905061022b6000830184610207565b92915050565b600081519050919050565b600082825260208201905092915050565b60005b8381101561026b578082015181840152602081019050610250565b8381111561027a576000848401525b50505050565b6000601f19601f8301169050919050565b600061029c82610231565b6102a6818561023c565b93506102b681856020860161024d565b6102bf81610280565b840191505092915050565b600060208201905081810360008301526102e48184610291565b905092915050565b600080fd5b600069ffffffffffffffffffff82169050919050565b610310816102f1565b811461031b57600080fd5b50565b60008135905061032d81610307565b92915050565b600060208284031215610349576103486102ec565b5b60006103578482850161031e565b91505092915050565b610369816102f1565b82525050565b6000819050919050565b6103828161036f565b82525050565b600060a08201905061039d6000830188610360565b6103aa6020830187610379565b6103b76040830186610207565b6103c46060830185610207565b6103d16080830184610360565b969550505050505056fea264697066735822122036d389fa77267ecaf9f89360d0e13e140647eca01da253f636f8533d438447ac64736f6c634300080b0033",
  "immutableReferences": {},
  "source": "// SPDX-License-Identifier: MIT\npragma solidity ^0.8.11;\n\nimport \"@chainlink/contracts/src/v0.8/interfaces/AggregatorV3Interface.sol\";\n\ncontract MockV3Aggregator is AggregatorV3Interface {\n    uint80 roundId;\n    int256 answer;\n    uint256 startedAt;\n    uint256 updatedAt;\n    uint80 answeredInRound;\n\n    constructor(\n        uint80 _roundId,\n        int256 _answer,\n        uint256 _startedAt,\n        uint256 _updatedAt,\n        uint80 _answeredInRound\n    ) {\n        roundId = _roundId;\n        answer = _answer;\n        startedAt = _startedAt;\n        updatedAt = _updatedAt;\n        answeredInRound = _answeredInRound;\n    }\n\n    function decimals() external pure returns (uint8) {\n        return 2;\n    }\n\n    function description() external pure returns (string memory) {\n        return \"\";\n    }\n\n    function version() external pure returns (uint256) {\n        return 7;\n    }\n\n    function getRoundData(uint80 _roundId)\n        external\n        view\n        override\n        returns (\n            uint80,\n            int256,\n            uint256,\n            uint256,\n            uint80\n        )\n    {\n        return (_roundId, answer, startedAt, updatedAt, answeredInRound);\n    }\n\n    function latestRoundData()\n        external\n        view\n        override\n        returns (\n            uint80,\n            int256,\n            uint256,\n            uint256,\n            uint80\n        )\n    {\n        return (roundId, answer, startedAt, updatedAt, answeredInRound);\n    }\n}\n",
  "sourcePath": "/Users/bmarquis/Crypto/solidity-swap-exchange/contracts/source/test/MockV3Aggregator.sol",
  "compiler": {
    "name": "solc",
    "version": "0.8.11+commit.d7f03943.Emscripten.clang"
  },
  "schemaVersion": "3.4.4",
  "updatedAt": "2022-01-26T02:34:35.495Z",
  "devdoc": {
    "kind": "dev",
    "methods": {},
    "version": 1
  },
  "userdoc": {
    "kind": "user",
    "methods": {},
    "version": 1
  }
}