{
  "contractName": "Ratable",
  "abi": [
    {
      "inputs": [
        {
          "internalType": "address",
          "name": "_priceFeedContract",
          "type": "address"
        }
      ],
      "stateMutability": "nonpayable",
      "type": "constructor"
    },
    {
      "anonymous": false,
      "inputs": [
        {
          "indexed": false,
          "internalType": "int256",
          "name": "price",
          "type": "int256"
        },
        {
          "indexed": false,
          "internalType": "uint256",
          "name": "timeStamp",
          "type": "uint256"
        }
      ],
      "name": "Rate",
      "type": "event"
    },
    {
      "inputs": [],
      "name": "getRate",
      "outputs": [
        {
          "internalType": "int256",
          "name": "",
          "type": "int256"
        },
        {
          "internalType": "uint256",
          "name": "",
          "type": "uint256"
        }
      ],
      "stateMutability": "nonpayable",
      "type": "function"
    }
  ],
  "bytecode": "0x608060405234801561001057600080fd5b506040516103f23803806103f2833981810160405281019061003291906100db565b806000806101000a81548173ffffffffffffffffffffffffffffffffffffffff021916908373ffffffffffffffffffffffffffffffffffffffff16021790555050610108565b600080fd5b600073ffffffffffffffffffffffffffffffffffffffff82169050919050565b60006100a88261007d565b9050919050565b6100b88161009d565b81146100c357600080fd5b50565b6000815190506100d5816100af565b92915050565b6000602082840312156100f1576100f0610078565b5b60006100ff848285016100c6565b91505092915050565b6102db806101176000396000f3fe608060405234801561001057600080fd5b506004361061002b5760003560e01c8063679aefce14610030575b600080fd5b61003861004f565b604051610046929190610162565b60405180910390f35b60008060008060008054906101000a900473ffffffffffffffffffffffffffffffffffffffff1673ffffffffffffffffffffffffffffffffffffffff1663feaf968c6040518163ffffffff1660e01b815260040160a060405180830381865afa1580156100c0573d6000803e3d6000fd5b505050506040513d601f19601f820116820180604052508101906100e4919061022a565b509350509250507fb6c1393c2251d5f83b6b4923759cf156e72f269dc654f872eab19c92b853cf5e828260405161011c929190610162565b60405180910390a181819350935050509091565b6000819050919050565b61014381610130565b82525050565b6000819050919050565b61015c81610149565b82525050565b6000604082019050610177600083018561013a565b6101846020830184610153565b9392505050565b600080fd5b600069ffffffffffffffffffff82169050919050565b6101af81610190565b81146101ba57600080fd5b50565b6000815190506101cc816101a6565b92915050565b6101db81610130565b81146101e657600080fd5b50565b6000815190506101f8816101d2565b92915050565b61020781610149565b811461021257600080fd5b50565b600081519050610224816101fe565b92915050565b600080600080600060a086880312156102465761024561018b565b5b6000610254888289016101bd565b9550506020610265888289016101e9565b945050604061027688828901610215565b935050606061028788828901610215565b9250506080610298888289016101bd565b915050929550929590935056fea2646970667358221220a7ca8e9d3319013f53d9f12731fd3f5a53cc7b1777a6271bdc9d2dddb7148d7864736f6c634300080b0033",
  "immutableReferences": {},
  "source": "// SPDX-License-Identifier: MIT\n\npragma solidity ^0.8.11;\n\nimport \"@chainlink/contracts/src/v0.8/interfaces/AggregatorV3Interface.sol\";\n\ncontract Ratable {\n    event Rate(int256 price, uint256 timeStamp);\n\n    AggregatorV3Interface internal priceFeed;\n\n    constructor(address _priceFeedContract) {\n        priceFeed = AggregatorV3Interface(_priceFeedContract);\n    }\n\n    function getRate() public returns (int256, uint256) {\n        (, int256 price, , uint256 timeStamp, ) = priceFeed.latestRoundData();\n\n        emit Rate(price, timeStamp);\n\n        return (price, timeStamp);\n    }\n}\n",
  "sourcePath": "/Users/bmarquis/Crypto/solidity-swap-exchange/contracts/source/Ratable.sol",
  "compiler": {
    "name": "solc",
    "version": "0.8.11+commit.d7f03943.Emscripten.clang"
  },
  "schemaVersion": "3.4.4",
  "updatedAt": "2022-01-26T02:34:35.480Z",
  "devdoc": {
    "kind": "dev",
    "methods": {},
    "version": 1
  },
  "userdoc": {
    "kind": "user",
    "methods": {},
    "version": 1
  }
}