{
  "contractName": "SatiEthSwap",
  "abi": [
    {
      "inputs": [
        {
          "internalType": "contract SatiToken",
          "name": "_satiToken",
          "type": "address"
        }
      ],
      "stateMutability": "nonpayable",
      "type": "constructor"
    },
    {
      "anonymous": false,
      "inputs": [
        {
          "indexed": true,
          "internalType": "address",
          "name": "previousOwner",
          "type": "address"
        },
        {
          "indexed": true,
          "internalType": "address",
          "name": "newOwner",
          "type": "address"
        }
      ],
      "name": "OwnershipTransferred",
      "type": "event"
    },
    {
      "inputs": [],
      "name": "ethToSatiRate",
      "outputs": [
        {
          "internalType": "uint8",
          "name": "",
          "type": "uint8"
        }
      ],
      "stateMutability": "view",
      "type": "function",
      "constant": true
    },
    {
      "inputs": [],
      "name": "owner",
      "outputs": [
        {
          "internalType": "address",
          "name": "",
          "type": "address"
        }
      ],
      "stateMutability": "view",
      "type": "function",
      "constant": true
    },
    {
      "inputs": [],
      "name": "renounceOwnership",
      "outputs": [],
      "stateMutability": "nonpayable",
      "type": "function"
    },
    {
      "inputs": [],
      "name": "satiToken",
      "outputs": [
        {
          "internalType": "contract SatiToken",
          "name": "",
          "type": "address"
        }
      ],
      "stateMutability": "view",
      "type": "function",
      "constant": true
    },
    {
      "inputs": [
        {
          "internalType": "address",
          "name": "newOwner",
          "type": "address"
        }
      ],
      "name": "transferOwnership",
      "outputs": [],
      "stateMutability": "nonpayable",
      "type": "function"
    },
    {
      "inputs": [
        {
          "internalType": "uint8",
          "name": "_rateToSet",
          "type": "uint8"
        }
      ],
      "name": "setEthToSatiRate",
      "outputs": [],
      "stateMutability": "nonpayable",
      "type": "function"
    },
    {
      "inputs": [],
      "name": "swapEthForSati",
      "outputs": [],
      "stateMutability": "payable",
      "type": "function",
      "payable": true
    }
  ],
  "bytecode": "0x60806040526064600160146101000a81548160ff021916908360ff16021790555034801561002c57600080fd5b50604051610be5380380610be5833981810160405281019061004e91906101f2565b61006a61005f6100b160201b60201c565b6100b960201b60201c565b80600160006101000a81548173ffffffffffffffffffffffffffffffffffffffff021916908373ffffffffffffffffffffffffffffffffffffffff1602179055505061021f565b600033905090565b60008060009054906101000a900473ffffffffffffffffffffffffffffffffffffffff169050816000806101000a81548173ffffffffffffffffffffffffffffffffffffffff021916908373ffffffffffffffffffffffffffffffffffffffff1602179055508173ffffffffffffffffffffffffffffffffffffffff168173ffffffffffffffffffffffffffffffffffffffff167f8be0079c531659141344cd1fd0a4f28419497f9722a3daafe3b4186f6b6457e060405160405180910390a35050565b600080fd5b600073ffffffffffffffffffffffffffffffffffffffff82169050919050565b60006101ad82610182565b9050919050565b60006101bf826101a2565b9050919050565b6101cf816101b4565b81146101da57600080fd5b50565b6000815190506101ec816101c6565b92915050565b6000602082840312156102085761020761017d565b5b6000610216848285016101dd565b91505092915050565b6109b78061022e6000396000f3fe6080604052600436106100705760003560e01c80638da5cb5b1161004e5780638da5cb5b146100e0578063a1de94ab1461010b578063e44be25214610136578063f2fde38b1461014057610070565b80633ce67a55146100755780636d5e2928146100a0578063715018a6146100c9575b600080fd5b34801561008157600080fd5b5061008a610169565b604051610097919061059a565b60405180910390f35b3480156100ac57600080fd5b506100c760048036038101906100c291906105e6565b61017c565b005b3480156100d557600080fd5b506100de610216565b005b3480156100ec57600080fd5b506100f561029e565b6040516101029190610654565b60405180910390f35b34801561011757600080fd5b506101206102c7565b60405161012d91906106ce565b60405180910390f35b61013e6102ed565b005b34801561014c57600080fd5b5061016760048036038101906101629190610715565b6103ba565b005b600160149054906101000a900460ff1681565b6101846104b2565b73ffffffffffffffffffffffffffffffffffffffff166101a261029e565b73ffffffffffffffffffffffffffffffffffffffff16146101f8576040517f08c379a00000000000000000000000000000000000000000000000000000000081526004016101ef9061079f565b60405180910390fd5b80600160146101000a81548160ff021916908360ff16021790555050565b61021e6104b2565b73ffffffffffffffffffffffffffffffffffffffff1661023c61029e565b73ffffffffffffffffffffffffffffffffffffffff1614610292576040517f08c379a00000000000000000000000000000000000000000000000000000000081526004016102899061079f565b60405180910390fd5b61029c60006104ba565b565b60008060009054906101000a900473ffffffffffffffffffffffffffffffffffffffff16905090565b600160009054906101000a900473ffffffffffffffffffffffffffffffffffffffff1681565b6000600160149054906101000a900460ff1660ff163461030d91906107f8565b9050600160009054906101000a900473ffffffffffffffffffffffffffffffffffffffff1673ffffffffffffffffffffffffffffffffffffffff1663a9059cbb6103556104b2565b836040518363ffffffff1660e01b8152600401610373929190610861565b6020604051808303816000875af1158015610392573d6000803e3d6000fd5b505050506040513d601f19601f820116820180604052508101906103b691906108c2565b5050565b6103c26104b2565b73ffffffffffffffffffffffffffffffffffffffff166103e061029e565b73ffffffffffffffffffffffffffffffffffffffff1614610436576040517f08c379a000000000000000000000000000000000000000000000000000000000815260040161042d9061079f565b60405180910390fd5b600073ffffffffffffffffffffffffffffffffffffffff168173ffffffffffffffffffffffffffffffffffffffff1614156104a6576040517f08c379a000000000000000000000000000000000000000000000000000000000815260040161049d90610961565b60405180910390fd5b6104af816104ba565b50565b600033905090565b60008060009054906101000a900473ffffffffffffffffffffffffffffffffffffffff169050816000806101000a81548173ffffffffffffffffffffffffffffffffffffffff021916908373ffffffffffffffffffffffffffffffffffffffff1602179055508173ffffffffffffffffffffffffffffffffffffffff168173ffffffffffffffffffffffffffffffffffffffff167f8be0079c531659141344cd1fd0a4f28419497f9722a3daafe3b4186f6b6457e060405160405180910390a35050565b600060ff82169050919050565b6105948161057e565b82525050565b60006020820190506105af600083018461058b565b92915050565b600080fd5b6105c38161057e565b81146105ce57600080fd5b50565b6000813590506105e0816105ba565b92915050565b6000602082840312156105fc576105fb6105b5565b5b600061060a848285016105d1565b91505092915050565b600073ffffffffffffffffffffffffffffffffffffffff82169050919050565b600061063e82610613565b9050919050565b61064e81610633565b82525050565b60006020820190506106696000830184610645565b92915050565b6000819050919050565b600061069461068f61068a84610613565b61066f565b610613565b9050919050565b60006106a682610679565b9050919050565b60006106b88261069b565b9050919050565b6106c8816106ad565b82525050565b60006020820190506106e360008301846106bf565b92915050565b6106f281610633565b81146106fd57600080fd5b50565b60008135905061070f816106e9565b92915050565b60006020828403121561072b5761072a6105b5565b5b600061073984828501610700565b91505092915050565b600082825260208201905092915050565b7f4f776e61626c653a2063616c6c6572206973206e6f7420746865206f776e6572600082015250565b6000610789602083610742565b915061079482610753565b602082019050919050565b600060208201905081810360008301526107b88161077c565b9050919050565b6000819050919050565b7f4e487b7100000000000000000000000000000000000000000000000000000000600052601160045260246000fd5b6000610803826107bf565b915061080e836107bf565b9250817fffffffffffffffffffffffffffffffffffffffffffffffffffffffffffffffff0483118215151615610847576108466107c9565b5b828202905092915050565b61085b816107bf565b82525050565b60006040820190506108766000830185610645565b6108836020830184610852565b9392505050565b60008115159050919050565b61089f8161088a565b81146108aa57600080fd5b50565b6000815190506108bc81610896565b92915050565b6000602082840312156108d8576108d76105b5565b5b60006108e6848285016108ad565b91505092915050565b7f4f776e61626c653a206e6577206f776e657220697320746865207a65726f206160008201527f6464726573730000000000000000000000000000000000000000000000000000602082015250565b600061094b602683610742565b9150610956826108ef565b604082019050919050565b6000602082019050818103600083015261097a8161093e565b905091905056fea2646970667358221220e799dcf6d54e35c02ea914a1b1f00e11e424007e96db0c55fb30aa3f6d93165764736f6c634300080b0033",
  "immutableReferences": {},
  "source": "// SPDX-License-Identifier: MIT\n\npragma solidity ^0.8.11;\n\nimport \"./SatiToken.sol\";\n\nimport \"@openzeppelin/contracts/utils/Context.sol\";\nimport \"@openzeppelin/contracts/access/Ownable.sol\";\n\ncontract SatiEthSwap is Context, Ownable {\n    SatiToken public satiToken;\n    uint8 public ethToSatiRate = 100;\n\n    constructor(SatiToken _satiToken) {\n        satiToken = _satiToken;\n    }\n\n    function setEthToSatiRate(uint8 _rateToSet) public onlyOwner {\n        ethToSatiRate = _rateToSet;\n    }\n\n    function swapEthForSati() external payable {\n        uint256 satiTokenAmount = msg.value * ethToSatiRate;\n        satiToken.transfer(_msgSender(), satiTokenAmount);\n    }\n}\n",
  "sourcePath": "/Users/bmarquis/Crypto/solidity-swap-exchange/contracts/source/SatiEthSwap.sol",
  "compiler": {
    "name": "solc",
    "version": "0.8.11+commit.d7f03943.Emscripten.clang"
  },
  "schemaVersion": "3.4.4",
  "updatedAt": "2022-01-23T21:01:52.558Z",
  "networkType": "ethereum",
  "devdoc": {
    "kind": "dev",
    "methods": {
      "owner()": {
        "details": "Returns the address of the current owner."
      },
      "renounceOwnership()": {
        "details": "Leaves the contract without owner. It will not be possible to call `onlyOwner` functions anymore. Can only be called by the current owner. NOTE: Renouncing ownership will leave the contract without an owner, thereby removing any functionality that is only available to the owner."
      },
      "transferOwnership(address)": {
        "details": "Transfers ownership of the contract to a new account (`newOwner`). Can only be called by the current owner."
      }
    },
    "version": 1
  },
  "userdoc": {
    "kind": "user",
    "methods": {},
    "version": 1
  }
}