{
  "contractName": "SatiERC20TokenSwap",
  "abi": [
    {
      "inputs": [
        {
          "internalType": "contract SatiToken",
          "name": "_satiToken",
          "type": "address"
        },
        {
          "internalType": "contract ERC20",
          "name": "_ERC20Token",
          "type": "address"
        },
        {
          "internalType": "address",
          "name": "_ERC20TokenToUsdRate",
          "type": "address"
        }
      ],
      "stateMutability": "nonpayable",
      "type": "constructor"
    },
    {
      "anonymous": false,
      "inputs": [
        {
          "indexed": true,
          "internalType": "int256",
          "name": "scaledPrice",
          "type": "int256"
        },
        {
          "indexed": true,
          "internalType": "uint256",
          "name": "timeStamp",
          "type": "uint256"
        }
      ],
      "name": "Rate",
      "type": "event"
    },
    {
      "anonymous": false,
      "inputs": [
        {
          "indexed": true,
          "internalType": "string",
          "name": "exchangeType",
          "type": "string"
        },
        {
          "indexed": true,
          "internalType": "uint256",
          "name": "sellingAmount",
          "type": "uint256"
        },
        {
          "indexed": true,
          "internalType": "uint256",
          "name": "buyingAmount",
          "type": "uint256"
        }
      ],
      "name": "SwapRate",
      "type": "event"
    },
    {
      "anonymous": false,
      "inputs": [
        {
          "indexed": true,
          "internalType": "address",
          "name": "beneficiary",
          "type": "address"
        },
        {
          "indexed": true,
          "internalType": "uint256",
          "name": "amountSent",
          "type": "uint256"
        },
        {
          "indexed": true,
          "internalType": "uint256",
          "name": "amountReceived",
          "type": "uint256"
        }
      ],
      "name": "SwapTransfer",
      "type": "event"
    },
    {
      "inputs": [],
      "name": "ERC20Token",
      "outputs": [
        {
          "internalType": "contract ERC20",
          "name": "",
          "type": "address"
        }
      ],
      "stateMutability": "view",
      "type": "function"
    },
    {
      "inputs": [
        {
          "internalType": "uint8",
          "name": "_scalingDecimal",
          "type": "uint8"
        }
      ],
      "name": "getScaledRate",
      "outputs": [
        {
          "internalType": "int256",
          "name": "",
          "type": "int256"
        }
      ],
      "stateMutability": "nonpayable",
      "type": "function"
    },
    {
      "inputs": [],
      "name": "satiToken",
      "outputs": [
        {
          "internalType": "contract SatiToken",
          "name": "",
          "type": "address"
        }
      ],
      "stateMutability": "view",
      "type": "function"
    },
    {
      "inputs": [],
      "name": "getAvailableERC20TokenAmount",
      "outputs": [
        {
          "internalType": "uint256",
          "name": "",
          "type": "uint256"
        }
      ],
      "stateMutability": "view",
      "type": "function"
    },
    {
      "inputs": [],
      "name": "getAvailableSatiTokenAmount",
      "outputs": [
        {
          "internalType": "uint256",
          "name": "",
          "type": "uint256"
        }
      ],
      "stateMutability": "view",
      "type": "function"
    },
    {
      "inputs": [
        {
          "internalType": "uint256",
          "name": "_ERC20TokenAmount",
          "type": "uint256"
        }
      ],
      "name": "getAmountOfSatiFromPairedToken",
      "outputs": [
        {
          "internalType": "uint256",
          "name": "",
          "type": "uint256"
        }
      ],
      "stateMutability": "nonpayable",
      "type": "function"
    },
    {
      "inputs": [
        {
          "internalType": "uint256",
          "name": "_ERC20TokenAmount",
          "type": "uint256"
        }
      ],
      "name": "swapPairedTokenForSati",
      "outputs": [],
      "stateMutability": "payable",
      "type": "function"
    },
    {
      "inputs": [
        {
          "internalType": "uint256",
          "name": "_satiAmount",
          "type": "uint256"
        }
      ],
      "name": "getNumberOfPairedTokenFromSati",
      "outputs": [
        {
          "internalType": "uint256",
          "name": "",
          "type": "uint256"
        }
      ],
      "stateMutability": "nonpayable",
      "type": "function"
    },
    {
      "inputs": [
        {
          "internalType": "uint256",
          "name": "_satiAmount",
          "type": "uint256"
        }
      ],
      "name": "swapSatiForPairedToken",
      "outputs": [],
      "stateMutability": "payable",
      "type": "function"
    }
  ],
  "bytecode": "0x60806040526012600060146101000a81548160ff021916908360ff1602179055503480156200002d57600080fd5b5060405162001d7038038062001d70833981810160405281019062000053919062000214565b80806000806101000a81548173ffffffffffffffffffffffffffffffffffffffff021916908373ffffffffffffffffffffffffffffffffffffffff1602179055505082600160006101000a81548173ffffffffffffffffffffffffffffffffffffffff021916908373ffffffffffffffffffffffffffffffffffffffff16021790555081600260006101000a81548173ffffffffffffffffffffffffffffffffffffffff021916908373ffffffffffffffffffffffffffffffffffffffff16021790555050505062000270565b600080fd5b600073ffffffffffffffffffffffffffffffffffffffff82169050919050565b6000620001528262000125565b9050919050565b6000620001668262000145565b9050919050565b620001788162000159565b81146200018457600080fd5b50565b60008151905062000198816200016d565b92915050565b6000620001ab8262000145565b9050919050565b620001bd816200019e565b8114620001c957600080fd5b50565b600081519050620001dd81620001b2565b92915050565b620001ee8162000145565b8114620001fa57600080fd5b50565b6000815190506200020e81620001e3565b92915050565b60008060006060848603121562000230576200022f62000120565b5b6000620002408682870162000187565b93505060206200025386828701620001cc565b92505060406200026686828701620001fd565b9150509250925092565b611af080620002806000396000f3fe6080604052600436106100a3576000357c0100000000000000000000000000000000000000000000000000000000900480639d0ba183116100765780639d0ba18314610157578063a1de94ab14610194578063b0833072146101bf578063c94e8204146101ea578063f0b5870614610227576100a3565b80631dda1a82146100a85780633561b7df146100e557806364be1dda146101015780637a80760e1461012c575b600080fd5b3480156100b457600080fd5b506100cf60048036038101906100ca9190610fc8565b610243565b6040516100dc9190611004565b60405180910390f35b6100ff60048036038101906100fa9190610fc8565b61038d565b005b34801561010d57600080fd5b5061011661058f565b6040516101239190611004565b60405180910390f35b34801561013857600080fd5b506101416105c1565b60405161014e919061109e565b60405180910390f35b34801561016357600080fd5b5061017e600480360381019061017991906110f2565b6105e7565b60405161018b9190611138565b60405180910390f35b3480156101a057600080fd5b506101a9610798565b6040516101b69190611174565b60405180910390f35b3480156101cb57600080fd5b506101d46107be565b6040516101e19190611004565b60405180910390f35b3480156101f657600080fd5b50610211600480360381019061020c9190610fc8565b6107f0565b60405161021e9190611004565b60405180910390f35b610241600480360381019061023c9190610fc8565b61093a565b005b60008061024f83610b3c565b90508083610343600260009054906101000a900473ffffffffffffffffffffffffffffffffffffffff1673ffffffffffffffffffffffffffffffffffffffff166395d89b416040518163ffffffff167c0100000000000000000000000000000000000000000000000000000000028152600401600060405180830381865afa1580156102df573d6000803e3d6000fd5b505050506040513d6000823e3d601f19601f8201168201806040525081019061030891906112f9565b6040518060400160405280600781526020017f20746f2053544900000000000000000000000000000000000000000000000000815250610b85565b6040516103509190611389565b60405180910390207ff1067d24cb7e943024a69dc0d5e4088ab0c731a079765f6660f24f5094c50a8160405160405180910390a480915050919050565b61039e610398610bb1565b82610bb9565b60006103a9826107f0565b90506103b53082610bea565b600160009054906101000a900473ffffffffffffffffffffffffffffffffffffffff1673ffffffffffffffffffffffffffffffffffffffff166323b872dd6103fb610bb1565b30856040518463ffffffff167c0100000000000000000000000000000000000000000000000000000000028152600401610437939291906113c1565b6020604051808303816000875af1158015610456573d6000803e3d6000fd5b505050506040513d601f19601f8201168201806040525081019061047a9190611430565b50600260009054906101000a900473ffffffffffffffffffffffffffffffffffffffff1673ffffffffffffffffffffffffffffffffffffffff1663a9059cbb6104c1610bb1565b836040518363ffffffff167c01000000000000000000000000000000000000000000000000000000000281526004016104fb92919061145d565b6020604051808303816000875af115801561051a573d6000803e3d6000fd5b505050506040513d601f19601f8201168201806040525081019061053e9190611430565b508082610549610bb1565b73ffffffffffffffffffffffffffffffffffffffff167f2585a01fb30e6e678ba95ff762e7a69baaa667604e4d100d8e69dfa8205461ca60405160405180910390a45050565b60006105bc600160009054906101000a900473ffffffffffffffffffffffffffffffffffffffff16610c1b565b905090565b600260009054906101000a900473ffffffffffffffffffffffffffffffffffffffff1681565b60008060008060009054906101000a900473ffffffffffffffffffffffffffffffffffffffff1673ffffffffffffffffffffffffffffffffffffffff1663feaf968c6040518163ffffffff167c010000000000000000000000000000000000000000000000000000000002815260040160a060405180830381865afa158015610674573d6000803e3d6000fd5b505050506040513d601f19601f820116820180604052508101906106989190611509565b5093505092505060008060009054906101000a900473ffffffffffffffffffffffffffffffffffffffff1673ffffffffffffffffffffffffffffffffffffffff1663313ce5676040518163ffffffff167c0100000000000000000000000000000000000000000000000000000000028152600401602060405180830381865afa158015610729573d6000803e3d6000fd5b505050506040513d601f19601f8201168201806040525081019061074d9190611599565b9050600061075c848388610cba565b905082817fb6c1393c2251d5f83b6b4923759cf156e72f269dc654f872eab19c92b853cf5e60405160405180910390a380945050505050919050565b600160009054906101000a900473ffffffffffffffffffffffffffffffffffffffff1681565b60006107eb600260009054906101000a900473ffffffffffffffffffffffffffffffffffffffff16610c1b565b905090565b6000806107fc83610d3d565b905080836108f06040518060400160405280600781526020017f53544920746f2000000000000000000000000000000000000000000000000000815250600260009054906101000a900473ffffffffffffffffffffffffffffffffffffffff1673ffffffffffffffffffffffffffffffffffffffff166395d89b416040518163ffffffff167c0100000000000000000000000000000000000000000000000000000000028152600401600060405180830381865afa1580156108c2573d6000803e3d6000fd5b505050506040513d6000823e3d601f19601f820116820180604052508101906108eb91906112f9565b610b85565b6040516108fd9190611389565b60405180910390207ff1067d24cb7e943024a69dc0d5e4088ab0c731a079765f6660f24f5094c50a8160405160405180910390a480915050919050565b61094b610945610bb1565b82610bea565b600061095682610243565b90506109623082610bb9565b600260009054906101000a900473ffffffffffffffffffffffffffffffffffffffff1673ffffffffffffffffffffffffffffffffffffffff166323b872dd6109a8610bb1565b30856040518463ffffffff167c01000000000000000000000000000000000000000000000000000000000281526004016109e4939291906113c1565b6020604051808303816000875af1158015610a03573d6000803e3d6000fd5b505050506040513d601f19601f82011682018060405250810190610a279190611430565b50600160009054906101000a900473ffffffffffffffffffffffffffffffffffffffff1673ffffffffffffffffffffffffffffffffffffffff1663a9059cbb610a6e610bb1565b836040518363ffffffff167c0100000000000000000000000000000000000000000000000000000000028152600401610aa892919061145d565b6020604051808303816000875af1158015610ac7573d6000803e3d6000fd5b505050506040513d601f19601f82011682018060405250810190610aeb9190611430565b508034610af6610bb1565b73ffffffffffffffffffffffffffffffffffffffff167f2585a01fb30e6e678ba95ff762e7a69baaa667604e4d100d8e69dfa8205461ca60405160405180910390a45050565b600080610b57600060149054906101000a900460ff166105e7565b905080610b7384600060149054906101000a900460ff16610d86565b610b7d91906115f5565b915050919050565b60608282604051602001610b9a92919061164f565b604051602081830303815290604052905092915050565b600033905090565b610be6600160009054906101000a900473ffffffffffffffffffffffffffffffffffffffff168383610dab565b5050565b610c17600260009054906101000a900473ffffffffffffffffffffffffffffffffffffffff168383610dab565b5050565b60008173ffffffffffffffffffffffffffffffffffffffff166370a08231306040518263ffffffff167c0100000000000000000000000000000000000000000000000000000000028152600401610c729190611673565b602060405180830381865afa158015610c8f573d6000803e3d6000fd5b505050506040513d601f19601f82011682018060405250810190610cb3919061168e565b9050919050565b60008160ff168360ff161015610cf7578282610cd691906116bb565b60ff16600a610ce59190611822565b84610cf0919061186d565b9050610d36565b8160ff168360ff161115610d32578183610d1191906116bb565b60ff16600a610d209190611822565b84610d2b91906119b3565b9050610d36565b8390505b9392505050565b600080610d58600060149054906101000a900460ff166105e7565b905080610d7484600060149054906101000a900460ff16610f59565b610d7e9190611a1d565b915050919050565b60008160ff16600a610d989190611822565b83610da39190611a1d565b905092915050565b808373ffffffffffffffffffffffffffffffffffffffff166370a08231846040518263ffffffff167c0100000000000000000000000000000000000000000000000000000000028152600401610e019190611673565b602060405180830381865afa158015610e1e573d6000803e3d6000fd5b505050506040513d601f19601f82011682018060405250810190610e42919061168e565b1015610f126040518060400160405280600b81526020017f4e6f7420656e6f756768200000000000000000000000000000000000000000008152508573ffffffffffffffffffffffffffffffffffffffff166395d89b416040518163ffffffff167c0100000000000000000000000000000000000000000000000000000000028152600401600060405180830381865afa158015610ee4573d6000803e3d6000fd5b505050506040513d6000823e3d601f19601f82011682018060405250810190610f0d91906112f9565b610b85565b90610f53576040517f08c379a0000000000000000000000000000000000000000000000000000000008152600401610f4a9190611a98565b60405180910390fd5b50505050565b60008160ff16600a610f6b9190611822565b83610f7691906115f5565b905092915050565b6000604051905090565b600080fd5b600080fd5b6000819050919050565b610fa581610f92565b8114610fb057600080fd5b50565b600081359050610fc281610f9c565b92915050565b600060208284031215610fde57610fdd610f88565b5b6000610fec84828501610fb3565b91505092915050565b610ffe81610f92565b82525050565b60006020820190506110196000830184610ff5565b92915050565b600073ffffffffffffffffffffffffffffffffffffffff82169050919050565b6000819050919050565b600061106461105f61105a8461101f565b61103f565b61101f565b9050919050565b600061107682611049565b9050919050565b60006110888261106b565b9050919050565b6110988161107d565b82525050565b60006020820190506110b3600083018461108f565b92915050565b600060ff82169050919050565b6110cf816110b9565b81146110da57600080fd5b50565b6000813590506110ec816110c6565b92915050565b60006020828403121561110857611107610f88565b5b6000611116848285016110dd565b91505092915050565b6000819050919050565b6111328161111f565b82525050565b600060208201905061114d6000830184611129565b92915050565b600061115e8261106b565b9050919050565b61116e81611153565b82525050565b60006020820190506111896000830184611165565b92915050565b600080fd5b600080fd5b6000601f19601f8301169050919050565b7f4e487b7100000000000000000000000000000000000000000000000000000000600052604160045260246000fd5b6111e282611199565b810181811067ffffffffffffffff82111715611201576112006111aa565b5b80604052505050565b6000611214610f7e565b905061122082826111d9565b919050565b600067ffffffffffffffff8211156112405761123f6111aa565b5b61124982611199565b9050602081019050919050565b60005b83811015611274578082015181840152602081019050611259565b83811115611283576000848401525b50505050565b600061129c61129784611225565b61120a565b9050828152602081018484840111156112b8576112b7611194565b5b6112c3848285611256565b509392505050565b600082601f8301126112e0576112df61118f565b5b81516112f0848260208601611289565b91505092915050565b60006020828403121561130f5761130e610f88565b5b600082015167ffffffffffffffff81111561132d5761132c610f8d565b5b611339848285016112cb565b91505092915050565b600081519050919050565b600081905092915050565b600061136382611342565b61136d818561134d565b935061137d818560208601611256565b80840191505092915050565b60006113958284611358565b915081905092915050565b60006113ab8261101f565b9050919050565b6113bb816113a0565b82525050565b60006060820190506113d660008301866113b2565b6113e360208301856113b2565b6113f06040830184610ff5565b949350505050565b60008115159050919050565b61140d816113f8565b811461141857600080fd5b50565b60008151905061142a81611404565b92915050565b60006020828403121561144657611445610f88565b5b60006114548482850161141b565b91505092915050565b600060408201905061147260008301856113b2565b61147f6020830184610ff5565b9392505050565b600069ffffffffffffffffffff82169050919050565b6114a581611486565b81146114b057600080fd5b50565b6000815190506114c28161149c565b92915050565b6114d18161111f565b81146114dc57600080fd5b50565b6000815190506114ee816114c8565b92915050565b60008151905061150381610f9c565b92915050565b600080600080600060a0868803121561152557611524610f88565b5b6000611533888289016114b3565b9550506020611544888289016114df565b9450506040611555888289016114f4565b9350506060611566888289016114f4565b9250506080611577888289016114b3565b9150509295509295909350565b600081519050611593816110c6565b92915050565b6000602082840312156115af576115ae610f88565b5b60006115bd84828501611584565b91505092915050565b7f4e487b7100000000000000000000000000000000000000000000000000000000600052601160045260246000fd5b600061160082610f92565b915061160b83610f92565b9250817fffffffffffffffffffffffffffffffffffffffffffffffffffffffffffffffff0483118215151615611644576116436115c6565b5b828202905092915050565b600061165b8285611358565b91506116678284611358565b91508190509392505050565b600060208201905061168860008301846113b2565b92915050565b6000602082840312156116a4576116a3610f88565b5b60006116b2848285016114f4565b91505092915050565b60006116c6826110b9565b91506116d1836110b9565b9250828210156116e4576116e36115c6565b5b828203905092915050565b6000600282049050919050565b6000808291508390505b600185111561174657808604811115611722576117216115c6565b5b60018516156117315780820291505b808102905061173f856116ef565b9450611706565b94509492505050565b60008261175f576001905061181b565b8161176d576000905061181b565b8160018114611783576002811461178d576117bc565b600191505061181b565b60ff84111561179f5761179e6115c6565b5b8360020a9150848211156117b6576117b56115c6565b5b5061181b565b5060208310610133831016604e8410600b84101617156117f15782820a9050838111156117ec576117eb6115c6565b5b61181b565b6117fe84848460016116fc565b92509050818404811115611815576118146115c6565b5b81810290505b9392505050565b600061182d82610f92565b915061183883610f92565b92506118657fffffffffffffffffffffffffffffffffffffffffffffffffffffffffffffffff848461174f565b905092915050565b60006118788261111f565b91506118838361111f565b9250827f7fffffffffffffffffffffffffffffffffffffffffffffffffffffffffffffff04821160008413600084131616156118c2576118c16115c6565b5b817f800000000000000000000000000000000000000000000000000000000000000005831260008412600084131616156118ff576118fe6115c6565b5b827f8000000000000000000000000000000000000000000000000000000000000000058212600084136000841216161561193c5761193b6115c6565b5b827f7fffffffffffffffffffffffffffffffffffffffffffffffffffffffffffffff0582126000841260008412161615611979576119786115c6565b5b828202905092915050565b7f4e487b7100000000000000000000000000000000000000000000000000000000600052601260045260246000fd5b60006119be8261111f565b91506119c98361111f565b9250826119d9576119d8611984565b5b600160000383147f800000000000000000000000000000000000000000000000000000000000000083141615611a1257611a116115c6565b5b828205905092915050565b6000611a2882610f92565b9150611a3383610f92565b925082611a4357611a42611984565b5b828204905092915050565b600082825260208201905092915050565b6000611a6a82611342565b611a748185611a4e565b9350611a84818560208601611256565b611a8d81611199565b840191505092915050565b60006020820190508181036000830152611ab28184611a5f565b90509291505056fea264697066735822122016bdece8b046acbdbfe338a30392020e4ed96fca7f4366186da8884d4bf9c45c64736f6c634300080b0033",
  "immutableReferences": {},
  "source": "// SPDX-License-Identifier: MIT\n\npragma solidity ^0.8.11;\n\nimport \"./SatiToken.sol\";\nimport \"@openzeppelin/contracts/utils/Context.sol\";\nimport \"@openzeppelin/contracts/token/ERC20/ERC20.sol\";\nimport \"./Swapable.sol\";\nimport \"./ISatiSwapable.sol\";\n\n// STI: 0x4d89B61B074ffbF8df0C459900c42972164beB34\n\n// BAT: (token: 0x7dad0d1c1a012b8ab5f7c2fb93469440726fe7e5, rate: 0x9441D7556e7820B5ca42082cfa99487D56AcA958)\n// LINK: (token: 0xa36085f69e2889c224210f603d836748e7dc0088, rate: 0x396c5E36DD0a0F5a5D33dae44368D4193f69a1F0)\n\n// 0x4d89B61B074ffbF8df0C459900c42972164beB34,0xa36085f69e2889c224210f603d836748e7dc0088,0x396c5E36DD0a0F5a5D33dae44368D4193f69a1F0\n\n//0x2c400743A8852052c6F26F5a5E0c7CCc6C9d8d42\n\ncontract SatiERC20TokenSwap is Context, Swapable {\n    SatiToken public satiToken;\n\n    ERC20 public ERC20Token;\n\n    constructor(\n        SatiToken _satiToken,\n        ERC20 _ERC20Token,\n        address _ERC20TokenToUsdRate\n    ) Ratable(_ERC20TokenToUsdRate) {\n        satiToken = _satiToken;\n        ERC20Token = _ERC20Token;\n    }\n\n    function requireHasEnoughSati(\n        address _addressToValidate,\n        uint256 _requiredAmount\n    ) internal view override {\n        requireHasEnoughToken(satiToken, _addressToValidate, _requiredAmount);\n    }\n\n    function requireHasEnoughPairedToken(\n        address _addressToValidate,\n        uint256 _requiredAmount\n    ) internal view override {\n        requireHasEnoughToken(ERC20Token, _addressToValidate, _requiredAmount);\n    }\n\n    function getAvailableERC20TokenAmount() public view returns (uint256) {\n        return getAvailableTokenAmount(ERC20Token);\n    }\n\n    function getAvailableSatiTokenAmount() public view returns (uint256) {\n        return getAvailableTokenAmount(satiToken);\n    }\n\n    //////////////////\n    //// Buy Sati ////\n    //////////////////\n\n    function getAmountOfSatiFromPairedToken(uint256 _ERC20TokenAmount)\n        public\n        override\n        returns (uint256)\n    {\n        uint256 tokenAmountToExchange = getSatiTokenAmountForFromRate(\n            _ERC20TokenAmount\n        );\n\n        emit SwapRate(\n            concatenate(ERC20Token.symbol(), \" to STI\"),\n            _ERC20TokenAmount,\n            tokenAmountToExchange\n        );\n\n        return tokenAmountToExchange;\n    }\n\n    function swapPairedTokenForSati(uint256 _ERC20TokenAmount)\n        external\n        payable\n        override\n    {\n        requireHasEnoughPairedToken(_msgSender(), _ERC20TokenAmount);\n\n        uint256 satiTokenAmount = getAmountOfSatiFromPairedToken(\n            _ERC20TokenAmount\n        );\n\n        requireHasEnoughSati(address(this), satiTokenAmount);\n\n        ERC20Token.transferFrom(_msgSender(), address(this), _ERC20TokenAmount);\n        satiToken.transfer(_msgSender(), satiTokenAmount);\n\n        emit SwapTransfer(_msgSender(), msg.value, satiTokenAmount);\n    }\n\n    ///////////////////\n    //// Sell Sati ////\n    ///////////////////\n\n    function getNumberOfPairedTokenFromSati(uint256 _satiAmount)\n        public\n        override\n        returns (uint256)\n    {\n        uint256 tokenAmountToExchange = getERC20TokenAmountFromRate(\n            _satiAmount\n        );\n\n        emit SwapRate(\n            concatenate(\"STI to \", ERC20Token.symbol()),\n            _satiAmount,\n            tokenAmountToExchange\n        );\n\n        return tokenAmountToExchange;\n    }\n\n    function swapSatiForPairedToken(uint256 _satiAmount)\n        external\n        payable\n        override\n    {\n        requireHasEnoughSati(_msgSender(), _satiAmount);\n\n        uint256 ERC20TokenAmount = getNumberOfPairedTokenFromSati(_satiAmount);\n\n        requireHasEnoughPairedToken(address(this), ERC20TokenAmount);\n\n        satiToken.transferFrom(_msgSender(), address(this), _satiAmount);\n        ERC20Token.transfer(_msgSender(), ERC20TokenAmount);\n\n        emit SwapTransfer(_msgSender(), _satiAmount, ERC20TokenAmount);\n    }\n}\n",
  "sourcePath": "/Users/bmarquis/Crypto/solidity-swap-exchange/contracts/source/SatiERC20TokenSwap.sol",
  "compiler": {
    "name": "solc",
    "version": "0.8.11+commit.d7f03943.Emscripten.clang"
  },
  "schemaVersion": "3.4.5",
  "updatedAt": "2022-02-25T00:20:53.248Z",
  "devdoc": {
    "kind": "dev",
    "methods": {},
    "version": 1
  },
  "userdoc": {
    "kind": "user",
    "methods": {},
    "version": 1
  }
}