{
  "contractName": "SatiEthSwap",
  "abi": [
    {
      "inputs": [
        {
          "internalType": "contract SatiToken",
          "name": "_satiToken",
          "type": "address"
        },
        {
          "internalType": "address",
          "name": "_ethToUsdRate",
          "type": "address"
        }
      ],
      "stateMutability": "nonpayable",
      "type": "constructor"
    },
    {
      "anonymous": false,
      "inputs": [
        {
          "indexed": true,
          "internalType": "address",
          "name": "previousOwner",
          "type": "address"
        },
        {
          "indexed": true,
          "internalType": "address",
          "name": "newOwner",
          "type": "address"
        }
      ],
      "name": "OwnershipTransferred",
      "type": "event"
    },
    {
      "anonymous": false,
      "inputs": [
        {
          "indexed": true,
          "internalType": "int256",
          "name": "scaledPrice",
          "type": "int256"
        },
        {
          "indexed": true,
          "internalType": "uint256",
          "name": "timeStamp",
          "type": "uint256"
        }
      ],
      "name": "Rate",
      "type": "event"
    },
    {
      "anonymous": false,
      "inputs": [
        {
          "indexed": true,
          "internalType": "string",
          "name": "exchangeType",
          "type": "string"
        },
        {
          "indexed": true,
          "internalType": "uint256",
          "name": "sellingAmount",
          "type": "uint256"
        },
        {
          "indexed": true,
          "internalType": "uint256",
          "name": "buyingAmount",
          "type": "uint256"
        }
      ],
      "name": "SwapRate",
      "type": "event"
    },
    {
      "anonymous": false,
      "inputs": [
        {
          "indexed": true,
          "internalType": "address",
          "name": "beneficiary",
          "type": "address"
        },
        {
          "indexed": true,
          "internalType": "uint256",
          "name": "amountSent",
          "type": "uint256"
        },
        {
          "indexed": true,
          "internalType": "uint256",
          "name": "amountReceived",
          "type": "uint256"
        }
      ],
      "name": "SwapTransfer",
      "type": "event"
    },
    {
      "inputs": [
        {
          "internalType": "uint8",
          "name": "_scalingDecimal",
          "type": "uint8"
        }
      ],
      "name": "getScaledRate",
      "outputs": [
        {
          "internalType": "int256",
          "name": "",
          "type": "int256"
        }
      ],
      "stateMutability": "nonpayable",
      "type": "function"
    },
    {
      "inputs": [],
      "name": "owner",
      "outputs": [
        {
          "internalType": "address",
          "name": "",
          "type": "address"
        }
      ],
      "stateMutability": "view",
      "type": "function",
      "constant": true
    },
    {
      "inputs": [],
      "name": "renounceOwnership",
      "outputs": [],
      "stateMutability": "nonpayable",
      "type": "function"
    },
    {
      "inputs": [],
      "name": "satiToken",
      "outputs": [
        {
          "internalType": "contract SatiToken",
          "name": "",
          "type": "address"
        }
      ],
      "stateMutability": "view",
      "type": "function",
      "constant": true
    },
    {
      "inputs": [
        {
          "internalType": "address",
          "name": "newOwner",
          "type": "address"
        }
      ],
      "name": "transferOwnership",
      "outputs": [],
      "stateMutability": "nonpayable",
      "type": "function"
    },
    {
      "inputs": [
        {
          "internalType": "uint256",
          "name": "_weiAmount",
          "type": "uint256"
        }
      ],
      "name": "getAmountOfSatiFromPairedToken",
      "outputs": [
        {
          "internalType": "uint256",
          "name": "",
          "type": "uint256"
        }
      ],
      "stateMutability": "nonpayable",
      "type": "function"
    },
    {
      "inputs": [
        {
          "internalType": "uint256",
          "name": "_ERC20TokenAmount",
          "type": "uint256"
        }
      ],
      "name": "swapPairedTokenForSati",
      "outputs": [],
      "stateMutability": "payable",
      "type": "function",
      "payable": true
    },
    {
      "inputs": [
        {
          "internalType": "uint256",
          "name": "_satiAmount",
          "type": "uint256"
        }
      ],
      "name": "getNumberOfPairedTokenFromSati",
      "outputs": [
        {
          "internalType": "uint256",
          "name": "",
          "type": "uint256"
        }
      ],
      "stateMutability": "nonpayable",
      "type": "function"
    },
    {
      "inputs": [
        {
          "internalType": "uint256",
          "name": "_satiTokenAmount",
          "type": "uint256"
        }
      ],
      "name": "swapSatiForPairedToken",
      "outputs": [],
      "stateMutability": "payable",
      "type": "function",
      "payable": true
    }
  ],
  "bytecode": "0x60806040526012600160146101000a81548160ff021916908360ff1602179055503480156200002d57600080fd5b5060405162001df638038062001df683398181016040528101906200005391906200028c565b80620000866200007162000111640100000000026401000000009004565b62000119640100000000026401000000009004565b80600160006101000a81548173ffffffffffffffffffffffffffffffffffffffff021916908373ffffffffffffffffffffffffffffffffffffffff1602179055505081600260006101000a81548173ffffffffffffffffffffffffffffffffffffffff021916908373ffffffffffffffffffffffffffffffffffffffff1602179055505050620002d3565b600033905090565b60008060009054906101000a900473ffffffffffffffffffffffffffffffffffffffff169050816000806101000a81548173ffffffffffffffffffffffffffffffffffffffff021916908373ffffffffffffffffffffffffffffffffffffffff1602179055508173ffffffffffffffffffffffffffffffffffffffff168173ffffffffffffffffffffffffffffffffffffffff167f8be0079c531659141344cd1fd0a4f28419497f9722a3daafe3b4186f6b6457e060405160405180910390a35050565b600080fd5b600073ffffffffffffffffffffffffffffffffffffffff82169050919050565b60006200020f82620001e2565b9050919050565b6000620002238262000202565b9050919050565b620002358162000216565b81146200024157600080fd5b50565b60008151905062000255816200022a565b92915050565b620002668162000202565b81146200027257600080fd5b50565b60008151905062000286816200025b565b92915050565b60008060408385031215620002a657620002a5620001dd565b5b6000620002b68582860162000244565b9250506020620002c98582860162000275565b9150509250929050565b611b1380620002e36000396000f3fe6080604052600436106100a3576000357c0100000000000000000000000000000000000000000000000000000000900480639d0ba183116100765780639d0ba18314610143578063a1de94ab14610180578063c94e8204146101ab578063f0b58706146101e8578063f2fde38b14610204576100a3565b80631dda1a82146100a85780633561b7df146100e5578063715018a6146101015780638da5cb5b14610118575b600080fd5b3480156100b457600080fd5b506100cf60048036038101906100ca9190610db9565b61022d565b6040516100dc9190610df5565b60405180910390f35b6100ff60048036038101906100fa9190610db9565b610286565b005b34801561010d57600080fd5b506101166103cb565b005b34801561012457600080fd5b5061012d610453565b60405161013a9190610e51565b60405180910390f35b34801561014f57600080fd5b5061016a60048036038101906101659190610ea5565b61047c565b6040516101779190610eeb565b60405180910390f35b34801561018c57600080fd5b5061019561062f565b6040516101a29190610f65565b60405180910390f35b3480156101b757600080fd5b506101d260048036038101906101cd9190610db9565b610655565b6040516101df9190610df5565b60405180910390f35b61020260048036038101906101fd9190610db9565b6106ae565b005b34801561021057600080fd5b5061022b60048036038101906102269190610fac565b6107e3565b005b600080610239836108db565b9050808360405161024990611030565b60405180910390207ff1067d24cb7e943024a69dc0d5e4088ab0c731a079765f6660f24f5094c50a8160405160405180910390a480915050919050565b610297610291610924565b8261092c565b60006102a282610655565b90506102b56102af610924565b8261095d565b600260009054906101000a900473ffffffffffffffffffffffffffffffffffffffff1673ffffffffffffffffffffffffffffffffffffffff166323b872dd6102fb610924565b30856040518463ffffffff167c010000000000000000000000000000000000000000000000000000000002815260040161033793929190611045565b6020604051808303816000875af1158015610356573d6000803e3d6000fd5b505050506040513d601f19601f8201168201806040525081019061037a91906110b4565b508082610385610924565b73ffffffffffffffffffffffffffffffffffffffff167f2585a01fb30e6e678ba95ff762e7a69baaa667604e4d100d8e69dfa8205461ca60405160405180910390a45050565b6103d3610924565b73ffffffffffffffffffffffffffffffffffffffff166103f1610453565b73ffffffffffffffffffffffffffffffffffffffff1614610447576040517f08c379a000000000000000000000000000000000000000000000000000000000815260040161043e9061113e565b60405180910390fd5b61045160006109bb565b565b60008060009054906101000a900473ffffffffffffffffffffffffffffffffffffffff16905090565b6000806000600160009054906101000a900473ffffffffffffffffffffffffffffffffffffffff1673ffffffffffffffffffffffffffffffffffffffff1663feaf968c6040518163ffffffff167c010000000000000000000000000000000000000000000000000000000002815260040160a060405180830381865afa15801561050a573d6000803e3d6000fd5b505050506040513d601f19601f8201168201806040525081019061052e91906111e1565b509350509250506000600160009054906101000a900473ffffffffffffffffffffffffffffffffffffffff1673ffffffffffffffffffffffffffffffffffffffff1663313ce5676040518163ffffffff167c0100000000000000000000000000000000000000000000000000000000028152600401602060405180830381865afa1580156105c0573d6000803e3d6000fd5b505050506040513d601f19601f820116820180604052508101906105e49190611271565b905060006105f3848388610a7f565b905082817fb6c1393c2251d5f83b6b4923759cf156e72f269dc654f872eab19c92b853cf5e60405160405180910390a380945050505050919050565b600260009054906101000a900473ffffffffffffffffffffffffffffffffffffffff1681565b60008061066183610b02565b90508083604051610671906112ea565b60405180910390207ff1067d24cb7e943024a69dc0d5e4088ab0c731a079765f6660f24f5094c50a8160405160405180910390a480915050919050565b60006106b98261022d565b90506106c5308261092c565b6106cf308361095d565b600260009054906101000a900473ffffffffffffffffffffffffffffffffffffffff1673ffffffffffffffffffffffffffffffffffffffff1663a9059cbb610715610924565b836040518363ffffffff167c010000000000000000000000000000000000000000000000000000000002815260040161074f9291906112ff565b6020604051808303816000875af115801561076e573d6000803e3d6000fd5b505050506040513d601f19601f8201168201806040525081019061079291906110b4565b50808261079d610924565b73ffffffffffffffffffffffffffffffffffffffff167f2585a01fb30e6e678ba95ff762e7a69baaa667604e4d100d8e69dfa8205461ca60405160405180910390a45050565b6107eb610924565b73ffffffffffffffffffffffffffffffffffffffff16610809610453565b73ffffffffffffffffffffffffffffffffffffffff161461085f576040517f08c379a00000000000000000000000000000000000000000000000000000000081526004016108569061113e565b60405180910390fd5b600073ffffffffffffffffffffffffffffffffffffffff168173ffffffffffffffffffffffffffffffffffffffff1614156108cf576040517f08c379a00000000000000000000000000000000000000000000000000000000081526004016108c69061139a565b60405180910390fd5b6108d8816109bb565b50565b6000806108f6600160149054906101000a900460ff1661047c565b90508061091284600160149054906101000a900460ff16610b4b565b61091c91906113e9565b915050919050565b600033905090565b610959600260009054906101000a900473ffffffffffffffffffffffffffffffffffffffff168383610b70565b5050565b808273ffffffffffffffffffffffffffffffffffffffff163110156109b7576040517f08c379a00000000000000000000000000000000000000000000000000000000081526004016109ae9061148f565b60405180910390fd5b5050565b60008060009054906101000a900473ffffffffffffffffffffffffffffffffffffffff169050816000806101000a81548173ffffffffffffffffffffffffffffffffffffffff021916908373ffffffffffffffffffffffffffffffffffffffff1602179055508173ffffffffffffffffffffffffffffffffffffffff168173ffffffffffffffffffffffffffffffffffffffff167f8be0079c531659141344cd1fd0a4f28419497f9722a3daafe3b4186f6b6457e060405160405180910390a35050565b60008160ff168360ff161015610abc578282610a9b91906114af565b60ff16600a610aaa9190611616565b84610ab59190611661565b9050610afb565b8160ff168360ff161115610af7578183610ad691906114af565b60ff16600a610ae59190611616565b84610af091906117a7565b9050610afb565b8390505b9392505050565b600080610b1d600160149054906101000a900460ff1661047c565b905080610b3984600160149054906101000a900460ff16610d1e565b610b439190611811565b915050919050565b60008160ff16600a610b5d9190611616565b83610b689190611811565b905092915050565b808373ffffffffffffffffffffffffffffffffffffffff166370a08231846040518263ffffffff167c0100000000000000000000000000000000000000000000000000000000028152600401610bc69190610e51565b602060405180830381865afa158015610be3573d6000803e3d6000fd5b505050506040513d601f19601f82011682018060405250810190610c079190611842565b1015610cd76040518060400160405280600b81526020017f4e6f7420656e6f756768200000000000000000000000000000000000000000008152508573ffffffffffffffffffffffffffffffffffffffff166395d89b416040518163ffffffff167c0100000000000000000000000000000000000000000000000000000000028152600401600060405180830381865afa158015610ca9573d6000803e3d6000fd5b505050506040513d6000823e3d601f19601f82011682018060405250810190610cd291906119d9565b610d43565b90610d18576040517f08c379a0000000000000000000000000000000000000000000000000000000008152600401610d0f9190611a66565b60405180910390fd5b50505050565b60008160ff16600a610d309190611616565b83610d3b91906113e9565b905092915050565b60608282604051602001610d58929190611ab9565b604051602081830303815290604052905092915050565b6000604051905090565b600080fd5b600080fd5b6000819050919050565b610d9681610d83565b8114610da157600080fd5b50565b600081359050610db381610d8d565b92915050565b600060208284031215610dcf57610dce610d79565b5b6000610ddd84828501610da4565b91505092915050565b610def81610d83565b82525050565b6000602082019050610e0a6000830184610de6565b92915050565b600073ffffffffffffffffffffffffffffffffffffffff82169050919050565b6000610e3b82610e10565b9050919050565b610e4b81610e30565b82525050565b6000602082019050610e666000830184610e42565b92915050565b600060ff82169050919050565b610e8281610e6c565b8114610e8d57600080fd5b50565b600081359050610e9f81610e79565b92915050565b600060208284031215610ebb57610eba610d79565b5b6000610ec984828501610e90565b91505092915050565b6000819050919050565b610ee581610ed2565b82525050565b6000602082019050610f006000830184610edc565b92915050565b6000819050919050565b6000610f2b610f26610f2184610e10565b610f06565b610e10565b9050919050565b6000610f3d82610f10565b9050919050565b6000610f4f82610f32565b9050919050565b610f5f81610f44565b82525050565b6000602082019050610f7a6000830184610f56565b92915050565b610f8981610e30565b8114610f9457600080fd5b50565b600081359050610fa681610f80565b92915050565b600060208284031215610fc257610fc1610d79565b5b6000610fd084828501610f97565b91505092915050565b600081905092915050565b7f45544820746f2053544900000000000000000000000000000000000000000000600082015250565b600061101a600a83610fd9565b915061102582610fe4565b600a82019050919050565b600061103b8261100d565b9150819050919050565b600060608201905061105a6000830186610e42565b6110676020830185610e42565b6110746040830184610de6565b949350505050565b60008115159050919050565b6110918161107c565b811461109c57600080fd5b50565b6000815190506110ae81611088565b92915050565b6000602082840312156110ca576110c9610d79565b5b60006110d88482850161109f565b91505092915050565b600082825260208201905092915050565b7f4f776e61626c653a2063616c6c6572206973206e6f7420746865206f776e6572600082015250565b60006111286020836110e1565b9150611133826110f2565b602082019050919050565b600060208201905081810360008301526111578161111b565b9050919050565b600069ffffffffffffffffffff82169050919050565b61117d8161115e565b811461118857600080fd5b50565b60008151905061119a81611174565b92915050565b6111a981610ed2565b81146111b457600080fd5b50565b6000815190506111c6816111a0565b92915050565b6000815190506111db81610d8d565b92915050565b600080600080600060a086880312156111fd576111fc610d79565b5b600061120b8882890161118b565b955050602061121c888289016111b7565b945050604061122d888289016111cc565b935050606061123e888289016111cc565b925050608061124f8882890161118b565b9150509295509295909350565b60008151905061126b81610e79565b92915050565b60006020828403121561128757611286610d79565b5b60006112958482850161125c565b91505092915050565b7f53544920746f2045544800000000000000000000000000000000000000000000600082015250565b60006112d4600a83610fd9565b91506112df8261129e565b600a82019050919050565b60006112f5826112c7565b9150819050919050565b60006040820190506113146000830185610e42565b6113216020830184610de6565b9392505050565b7f4f776e61626c653a206e6577206f776e657220697320746865207a65726f206160008201527f6464726573730000000000000000000000000000000000000000000000000000602082015250565b60006113846026836110e1565b915061138f82611328565b604082019050919050565b600060208201905081810360008301526113b381611377565b9050919050565b7f4e487b7100000000000000000000000000000000000000000000000000000000600052601160045260246000fd5b60006113f482610d83565b91506113ff83610d83565b9250817fffffffffffffffffffffffffffffffffffffffffffffffffffffffffffffffff0483118215151615611438576114376113ba565b5b828202905092915050565b7f6e6f7420656e6f75676820455448000000000000000000000000000000000000600082015250565b6000611479600e836110e1565b915061148482611443565b602082019050919050565b600060208201905081810360008301526114a88161146c565b9050919050565b60006114ba82610e6c565b91506114c583610e6c565b9250828210156114d8576114d76113ba565b5b828203905092915050565b6000600282049050919050565b6000808291508390505b600185111561153a57808604811115611516576115156113ba565b5b60018516156115255780820291505b8081029050611533856114e3565b94506114fa565b94509492505050565b600082611553576001905061160f565b81611561576000905061160f565b81600181146115775760028114611581576115b0565b600191505061160f565b60ff841115611593576115926113ba565b5b8360020a9150848211156115aa576115a96113ba565b5b5061160f565b5060208310610133831016604e8410600b84101617156115e55782820a9050838111156115e0576115df6113ba565b5b61160f565b6115f284848460016114f0565b92509050818404811115611609576116086113ba565b5b81810290505b9392505050565b600061162182610d83565b915061162c83610d83565b92506116597fffffffffffffffffffffffffffffffffffffffffffffffffffffffffffffffff8484611543565b905092915050565b600061166c82610ed2565b915061167783610ed2565b9250827f7fffffffffffffffffffffffffffffffffffffffffffffffffffffffffffffff04821160008413600084131616156116b6576116b56113ba565b5b817f800000000000000000000000000000000000000000000000000000000000000005831260008412600084131616156116f3576116f26113ba565b5b827f800000000000000000000000000000000000000000000000000000000000000005821260008413600084121616156117305761172f6113ba565b5b827f7fffffffffffffffffffffffffffffffffffffffffffffffffffffffffffffff058212600084126000841216161561176d5761176c6113ba565b5b828202905092915050565b7f4e487b7100000000000000000000000000000000000000000000000000000000600052601260045260246000fd5b60006117b282610ed2565b91506117bd83610ed2565b9250826117cd576117cc611778565b5b600160000383147f800000000000000000000000000000000000000000000000000000000000000083141615611806576118056113ba565b5b828205905092915050565b600061181c82610d83565b915061182783610d83565b92508261183757611836611778565b5b828204905092915050565b60006020828403121561185857611857610d79565b5b6000611866848285016111cc565b91505092915050565b600080fd5b600080fd5b6000601f19601f8301169050919050565b7f4e487b7100000000000000000000000000000000000000000000000000000000600052604160045260246000fd5b6118c282611879565b810181811067ffffffffffffffff821117156118e1576118e061188a565b5b80604052505050565b60006118f4610d6f565b905061190082826118b9565b919050565b600067ffffffffffffffff8211156119205761191f61188a565b5b61192982611879565b9050602081019050919050565b60005b83811015611954578082015181840152602081019050611939565b83811115611963576000848401525b50505050565b600061197c61197784611905565b6118ea565b90508281526020810184848401111561199857611997611874565b5b6119a3848285611936565b509392505050565b600082601f8301126119c0576119bf61186f565b5b81516119d0848260208601611969565b91505092915050565b6000602082840312156119ef576119ee610d79565b5b600082015167ffffffffffffffff811115611a0d57611a0c610d7e565b5b611a19848285016119ab565b91505092915050565b600081519050919050565b6000611a3882611a22565b611a4281856110e1565b9350611a52818560208601611936565b611a5b81611879565b840191505092915050565b60006020820190508181036000830152611a808184611a2d565b905092915050565b6000611a9382611a22565b611a9d8185610fd9565b9350611aad818560208601611936565b80840191505092915050565b6000611ac58285611a88565b9150611ad18284611a88565b9150819050939250505056fea2646970667358221220ba6e3dd0c3fb34c28c237aafa2b683f94a6728feb644dc1c718f6b709ed2253d64736f6c634300080b0033",
  "immutableReferences": {},
  "source": "// SPDX-License-Identifier: MIT\n\npragma solidity ^0.8.11;\n\nimport \"./SatiToken.sol\";\n\nimport \"@openzeppelin/contracts/utils/Context.sol\";\nimport \"@openzeppelin/contracts/access/Ownable.sol\";\nimport \"./Swapable.sol\";\nimport \"./ISatiSwapable.sol\";\n\ncontract SatiEthSwap is Context, Ownable, Swapable {\n    SatiToken public satiToken;\n\n    constructor(SatiToken _satiToken, address _ethToUsdRate)\n        Ratable(_ethToUsdRate)\n    {\n        satiToken = _satiToken;\n    }\n\n    function requireHasEnoughSati(\n        address _addressToValidate,\n        uint256 _requiredAmount\n    ) internal view override {\n        requireHasEnoughToken(satiToken, _addressToValidate, _requiredAmount);\n    }\n\n    function requireHasEnoughPairedToken(\n        address _addressToValidate,\n        uint256 _requiredAmount\n    ) internal view override {\n        require(\n            address(_addressToValidate).balance >= _requiredAmount,\n            \"not enough ETH\"\n        );\n    }\n\n    //////////////////\n    //// Buy Sati ////\n    //////////////////\n\n    function getAmountOfSatiFromPairedToken(uint256 _weiAmount)\n        public\n        override\n        returns (uint256)\n    {\n        uint256 tokenAmountToExchange = getSatiTokenAmountForFromRate(\n            _weiAmount\n        );\n\n        emit SwapRate(\"ETH to STI\", _weiAmount, tokenAmountToExchange);\n\n        return tokenAmountToExchange;\n    }\n\n    function swapPairedTokenForSati(uint256 _ERC20TokenAmount)\n        external\n        payable\n        override\n    {\n        uint256 satiTokenAmount = getAmountOfSatiFromPairedToken(\n            _ERC20TokenAmount\n        );\n\n        requireHasEnoughSati(address(this), satiTokenAmount);\n        requireHasEnoughPairedToken(address(this), _ERC20TokenAmount);\n\n        satiToken.transfer(_msgSender(), satiTokenAmount);\n\n        emit SwapTransfer(_msgSender(), _ERC20TokenAmount, satiTokenAmount);\n    }\n\n    ///////////////////\n    //// Sell Sati ////\n    ///////////////////\n\n    function getNumberOfPairedTokenFromSati(uint256 _satiAmount)\n        public\n        override\n        returns (uint256)\n    {\n        uint256 tokenAmountToExchange = getERC20TokenAmountFromRate(\n            _satiAmount\n        );\n\n        emit SwapRate(\"STI to ETH\", _satiAmount, tokenAmountToExchange);\n\n        return tokenAmountToExchange;\n    }\n\n    function swapSatiForPairedToken(uint256 _satiTokenAmount)\n        external\n        payable\n        override\n    {\n        requireHasEnoughSati(_msgSender(), _satiTokenAmount);\n\n        uint256 weiAmount = getNumberOfPairedTokenFromSati(_satiTokenAmount);\n\n        requireHasEnoughPairedToken(address(_msgSender()), weiAmount);\n\n        satiToken.transferFrom(_msgSender(), address(this), _satiTokenAmount);\n\n        emit SwapTransfer(_msgSender(), _satiTokenAmount, weiAmount);\n    }\n}\n",
  "sourcePath": "/Users/bmarquis/Crypto/solidity-swap-exchange/contracts/source/SatiEthSwap.sol",
  "compiler": {
    "name": "solc",
    "version": "0.8.11+commit.d7f03943.Emscripten.clang"
  },
  "schemaVersion": "3.4.5",
  "updatedAt": "2022-02-25T02:51:40.471Z",
  "networkType": "ethereum",
  "devdoc": {
    "kind": "dev",
    "methods": {
      "owner()": {
        "details": "Returns the address of the current owner."
      },
      "renounceOwnership()": {
        "details": "Leaves the contract without owner. It will not be possible to call `onlyOwner` functions anymore. Can only be called by the current owner. NOTE: Renouncing ownership will leave the contract without an owner, thereby removing any functionality that is only available to the owner."
      },
      "transferOwnership(address)": {
        "details": "Transfers ownership of the contract to a new account (`newOwner`). Can only be called by the current owner."
      }
    },
    "version": 1
  },
  "userdoc": {
    "kind": "user",
    "methods": {},
    "version": 1
  }
}