{
  "contractName": "SatiEthSwap",
  "abi": [
    {
      "inputs": [
        {
          "internalType": "contract SatiToken",
          "name": "_satiToken",
          "type": "address"
        },
        {
          "internalType": "address",
          "name": "_ethToUsdRate",
          "type": "address"
        }
      ],
      "stateMutability": "nonpayable",
      "type": "constructor"
    },
    {
      "anonymous": false,
      "inputs": [
        {
          "indexed": true,
          "internalType": "address",
          "name": "previousOwner",
          "type": "address"
        },
        {
          "indexed": true,
          "internalType": "address",
          "name": "newOwner",
          "type": "address"
        }
      ],
      "name": "OwnershipTransferred",
      "type": "event"
    },
    {
      "anonymous": false,
      "inputs": [
        {
          "indexed": true,
          "internalType": "int256",
          "name": "scaledPrice",
          "type": "int256"
        },
        {
          "indexed": true,
          "internalType": "uint256",
          "name": "timeStamp",
          "type": "uint256"
        }
      ],
      "name": "Rate",
      "type": "event"
    },
    {
      "anonymous": false,
      "inputs": [
        {
          "indexed": true,
          "internalType": "string",
          "name": "exchangeType",
          "type": "string"
        },
        {
          "indexed": true,
          "internalType": "uint256",
          "name": "sellingAmount",
          "type": "uint256"
        },
        {
          "indexed": true,
          "internalType": "uint256",
          "name": "buyingAmount",
          "type": "uint256"
        }
      ],
      "name": "SwapRate",
      "type": "event"
    },
    {
      "anonymous": false,
      "inputs": [
        {
          "indexed": true,
          "internalType": "address",
          "name": "beneficiary",
          "type": "address"
        },
        {
          "indexed": true,
          "internalType": "uint256",
          "name": "amountSent",
          "type": "uint256"
        },
        {
          "indexed": true,
          "internalType": "uint256",
          "name": "amountReceived",
          "type": "uint256"
        }
      ],
      "name": "SwapTransfer",
      "type": "event"
    },
    {
      "inputs": [
        {
          "internalType": "uint8",
          "name": "_scalingDecimal",
          "type": "uint8"
        }
      ],
      "name": "getScaledRate",
      "outputs": [
        {
          "internalType": "int256",
          "name": "",
          "type": "int256"
        }
      ],
      "stateMutability": "nonpayable",
      "type": "function"
    },
    {
      "inputs": [],
      "name": "owner",
      "outputs": [
        {
          "internalType": "address",
          "name": "",
          "type": "address"
        }
      ],
      "stateMutability": "view",
      "type": "function",
      "constant": true
    },
    {
      "inputs": [],
      "name": "renounceOwnership",
      "outputs": [],
      "stateMutability": "nonpayable",
      "type": "function"
    },
    {
      "inputs": [],
      "name": "satiToken",
      "outputs": [
        {
          "internalType": "contract SatiToken",
          "name": "",
          "type": "address"
        }
      ],
      "stateMutability": "view",
      "type": "function",
      "constant": true
    },
    {
      "inputs": [
        {
          "internalType": "address",
          "name": "newOwner",
          "type": "address"
        }
      ],
      "name": "transferOwnership",
      "outputs": [],
      "stateMutability": "nonpayable",
      "type": "function"
    },
    {
      "inputs": [
        {
          "internalType": "uint256",
          "name": "_weiAmount",
          "type": "uint256"
        }
      ],
      "name": "getAmountOfSatiFromSwapToken",
      "outputs": [
        {
          "internalType": "uint256",
          "name": "",
          "type": "uint256"
        }
      ],
      "stateMutability": "nonpayable",
      "type": "function"
    },
    {
      "inputs": [
        {
          "internalType": "uint256",
          "name": "_swapTokenAmount",
          "type": "uint256"
        }
      ],
      "name": "swapSwapTokenForSati",
      "outputs": [],
      "stateMutability": "payable",
      "type": "function",
      "payable": true
    },
    {
      "inputs": [
        {
          "internalType": "uint256",
          "name": "_satiAmount",
          "type": "uint256"
        }
      ],
      "name": "getNumberOfSwapTokenFromSati",
      "outputs": [
        {
          "internalType": "uint256",
          "name": "",
          "type": "uint256"
        }
      ],
      "stateMutability": "nonpayable",
      "type": "function"
    },
    {
      "inputs": [
        {
          "internalType": "uint256",
          "name": "_satiTokenAmount",
          "type": "uint256"
        }
      ],
      "name": "swapSatiForSwapToken",
      "outputs": [],
      "stateMutability": "payable",
      "type": "function",
      "payable": true
    }
  ],
  "bytecode": "0x60806040526012600160146101000a81548160ff021916908360ff1602179055503480156200002d57600080fd5b5060405162001df638038062001df683398181016040528101906200005391906200028c565b80620000866200007162000111640100000000026401000000009004565b62000119640100000000026401000000009004565b80600160006101000a81548173ffffffffffffffffffffffffffffffffffffffff021916908373ffffffffffffffffffffffffffffffffffffffff1602179055505081600260006101000a81548173ffffffffffffffffffffffffffffffffffffffff021916908373ffffffffffffffffffffffffffffffffffffffff1602179055505050620002d3565b600033905090565b60008060009054906101000a900473ffffffffffffffffffffffffffffffffffffffff169050816000806101000a81548173ffffffffffffffffffffffffffffffffffffffff021916908373ffffffffffffffffffffffffffffffffffffffff1602179055508173ffffffffffffffffffffffffffffffffffffffff168173ffffffffffffffffffffffffffffffffffffffff167f8be0079c531659141344cd1fd0a4f28419497f9722a3daafe3b4186f6b6457e060405160405180910390a35050565b600080fd5b600073ffffffffffffffffffffffffffffffffffffffff82169050919050565b60006200020f82620001e2565b9050919050565b6000620002238262000202565b9050919050565b620002358162000216565b81146200024157600080fd5b50565b60008151905062000255816200022a565b92915050565b620002668162000202565b81146200027257600080fd5b50565b60008151905062000286816200025b565b92915050565b60008060408385031215620002a657620002a5620001dd565b5b6000620002b68582860162000244565b9250506020620002c98582860162000275565b9150509250929050565b611b1380620002e36000396000f3fe6080604052600436106100a3576000357c0100000000000000000000000000000000000000000000000000000000900480638907f80d116100765780638907f80d146101555780638da5cb5b146101715780639d0ba1831461019c578063a1de94ab146101d9578063f2fde38b14610204576100a3565b8063055386e3146100a8578063715018a6146100e55780637a1b7be6146100fc5780637f9d055b14610139575b600080fd5b3480156100b457600080fd5b506100cf60048036038101906100ca9190610db9565b61022d565b6040516100dc9190610df5565b60405180910390f35b3480156100f157600080fd5b506100fa610286565b005b34801561010857600080fd5b50610123600480360381019061011e9190610db9565b61030e565b6040516101309190610df5565b60405180910390f35b610153600480360381019061014e9190610db9565b610367565b005b61016f600480360381019061016a9190610db9565b6104ac565b005b34801561017d57600080fd5b506101866105e1565b6040516101939190610e51565b60405180910390f35b3480156101a857600080fd5b506101c360048036038101906101be9190610ea5565b61060a565b6040516101d09190610eeb565b60405180910390f35b3480156101e557600080fd5b506101ee6107bd565b6040516101fb9190610f65565b60405180910390f35b34801561021057600080fd5b5061022b60048036038101906102269190610fac565b6107e3565b005b600080610239836108db565b9050808360405161024990611030565b60405180910390207ff1067d24cb7e943024a69dc0d5e4088ab0c731a079765f6660f24f5094c50a8160405160405180910390a480915050919050565b61028e610924565b73ffffffffffffffffffffffffffffffffffffffff166102ac6105e1565b73ffffffffffffffffffffffffffffffffffffffff1614610302576040517f08c379a00000000000000000000000000000000000000000000000000000000081526004016102f9906110a2565b60405180910390fd5b61030c600061092c565b565b60008061031a836109f0565b9050808360405161032a9061110e565b60405180910390207ff1067d24cb7e943024a69dc0d5e4088ab0c731a079765f6660f24f5094c50a8160405160405180910390a480915050919050565b610378610372610924565b82610a39565b60006103838261030e565b9050610396610390610924565b82610a6a565b600260009054906101000a900473ffffffffffffffffffffffffffffffffffffffff1673ffffffffffffffffffffffffffffffffffffffff166323b872dd6103dc610924565b30856040518463ffffffff167c010000000000000000000000000000000000000000000000000000000002815260040161041893929190611123565b6020604051808303816000875af1158015610437573d6000803e3d6000fd5b505050506040513d601f19601f8201168201806040525081019061045b9190611192565b508082610466610924565b73ffffffffffffffffffffffffffffffffffffffff167f2585a01fb30e6e678ba95ff762e7a69baaa667604e4d100d8e69dfa8205461ca60405160405180910390a45050565b60006104b78261022d565b90506104c33082610a39565b6104cd3083610a6a565b600260009054906101000a900473ffffffffffffffffffffffffffffffffffffffff1673ffffffffffffffffffffffffffffffffffffffff1663a9059cbb610513610924565b836040518363ffffffff167c010000000000000000000000000000000000000000000000000000000002815260040161054d9291906111bf565b6020604051808303816000875af115801561056c573d6000803e3d6000fd5b505050506040513d601f19601f820116820180604052508101906105909190611192565b50808261059b610924565b73ffffffffffffffffffffffffffffffffffffffff167f2585a01fb30e6e678ba95ff762e7a69baaa667604e4d100d8e69dfa8205461ca60405160405180910390a45050565b60008060009054906101000a900473ffffffffffffffffffffffffffffffffffffffff16905090565b6000806000600160009054906101000a900473ffffffffffffffffffffffffffffffffffffffff1673ffffffffffffffffffffffffffffffffffffffff1663feaf968c6040518163ffffffff167c010000000000000000000000000000000000000000000000000000000002815260040160a060405180830381865afa158015610698573d6000803e3d6000fd5b505050506040513d601f19601f820116820180604052508101906106bc919061126b565b509350509250506000600160009054906101000a900473ffffffffffffffffffffffffffffffffffffffff1673ffffffffffffffffffffffffffffffffffffffff1663313ce5676040518163ffffffff167c0100000000000000000000000000000000000000000000000000000000028152600401602060405180830381865afa15801561074e573d6000803e3d6000fd5b505050506040513d601f19601f8201168201806040525081019061077291906112fb565b90506000610781848388610ac8565b905082817fb6c1393c2251d5f83b6b4923759cf156e72f269dc654f872eab19c92b853cf5e60405160405180910390a380945050505050919050565b600260009054906101000a900473ffffffffffffffffffffffffffffffffffffffff1681565b6107eb610924565b73ffffffffffffffffffffffffffffffffffffffff166108096105e1565b73ffffffffffffffffffffffffffffffffffffffff161461085f576040517f08c379a0000000000000000000000000000000000000000000000000000000008152600401610856906110a2565b60405180910390fd5b600073ffffffffffffffffffffffffffffffffffffffff168173ffffffffffffffffffffffffffffffffffffffff1614156108cf576040517f08c379a00000000000000000000000000000000000000000000000000000000081526004016108c69061139a565b60405180910390fd5b6108d88161092c565b50565b6000806108f6600160149054906101000a900460ff1661060a565b90508061091284600160149054906101000a900460ff16610b4b565b61091c91906113e9565b915050919050565b600033905090565b60008060009054906101000a900473ffffffffffffffffffffffffffffffffffffffff169050816000806101000a81548173ffffffffffffffffffffffffffffffffffffffff021916908373ffffffffffffffffffffffffffffffffffffffff1602179055508173ffffffffffffffffffffffffffffffffffffffff168173ffffffffffffffffffffffffffffffffffffffff167f8be0079c531659141344cd1fd0a4f28419497f9722a3daafe3b4186f6b6457e060405160405180910390a35050565b600080610a0b600160149054906101000a900460ff1661060a565b905080610a2784600160149054906101000a900460ff16610b70565b610a319190611472565b915050919050565b610a66600260009054906101000a900473ffffffffffffffffffffffffffffffffffffffff168383610b95565b5050565b808273ffffffffffffffffffffffffffffffffffffffff16311015610ac4576040517f08c379a0000000000000000000000000000000000000000000000000000000008152600401610abb906114ef565b60405180910390fd5b5050565b60008160ff168360ff161015610b05578282610ae4919061150f565b60ff16600a610af39190611676565b84610afe91906116c1565b9050610b44565b8160ff168360ff161115610b40578183610b1f919061150f565b60ff16600a610b2e9190611676565b84610b3991906117d8565b9050610b44565b8390505b9392505050565b60008160ff16600a610b5d9190611676565b83610b689190611472565b905092915050565b60008160ff16600a610b829190611676565b83610b8d91906113e9565b905092915050565b808373ffffffffffffffffffffffffffffffffffffffff166370a08231846040518263ffffffff167c0100000000000000000000000000000000000000000000000000000000028152600401610beb9190610e51565b602060405180830381865afa158015610c08573d6000803e3d6000fd5b505050506040513d601f19601f82011682018060405250810190610c2c9190611842565b1015610cfc6040518060400160405280600b81526020017f4e6f7420656e6f756768200000000000000000000000000000000000000000008152508573ffffffffffffffffffffffffffffffffffffffff166395d89b416040518163ffffffff167c0100000000000000000000000000000000000000000000000000000000028152600401600060405180830381865afa158015610cce573d6000803e3d6000fd5b505050506040513d6000823e3d601f19601f82011682018060405250810190610cf791906119d9565b610d43565b90610d3d576040517f08c379a0000000000000000000000000000000000000000000000000000000008152600401610d349190611a66565b60405180910390fd5b50505050565b60608282604051602001610d58929190611ab9565b604051602081830303815290604052905092915050565b6000604051905090565b600080fd5b600080fd5b6000819050919050565b610d9681610d83565b8114610da157600080fd5b50565b600081359050610db381610d8d565b92915050565b600060208284031215610dcf57610dce610d79565b5b6000610ddd84828501610da4565b91505092915050565b610def81610d83565b82525050565b6000602082019050610e0a6000830184610de6565b92915050565b600073ffffffffffffffffffffffffffffffffffffffff82169050919050565b6000610e3b82610e10565b9050919050565b610e4b81610e30565b82525050565b6000602082019050610e666000830184610e42565b92915050565b600060ff82169050919050565b610e8281610e6c565b8114610e8d57600080fd5b50565b600081359050610e9f81610e79565b92915050565b600060208284031215610ebb57610eba610d79565b5b6000610ec984828501610e90565b91505092915050565b6000819050919050565b610ee581610ed2565b82525050565b6000602082019050610f006000830184610edc565b92915050565b6000819050919050565b6000610f2b610f26610f2184610e10565b610f06565b610e10565b9050919050565b6000610f3d82610f10565b9050919050565b6000610f4f82610f32565b9050919050565b610f5f81610f44565b82525050565b6000602082019050610f7a6000830184610f56565b92915050565b610f8981610e30565b8114610f9457600080fd5b50565b600081359050610fa681610f80565b92915050565b600060208284031215610fc257610fc1610d79565b5b6000610fd084828501610f97565b91505092915050565b600081905092915050565b7f45544820746f2053544900000000000000000000000000000000000000000000600082015250565b600061101a600a83610fd9565b915061102582610fe4565b600a82019050919050565b600061103b8261100d565b9150819050919050565b600082825260208201905092915050565b7f4f776e61626c653a2063616c6c6572206973206e6f7420746865206f776e6572600082015250565b600061108c602083611045565b915061109782611056565b602082019050919050565b600060208201905081810360008301526110bb8161107f565b9050919050565b7f53544920746f2045544800000000000000000000000000000000000000000000600082015250565b60006110f8600a83610fd9565b9150611103826110c2565b600a82019050919050565b6000611119826110eb565b9150819050919050565b60006060820190506111386000830186610e42565b6111456020830185610e42565b6111526040830184610de6565b949350505050565b60008115159050919050565b61116f8161115a565b811461117a57600080fd5b50565b60008151905061118c81611166565b92915050565b6000602082840312156111a8576111a7610d79565b5b60006111b68482850161117d565b91505092915050565b60006040820190506111d46000830185610e42565b6111e16020830184610de6565b9392505050565b600069ffffffffffffffffffff82169050919050565b611207816111e8565b811461121257600080fd5b50565b600081519050611224816111fe565b92915050565b61123381610ed2565b811461123e57600080fd5b50565b6000815190506112508161122a565b92915050565b60008151905061126581610d8d565b92915050565b600080600080600060a0868803121561128757611286610d79565b5b600061129588828901611215565b95505060206112a688828901611241565b94505060406112b788828901611256565b93505060606112c888828901611256565b92505060806112d988828901611215565b9150509295509295909350565b6000815190506112f581610e79565b92915050565b60006020828403121561131157611310610d79565b5b600061131f848285016112e6565b91505092915050565b7f4f776e61626c653a206e6577206f776e657220697320746865207a65726f206160008201527f6464726573730000000000000000000000000000000000000000000000000000602082015250565b6000611384602683611045565b915061138f82611328565b604082019050919050565b600060208201905081810360008301526113b381611377565b9050919050565b7f4e487b7100000000000000000000000000000000000000000000000000000000600052601160045260246000fd5b60006113f482610d83565b91506113ff83610d83565b9250817fffffffffffffffffffffffffffffffffffffffffffffffffffffffffffffffff0483118215151615611438576114376113ba565b5b828202905092915050565b7f4e487b7100000000000000000000000000000000000000000000000000000000600052601260045260246000fd5b600061147d82610d83565b915061148883610d83565b92508261149857611497611443565b5b828204905092915050565b7f6e6f7420656e6f75676820455448000000000000000000000000000000000000600082015250565b60006114d9600e83611045565b91506114e4826114a3565b602082019050919050565b60006020820190508181036000830152611508816114cc565b9050919050565b600061151a82610e6c565b915061152583610e6c565b925082821015611538576115376113ba565b5b828203905092915050565b6000600282049050919050565b6000808291508390505b600185111561159a57808604811115611576576115756113ba565b5b60018516156115855780820291505b808102905061159385611543565b945061155a565b94509492505050565b6000826115b3576001905061166f565b816115c1576000905061166f565b81600181146115d757600281146115e157611610565b600191505061166f565b60ff8411156115f3576115f26113ba565b5b8360020a91508482111561160a576116096113ba565b5b5061166f565b5060208310610133831016604e8410600b84101617156116455782820a9050838111156116405761163f6113ba565b5b61166f565b6116528484846001611550565b92509050818404811115611669576116686113ba565b5b81810290505b9392505050565b600061168182610d83565b915061168c83610d83565b92506116b97fffffffffffffffffffffffffffffffffffffffffffffffffffffffffffffffff84846115a3565b905092915050565b60006116cc82610ed2565b91506116d783610ed2565b9250827f7fffffffffffffffffffffffffffffffffffffffffffffffffffffffffffffff0482116000841360008413161615611716576117156113ba565b5b817f80000000000000000000000000000000000000000000000000000000000000000583126000841260008413161615611753576117526113ba565b5b827f800000000000000000000000000000000000000000000000000000000000000005821260008413600084121616156117905761178f6113ba565b5b827f7fffffffffffffffffffffffffffffffffffffffffffffffffffffffffffffff05821260008412600084121616156117cd576117cc6113ba565b5b828202905092915050565b60006117e382610ed2565b91506117ee83610ed2565b9250826117fe576117fd611443565b5b600160000383147f800000000000000000000000000000000000000000000000000000000000000083141615611837576118366113ba565b5b828205905092915050565b60006020828403121561185857611857610d79565b5b600061186684828501611256565b91505092915050565b600080fd5b600080fd5b6000601f19601f8301169050919050565b7f4e487b7100000000000000000000000000000000000000000000000000000000600052604160045260246000fd5b6118c282611879565b810181811067ffffffffffffffff821117156118e1576118e061188a565b5b80604052505050565b60006118f4610d6f565b905061190082826118b9565b919050565b600067ffffffffffffffff8211156119205761191f61188a565b5b61192982611879565b9050602081019050919050565b60005b83811015611954578082015181840152602081019050611939565b83811115611963576000848401525b50505050565b600061197c61197784611905565b6118ea565b90508281526020810184848401111561199857611997611874565b5b6119a3848285611936565b509392505050565b600082601f8301126119c0576119bf61186f565b5b81516119d0848260208601611969565b91505092915050565b6000602082840312156119ef576119ee610d79565b5b600082015167ffffffffffffffff811115611a0d57611a0c610d7e565b5b611a19848285016119ab565b91505092915050565b600081519050919050565b6000611a3882611a22565b611a428185611045565b9350611a52818560208601611936565b611a5b81611879565b840191505092915050565b60006020820190508181036000830152611a808184611a2d565b905092915050565b6000611a9382611a22565b611a9d8185610fd9565b9350611aad818560208601611936565b80840191505092915050565b6000611ac58285611a88565b9150611ad18284611a88565b9150819050939250505056fea264697066735822122070e3dcdb830c7510ae675bafb9575b078ca3adf1d0d8b0d80a87e09e6f5eadea64736f6c634300080b0033",
  "immutableReferences": {},
  "source": "// SPDX-License-Identifier: MIT\n\npragma solidity ^0.8.11;\n\nimport \"./SatiToken.sol\";\n\nimport \"@openzeppelin/contracts/utils/Context.sol\";\nimport \"@openzeppelin/contracts/access/Ownable.sol\";\nimport \"./Swapable.sol\";\nimport \"./ISatiSwapable.sol\";\n\ncontract SatiEthSwap is Context, Ownable, Swapable {\n    SatiToken public satiToken;\n\n    constructor(SatiToken _satiToken, address _ethToUsdRate)\n        Ratable(_ethToUsdRate)\n    {\n        satiToken = _satiToken;\n    }\n\n    function requireHasEnoughSati(\n        address _addressToValidate,\n        uint256 _requiredAmount\n    ) internal view override {\n        requireHasEnoughToken(satiToken, _addressToValidate, _requiredAmount);\n    }\n\n    function requireHasEnoughSwapToken(\n        address _addressToValidate,\n        uint256 _requiredAmount\n    ) internal view override {\n        require(\n            address(_addressToValidate).balance >= _requiredAmount,\n            \"not enough ETH\"\n        );\n    }\n\n    //////////////////\n    //// Buy Sati ////\n    //////////////////\n\n    function getAmountOfSatiFromSwapToken(uint256 _weiAmount)\n        public\n        override\n        returns (uint256)\n    {\n        uint256 tokenAmountToExchange = getSatiTokenAmountForFromRate(\n            _weiAmount\n        );\n\n        emit SwapRate(\"ETH to STI\", _weiAmount, tokenAmountToExchange);\n\n        return tokenAmountToExchange;\n    }\n\n    function swapSwapTokenForSati(uint256 _swapTokenAmount)\n        external\n        payable\n        override\n    {\n        uint256 satiTokenAmount = getAmountOfSatiFromSwapToken(\n            _swapTokenAmount\n        );\n\n        requireHasEnoughSati(address(this), satiTokenAmount);\n        requireHasEnoughSwapToken(address(this), _swapTokenAmount);\n\n        satiToken.transfer(_msgSender(), satiTokenAmount);\n\n        emit SwapTransfer(_msgSender(), _swapTokenAmount, satiTokenAmount);\n    }\n\n    ///////////////////\n    //// Sell Sati ////\n    ///////////////////\n\n    function getNumberOfSwapTokenFromSati(uint256 _satiAmount)\n        public\n        override\n        returns (uint256)\n    {\n        uint256 tokenAmountToExchange = getSwapTokenAmountFromRate(_satiAmount);\n\n        emit SwapRate(\"STI to ETH\", _satiAmount, tokenAmountToExchange);\n\n        return tokenAmountToExchange;\n    }\n\n    function swapSatiForSwapToken(uint256 _satiTokenAmount)\n        external\n        payable\n        override\n    {\n        requireHasEnoughSati(_msgSender(), _satiTokenAmount);\n\n        uint256 weiAmount = getNumberOfSwapTokenFromSati(_satiTokenAmount);\n\n        requireHasEnoughSwapToken(address(_msgSender()), weiAmount);\n\n        satiToken.transferFrom(_msgSender(), address(this), _satiTokenAmount);\n\n        emit SwapTransfer(_msgSender(), _satiTokenAmount, weiAmount);\n    }\n}\n",
  "sourcePath": "/Users/bmarquis/Crypto/solidity-swap-exchange/contracts/source/SatiEthSwap.sol",
  "compiler": {
    "name": "solc",
    "version": "0.8.11+commit.d7f03943.Emscripten.clang"
  },
  "schemaVersion": "3.4.5",
  "updatedAt": "2022-02-18T03:31:17.347Z",
  "networkType": "ethereum",
  "devdoc": {
    "kind": "dev",
    "methods": {
      "owner()": {
        "details": "Returns the address of the current owner."
      },
      "renounceOwnership()": {
        "details": "Leaves the contract without owner. It will not be possible to call `onlyOwner` functions anymore. Can only be called by the current owner. NOTE: Renouncing ownership will leave the contract without an owner, thereby removing any functionality that is only available to the owner."
      },
      "transferOwnership(address)": {
        "details": "Transfers ownership of the contract to a new account (`newOwner`). Can only be called by the current owner."
      }
    },
    "version": 1
  },
  "userdoc": {
    "kind": "user",
    "methods": {},
    "version": 1
  }
}