{
  "contractName": "SatiSwapTokenSwap",
  "abi": [
    {
      "inputs": [
        {
          "internalType": "contract SatiToken",
          "name": "_satiToken",
          "type": "address"
        },
        {
          "internalType": "contract ERC20",
          "name": "_swapToken",
          "type": "address"
        },
        {
          "internalType": "address",
          "name": "_swapTokenToUsdRate",
          "type": "address"
        }
      ],
      "stateMutability": "nonpayable",
      "type": "constructor"
    },
    {
      "anonymous": false,
      "inputs": [
        {
          "indexed": true,
          "internalType": "address",
          "name": "previousOwner",
          "type": "address"
        },
        {
          "indexed": true,
          "internalType": "address",
          "name": "newOwner",
          "type": "address"
        }
      ],
      "name": "OwnershipTransferred",
      "type": "event"
    },
    {
      "anonymous": false,
      "inputs": [
        {
          "indexed": true,
          "internalType": "int256",
          "name": "scaledPrice",
          "type": "int256"
        },
        {
          "indexed": true,
          "internalType": "uint256",
          "name": "timeStamp",
          "type": "uint256"
        }
      ],
      "name": "Rate",
      "type": "event"
    },
    {
      "anonymous": false,
      "inputs": [
        {
          "indexed": true,
          "internalType": "string",
          "name": "exchangeType",
          "type": "string"
        },
        {
          "indexed": true,
          "internalType": "uint256",
          "name": "sellingAmount",
          "type": "uint256"
        },
        {
          "indexed": true,
          "internalType": "uint256",
          "name": "buyingAmount",
          "type": "uint256"
        }
      ],
      "name": "SwapRate",
      "type": "event"
    },
    {
      "anonymous": false,
      "inputs": [
        {
          "indexed": true,
          "internalType": "address",
          "name": "beneficiary",
          "type": "address"
        },
        {
          "indexed": true,
          "internalType": "uint256",
          "name": "amountSent",
          "type": "uint256"
        },
        {
          "indexed": true,
          "internalType": "uint256",
          "name": "amountReceived",
          "type": "uint256"
        }
      ],
      "name": "SwapTransfer",
      "type": "event"
    },
    {
      "inputs": [
        {
          "internalType": "uint8",
          "name": "_scalingDecimal",
          "type": "uint8"
        }
      ],
      "name": "getScaledRate",
      "outputs": [
        {
          "internalType": "int256",
          "name": "",
          "type": "int256"
        }
      ],
      "stateMutability": "nonpayable",
      "type": "function"
    },
    {
      "inputs": [],
      "name": "owner",
      "outputs": [
        {
          "internalType": "address",
          "name": "",
          "type": "address"
        }
      ],
      "stateMutability": "view",
      "type": "function",
      "constant": true
    },
    {
      "inputs": [],
      "name": "renounceOwnership",
      "outputs": [],
      "stateMutability": "nonpayable",
      "type": "function"
    },
    {
      "inputs": [],
      "name": "satiToken",
      "outputs": [
        {
          "internalType": "contract SatiToken",
          "name": "",
          "type": "address"
        }
      ],
      "stateMutability": "view",
      "type": "function",
      "constant": true
    },
    {
      "inputs": [],
      "name": "swapToken",
      "outputs": [
        {
          "internalType": "contract ERC20",
          "name": "",
          "type": "address"
        }
      ],
      "stateMutability": "view",
      "type": "function",
      "constant": true
    },
    {
      "inputs": [
        {
          "internalType": "address",
          "name": "newOwner",
          "type": "address"
        }
      ],
      "name": "transferOwnership",
      "outputs": [],
      "stateMutability": "nonpayable",
      "type": "function"
    },
    {
      "inputs": [],
      "name": "getAvailableSwapTokenAmount",
      "outputs": [
        {
          "internalType": "uint256",
          "name": "",
          "type": "uint256"
        }
      ],
      "stateMutability": "view",
      "type": "function",
      "constant": true
    },
    {
      "inputs": [],
      "name": "getAvailableSatiTokenAmount",
      "outputs": [
        {
          "internalType": "uint256",
          "name": "",
          "type": "uint256"
        }
      ],
      "stateMutability": "view",
      "type": "function",
      "constant": true
    },
    {
      "inputs": [
        {
          "internalType": "uint256",
          "name": "_swapTokenAmount",
          "type": "uint256"
        }
      ],
      "name": "getAmountOfSatiFromSwapToken",
      "outputs": [
        {
          "internalType": "uint256",
          "name": "",
          "type": "uint256"
        }
      ],
      "stateMutability": "nonpayable",
      "type": "function"
    },
    {
      "inputs": [
        {
          "internalType": "uint256",
          "name": "_swapTokenAmount",
          "type": "uint256"
        }
      ],
      "name": "swapSwapTokenForSati",
      "outputs": [],
      "stateMutability": "payable",
      "type": "function",
      "payable": true
    },
    {
      "inputs": [
        {
          "internalType": "uint256",
          "name": "_satiAmount",
          "type": "uint256"
        }
      ],
      "name": "getNumberOfSwapTokenFromSati",
      "outputs": [
        {
          "internalType": "uint256",
          "name": "",
          "type": "uint256"
        }
      ],
      "stateMutability": "nonpayable",
      "type": "function"
    },
    {
      "inputs": [
        {
          "internalType": "uint256",
          "name": "_satiAmount",
          "type": "uint256"
        }
      ],
      "name": "swapSatiForSwapToken",
      "outputs": [],
      "stateMutability": "payable",
      "type": "function",
      "payable": true
    }
  ],
  "bytecode": "0x60806040526012600160146101000a81548160ff021916908360ff1602179055503480156200002d57600080fd5b50604051620022c1380380620022c1833981810160405281019062000053919062000313565b80620000866200007162000153640100000000026401000000009004565b6200015b640100000000026401000000009004565b80600160006101000a81548173ffffffffffffffffffffffffffffffffffffffff021916908373ffffffffffffffffffffffffffffffffffffffff1602179055505082600260006101000a81548173ffffffffffffffffffffffffffffffffffffffff021916908373ffffffffffffffffffffffffffffffffffffffff16021790555081600360006101000a81548173ffffffffffffffffffffffffffffffffffffffff021916908373ffffffffffffffffffffffffffffffffffffffff1602179055505050506200036f565b600033905090565b60008060009054906101000a900473ffffffffffffffffffffffffffffffffffffffff169050816000806101000a81548173ffffffffffffffffffffffffffffffffffffffff021916908373ffffffffffffffffffffffffffffffffffffffff1602179055508173ffffffffffffffffffffffffffffffffffffffff168173ffffffffffffffffffffffffffffffffffffffff167f8be0079c531659141344cd1fd0a4f28419497f9722a3daafe3b4186f6b6457e060405160405180910390a35050565b600080fd5b600073ffffffffffffffffffffffffffffffffffffffff82169050919050565b6000620002518262000224565b9050919050565b6000620002658262000244565b9050919050565b620002778162000258565b81146200028357600080fd5b50565b60008151905062000297816200026c565b92915050565b6000620002aa8262000244565b9050919050565b620002bc816200029d565b8114620002c857600080fd5b50565b600081519050620002dc81620002b1565b92915050565b620002ed8162000244565b8114620002f957600080fd5b50565b6000815190506200030d81620002e2565b92915050565b6000806000606084860312156200032f576200032e6200021f565b5b60006200033f8682870162000286565b93505060206200035286828701620002cb565b92505060406200036586828701620002fc565b9150509250925092565b611f42806200037f6000396000f3fe6080604052600436106100c4576000357c0100000000000000000000000000000000000000000000000000000000900480638907f80d116100815780638907f80d146101cc5780638da5cb5b146101e85780639d0ba18314610213578063a1de94ab14610250578063dc73e49c1461027b578063f2fde38b146102a6576100c4565b8063055386e3146100c957806364be1dda14610106578063715018a6146101315780637a1b7be6146101485780637f5ca0c3146101855780637f9d055b146101b0575b600080fd5b3480156100d557600080fd5b506100f060048036038101906100eb91906112c3565b6102cf565b6040516100fd91906112ff565b60405180910390f35b34801561011257600080fd5b5061011b610419565b60405161012891906112ff565b60405180910390f35b34801561013d57600080fd5b5061014661044b565b005b34801561015457600080fd5b5061016f600480360381019061016a91906112c3565b6104d3565b60405161017c91906112ff565b60405180910390f35b34801561019157600080fd5b5061019a61061d565b6040516101a791906112ff565b60405180910390f35b6101ca60048036038101906101c591906112c3565b61064f565b005b6101e660048036038101906101e191906112c3565b610851565b005b3480156101f457600080fd5b506101fd610a53565b60405161020a919061135b565b60405180910390f35b34801561021f57600080fd5b5061023a600480360381019061023591906113af565b610a7c565b60405161024791906113f5565b60405180910390f35b34801561025c57600080fd5b50610265610c2f565b604051610272919061146f565b60405180910390f35b34801561028757600080fd5b50610290610c55565b60405161029d91906114ab565b60405180910390f35b3480156102b257600080fd5b506102cd60048036038101906102c891906114f2565b610c7b565b005b6000806102db83610d73565b905080836103cf600360009054906101000a900473ffffffffffffffffffffffffffffffffffffffff1673ffffffffffffffffffffffffffffffffffffffff166395d89b416040518163ffffffff167c0100000000000000000000000000000000000000000000000000000000028152600401600060405180830381865afa15801561036b573d6000803e3d6000fd5b505050506040513d6000823e3d601f19601f820116820180604052508101906103949190611689565b6040518060400160405280600781526020017f20746f2053544900000000000000000000000000000000000000000000000000815250610dbc565b6040516103dc9190611719565b60405180910390207ff1067d24cb7e943024a69dc0d5e4088ab0c731a079765f6660f24f5094c50a8160405160405180910390a480915050919050565b6000610446600260009054906101000a900473ffffffffffffffffffffffffffffffffffffffff16610de8565b905090565b610453610e87565b73ffffffffffffffffffffffffffffffffffffffff16610471610a53565b73ffffffffffffffffffffffffffffffffffffffff16146104c7576040517f08c379a00000000000000000000000000000000000000000000000000000000081526004016104be9061178d565b60405180910390fd5b6104d16000610e8f565b565b6000806104df83610f53565b905080836105d36040518060400160405280600781526020017f53544920746f2000000000000000000000000000000000000000000000000000815250600360009054906101000a900473ffffffffffffffffffffffffffffffffffffffff1673ffffffffffffffffffffffffffffffffffffffff166395d89b416040518163ffffffff167c0100000000000000000000000000000000000000000000000000000000028152600401600060405180830381865afa1580156105a5573d6000803e3d6000fd5b505050506040513d6000823e3d601f19601f820116820180604052508101906105ce9190611689565b610dbc565b6040516105e09190611719565b60405180910390207ff1067d24cb7e943024a69dc0d5e4088ab0c731a079765f6660f24f5094c50a8160405160405180910390a480915050919050565b600061064a600360009054906101000a900473ffffffffffffffffffffffffffffffffffffffff16610de8565b905090565b61066061065a610e87565b82610f9c565b600061066b826104d3565b90506106773082610fcd565b600260009054906101000a900473ffffffffffffffffffffffffffffffffffffffff1673ffffffffffffffffffffffffffffffffffffffff166323b872dd6106bd610e87565b30856040518463ffffffff167c01000000000000000000000000000000000000000000000000000000000281526004016106f9939291906117ad565b6020604051808303816000875af1158015610718573d6000803e3d6000fd5b505050506040513d601f19601f8201168201806040525081019061073c919061181c565b50600360009054906101000a900473ffffffffffffffffffffffffffffffffffffffff1673ffffffffffffffffffffffffffffffffffffffff1663a9059cbb610783610e87565b836040518363ffffffff167c01000000000000000000000000000000000000000000000000000000000281526004016107bd929190611849565b6020604051808303816000875af11580156107dc573d6000803e3d6000fd5b505050506040513d601f19601f82011682018060405250810190610800919061181c565b50808261080b610e87565b73ffffffffffffffffffffffffffffffffffffffff167f2585a01fb30e6e678ba95ff762e7a69baaa667604e4d100d8e69dfa8205461ca60405160405180910390a45050565b61086261085c610e87565b82610fcd565b600061086d826102cf565b90506108793082610f9c565b600360009054906101000a900473ffffffffffffffffffffffffffffffffffffffff1673ffffffffffffffffffffffffffffffffffffffff166323b872dd6108bf610e87565b30856040518463ffffffff167c01000000000000000000000000000000000000000000000000000000000281526004016108fb939291906117ad565b6020604051808303816000875af115801561091a573d6000803e3d6000fd5b505050506040513d601f19601f8201168201806040525081019061093e919061181c565b50600260009054906101000a900473ffffffffffffffffffffffffffffffffffffffff1673ffffffffffffffffffffffffffffffffffffffff1663a9059cbb610985610e87565b836040518363ffffffff167c01000000000000000000000000000000000000000000000000000000000281526004016109bf929190611849565b6020604051808303816000875af11580156109de573d6000803e3d6000fd5b505050506040513d601f19601f82011682018060405250810190610a02919061181c565b508034610a0d610e87565b73ffffffffffffffffffffffffffffffffffffffff167f2585a01fb30e6e678ba95ff762e7a69baaa667604e4d100d8e69dfa8205461ca60405160405180910390a45050565b60008060009054906101000a900473ffffffffffffffffffffffffffffffffffffffff16905090565b6000806000600160009054906101000a900473ffffffffffffffffffffffffffffffffffffffff1673ffffffffffffffffffffffffffffffffffffffff1663feaf968c6040518163ffffffff167c010000000000000000000000000000000000000000000000000000000002815260040160a060405180830381865afa158015610b0a573d6000803e3d6000fd5b505050506040513d601f19601f82011682018060405250810190610b2e91906118f5565b509350509250506000600160009054906101000a900473ffffffffffffffffffffffffffffffffffffffff1673ffffffffffffffffffffffffffffffffffffffff1663313ce5676040518163ffffffff167c0100000000000000000000000000000000000000000000000000000000028152600401602060405180830381865afa158015610bc0573d6000803e3d6000fd5b505050506040513d601f19601f82011682018060405250810190610be49190611985565b90506000610bf3848388610ffe565b905082817fb6c1393c2251d5f83b6b4923759cf156e72f269dc654f872eab19c92b853cf5e60405160405180910390a380945050505050919050565b600260009054906101000a900473ffffffffffffffffffffffffffffffffffffffff1681565b600360009054906101000a900473ffffffffffffffffffffffffffffffffffffffff1681565b610c83610e87565b73ffffffffffffffffffffffffffffffffffffffff16610ca1610a53565b73ffffffffffffffffffffffffffffffffffffffff1614610cf7576040517f08c379a0000000000000000000000000000000000000000000000000000000008152600401610cee9061178d565b60405180910390fd5b600073ffffffffffffffffffffffffffffffffffffffff168173ffffffffffffffffffffffffffffffffffffffff161415610d67576040517f08c379a0000000000000000000000000000000000000000000000000000000008152600401610d5e90611a24565b60405180910390fd5b610d7081610e8f565b50565b600080610d8e600160149054906101000a900460ff16610a7c565b905080610daa84600160149054906101000a900460ff16611081565b610db49190611a73565b915050919050565b60608282604051602001610dd1929190611acd565b604051602081830303815290604052905092915050565b60008173ffffffffffffffffffffffffffffffffffffffff166370a08231306040518263ffffffff167c0100000000000000000000000000000000000000000000000000000000028152600401610e3f919061135b565b602060405180830381865afa158015610e5c573d6000803e3d6000fd5b505050506040513d601f19601f82011682018060405250810190610e809190611af1565b9050919050565b600033905090565b60008060009054906101000a900473ffffffffffffffffffffffffffffffffffffffff169050816000806101000a81548173ffffffffffffffffffffffffffffffffffffffff021916908373ffffffffffffffffffffffffffffffffffffffff1602179055508173ffffffffffffffffffffffffffffffffffffffff168173ffffffffffffffffffffffffffffffffffffffff167f8be0079c531659141344cd1fd0a4f28419497f9722a3daafe3b4186f6b6457e060405160405180910390a35050565b600080610f6e600160149054906101000a900460ff16610a7c565b905080610f8a84600160149054906101000a900460ff166110a6565b610f949190611b4d565b915050919050565b610fc9600260009054906101000a900473ffffffffffffffffffffffffffffffffffffffff1683836110cb565b5050565b610ffa600260009054906101000a900473ffffffffffffffffffffffffffffffffffffffff1683836110cb565b5050565b60008160ff168360ff16101561103b57828261101a9190611b7e565b60ff16600a6110299190611ce5565b846110349190611d30565b905061107a565b8160ff168360ff1611156110765781836110559190611b7e565b60ff16600a6110649190611ce5565b8461106f9190611e47565b905061107a565b8390505b9392505050565b60008160ff16600a6110939190611ce5565b8361109e9190611b4d565b905092915050565b60008160ff16600a6110b89190611ce5565b836110c39190611a73565b905092915050565b808373ffffffffffffffffffffffffffffffffffffffff166370a08231846040518263ffffffff167c0100000000000000000000000000000000000000000000000000000000028152600401611121919061135b565b602060405180830381865afa15801561113e573d6000803e3d6000fd5b505050506040513d601f19601f820116820180604052508101906111629190611af1565b10156112326040518060400160405280600b81526020017f4e6f7420656e6f756768200000000000000000000000000000000000000000008152508573ffffffffffffffffffffffffffffffffffffffff166395d89b416040518163ffffffff167c0100000000000000000000000000000000000000000000000000000000028152600401600060405180830381865afa158015611204573d6000803e3d6000fd5b505050506040513d6000823e3d601f19601f8201168201806040525081019061122d9190611689565b610dbc565b90611273576040517f08c379a000000000000000000000000000000000000000000000000000000000815260040161126a9190611eea565b60405180910390fd5b50505050565b6000604051905090565b600080fd5b600080fd5b6000819050919050565b6112a08161128d565b81146112ab57600080fd5b50565b6000813590506112bd81611297565b92915050565b6000602082840312156112d9576112d8611283565b5b60006112e7848285016112ae565b91505092915050565b6112f98161128d565b82525050565b600060208201905061131460008301846112f0565b92915050565b600073ffffffffffffffffffffffffffffffffffffffff82169050919050565b60006113458261131a565b9050919050565b6113558161133a565b82525050565b6000602082019050611370600083018461134c565b92915050565b600060ff82169050919050565b61138c81611376565b811461139757600080fd5b50565b6000813590506113a981611383565b92915050565b6000602082840312156113c5576113c4611283565b5b60006113d38482850161139a565b91505092915050565b6000819050919050565b6113ef816113dc565b82525050565b600060208201905061140a60008301846113e6565b92915050565b6000819050919050565b600061143561143061142b8461131a565b611410565b61131a565b9050919050565b60006114478261141a565b9050919050565b60006114598261143c565b9050919050565b6114698161144e565b82525050565b60006020820190506114846000830184611460565b92915050565b60006114958261143c565b9050919050565b6114a58161148a565b82525050565b60006020820190506114c0600083018461149c565b92915050565b6114cf8161133a565b81146114da57600080fd5b50565b6000813590506114ec816114c6565b92915050565b60006020828403121561150857611507611283565b5b6000611516848285016114dd565b91505092915050565b600080fd5b600080fd5b6000601f19601f8301169050919050565b7f4e487b7100000000000000000000000000000000000000000000000000000000600052604160045260246000fd5b61157282611529565b810181811067ffffffffffffffff821117156115915761159061153a565b5b80604052505050565b60006115a4611279565b90506115b08282611569565b919050565b600067ffffffffffffffff8211156115d0576115cf61153a565b5b6115d982611529565b9050602081019050919050565b60005b838110156116045780820151818401526020810190506115e9565b83811115611613576000848401525b50505050565b600061162c611627846115b5565b61159a565b90508281526020810184848401111561164857611647611524565b5b6116538482856115e6565b509392505050565b600082601f8301126116705761166f61151f565b5b8151611680848260208601611619565b91505092915050565b60006020828403121561169f5761169e611283565b5b600082015167ffffffffffffffff8111156116bd576116bc611288565b5b6116c98482850161165b565b91505092915050565b600081519050919050565b600081905092915050565b60006116f3826116d2565b6116fd81856116dd565b935061170d8185602086016115e6565b80840191505092915050565b600061172582846116e8565b915081905092915050565b600082825260208201905092915050565b7f4f776e61626c653a2063616c6c6572206973206e6f7420746865206f776e6572600082015250565b6000611777602083611730565b915061178282611741565b602082019050919050565b600060208201905081810360008301526117a68161176a565b9050919050565b60006060820190506117c2600083018661134c565b6117cf602083018561134c565b6117dc60408301846112f0565b949350505050565b60008115159050919050565b6117f9816117e4565b811461180457600080fd5b50565b600081519050611816816117f0565b92915050565b60006020828403121561183257611831611283565b5b600061184084828501611807565b91505092915050565b600060408201905061185e600083018561134c565b61186b60208301846112f0565b9392505050565b600069ffffffffffffffffffff82169050919050565b61189181611872565b811461189c57600080fd5b50565b6000815190506118ae81611888565b92915050565b6118bd816113dc565b81146118c857600080fd5b50565b6000815190506118da816118b4565b92915050565b6000815190506118ef81611297565b92915050565b600080600080600060a0868803121561191157611910611283565b5b600061191f8882890161189f565b9550506020611930888289016118cb565b9450506040611941888289016118e0565b9350506060611952888289016118e0565b92505060806119638882890161189f565b9150509295509295909350565b60008151905061197f81611383565b92915050565b60006020828403121561199b5761199a611283565b5b60006119a984828501611970565b91505092915050565b7f4f776e61626c653a206e6577206f776e657220697320746865207a65726f206160008201527f6464726573730000000000000000000000000000000000000000000000000000602082015250565b6000611a0e602683611730565b9150611a19826119b2565b604082019050919050565b60006020820190508181036000830152611a3d81611a01565b9050919050565b7f4e487b7100000000000000000000000000000000000000000000000000000000600052601160045260246000fd5b6000611a7e8261128d565b9150611a898361128d565b9250817fffffffffffffffffffffffffffffffffffffffffffffffffffffffffffffffff0483118215151615611ac257611ac1611a44565b5b828202905092915050565b6000611ad982856116e8565b9150611ae582846116e8565b91508190509392505050565b600060208284031215611b0757611b06611283565b5b6000611b15848285016118e0565b91505092915050565b7f4e487b7100000000000000000000000000000000000000000000000000000000600052601260045260246000fd5b6000611b588261128d565b9150611b638361128d565b925082611b7357611b72611b1e565b5b828204905092915050565b6000611b8982611376565b9150611b9483611376565b925082821015611ba757611ba6611a44565b5b828203905092915050565b6000600282049050919050565b6000808291508390505b6001851115611c0957808604811115611be557611be4611a44565b5b6001851615611bf45780820291505b8081029050611c0285611bb2565b9450611bc9565b94509492505050565b600082611c225760019050611cde565b81611c305760009050611cde565b8160018114611c465760028114611c5057611c7f565b6001915050611cde565b60ff841115611c6257611c61611a44565b5b8360020a915084821115611c7957611c78611a44565b5b50611cde565b5060208310610133831016604e8410600b8410161715611cb45782820a905083811115611caf57611cae611a44565b5b611cde565b611cc18484846001611bbf565b92509050818404811115611cd857611cd7611a44565b5b81810290505b9392505050565b6000611cf08261128d565b9150611cfb8361128d565b9250611d287fffffffffffffffffffffffffffffffffffffffffffffffffffffffffffffffff8484611c12565b905092915050565b6000611d3b826113dc565b9150611d46836113dc565b9250827f7fffffffffffffffffffffffffffffffffffffffffffffffffffffffffffffff0482116000841360008413161615611d8557611d84611a44565b5b817f80000000000000000000000000000000000000000000000000000000000000000583126000841260008413161615611dc257611dc1611a44565b5b827f80000000000000000000000000000000000000000000000000000000000000000582126000841360008412161615611dff57611dfe611a44565b5b827f7fffffffffffffffffffffffffffffffffffffffffffffffffffffffffffffff0582126000841260008412161615611e3c57611e3b611a44565b5b828202905092915050565b6000611e52826113dc565b9150611e5d836113dc565b925082611e6d57611e6c611b1e565b5b600160000383147f800000000000000000000000000000000000000000000000000000000000000083141615611ea657611ea5611a44565b5b828205905092915050565b6000611ebc826116d2565b611ec68185611730565b9350611ed68185602086016115e6565b611edf81611529565b840191505092915050565b60006020820190508181036000830152611f048184611eb1565b90509291505056fea2646970667358221220b7ab38b5da1ad45b5aa59311f205915a94bb9672ba2628ce978c619b5ec96d8164736f6c634300080b0033",
  "immutableReferences": {},
  "source": "// SPDX-License-Identifier: MIT\n\npragma solidity ^0.8.11;\n\nimport \"./SatiToken.sol\";\n\nimport \"@openzeppelin/contracts/utils/Context.sol\";\nimport \"@openzeppelin/contracts/access/Ownable.sol\";\nimport \"@openzeppelin/contracts/token/ERC20/ERC20.sol\";\nimport \"./Swapable.sol\";\nimport \"./ISatiSwapable.sol\";\n\n// TODO use remix review rate exchange value, then review the one for etherium, then write tests\n\n// STI: 0x4d89B61B074ffbF8df0C459900c42972164beB34\n\n// BAT: (token: 0x7dad0d1c1a012b8ab5f7c2fb93469440726fe7e5, rate: 0x9441D7556e7820B5ca42082cfa99487D56AcA958)\n// LINK: (token: 0xa36085f69e2889c224210f603d836748e7dc0088, rate: 0x396c5E36DD0a0F5a5D33dae44368D4193f69a1F0)\n\n// 0x4d89B61B074ffbF8df0C459900c42972164beB34,0xa36085f69e2889c224210f603d836748e7dc0088,0x396c5E36DD0a0F5a5D33dae44368D4193f69a1F0\n\n//0x2c400743A8852052c6F26F5a5E0c7CCc6C9d8d42\n\ncontract SatiSwapTokenSwap is Context, Ownable, Swapable {\n    SatiToken public satiToken;\n\n    ERC20 public swapToken;\n\n    constructor(\n        SatiToken _satiToken,\n        ERC20 _swapToken,\n        address _swapTokenToUsdRate\n    ) Ratable(_swapTokenToUsdRate) {\n        satiToken = _satiToken;\n        swapToken = _swapToken;\n    }\n\n    function requireHasEnoughSati(\n        address _addressToValidate,\n        uint256 _requiredAmount\n    ) internal view override {\n        requireHasEnoughToken(satiToken, _addressToValidate, _requiredAmount);\n    }\n\n    function requireHasEnoughSwapToken(\n        address _addressToValidate,\n        uint256 _requiredAmount\n    ) internal view override {\n        requireHasEnoughToken(satiToken, _addressToValidate, _requiredAmount);\n    }\n\n    function getAvailableSwapTokenAmount() public view returns (uint256) {\n        return getAvailableTokenAmount(swapToken);\n    }\n\n    function getAvailableSatiTokenAmount() public view returns (uint256) {\n        return getAvailableTokenAmount(satiToken);\n    }\n\n    //////////////////\n    //// Buy Sati ////\n    //////////////////\n\n    function getAmountOfSatiFromSwapToken(uint256 _swapTokenAmount)\n        public\n        override\n        returns (uint256)\n    {\n        uint256 tokenAmountToExchange = getSatiTokenAmountForFromRate(\n            _swapTokenAmount\n        );\n\n        emit SwapRate(\n            concatenate(swapToken.symbol(), \" to STI\"),\n            _swapTokenAmount,\n            tokenAmountToExchange\n        );\n\n        return tokenAmountToExchange;\n    }\n\n    function swapSwapTokenForSati(uint256 _swapTokenAmount)\n        external\n        payable\n        override\n    {\n        requireHasEnoughSwapToken(_msgSender(), _swapTokenAmount);\n\n        uint256 satiTokenAmount = getAmountOfSatiFromSwapToken(\n            _swapTokenAmount\n        );\n\n        requireHasEnoughSati(address(this), satiTokenAmount);\n\n        swapToken.transferFrom(_msgSender(), address(this), _swapTokenAmount);\n        satiToken.transfer(_msgSender(), satiTokenAmount);\n\n        emit SwapTransfer(_msgSender(), msg.value, satiTokenAmount);\n    }\n\n    ///////////////////\n    //// Sell Sati ////\n    ///////////////////\n\n    function getNumberOfSwapTokenFromSati(uint256 _satiAmount)\n        public\n        override\n        returns (uint256)\n    {\n        uint256 tokenAmountToExchange = getSwapTokenAmountFromRate(_satiAmount);\n\n        emit SwapRate(\n            concatenate(\"STI to \", swapToken.symbol()),\n            _satiAmount,\n            tokenAmountToExchange\n        );\n\n        return tokenAmountToExchange;\n    }\n\n    function swapSatiForSwapToken(uint256 _satiAmount)\n        external\n        payable\n        override\n    {\n        requireHasEnoughSati(_msgSender(), _satiAmount);\n\n        uint256 swapTokenAmount = getNumberOfSwapTokenFromSati(_satiAmount);\n\n        requireHasEnoughSwapToken(address(this), swapTokenAmount);\n\n        satiToken.transferFrom(_msgSender(), address(this), _satiAmount);\n        swapToken.transfer(_msgSender(), swapTokenAmount);\n\n        emit SwapTransfer(_msgSender(), _satiAmount, swapTokenAmount);\n    }\n}\n",
  "sourcePath": "/Users/bmarquis/Crypto/solidity-swap-exchange/contracts/source/SatiSwapTokenSwap.sol",
  "compiler": {
    "name": "solc",
    "version": "0.8.11+commit.d7f03943.Emscripten.clang"
  },
  "schemaVersion": "3.4.5",
  "updatedAt": "2022-02-18T03:31:17.365Z",
  "networkType": "ethereum",
  "devdoc": {
    "kind": "dev",
    "methods": {
      "owner()": {
        "details": "Returns the address of the current owner."
      },
      "renounceOwnership()": {
        "details": "Leaves the contract without owner. It will not be possible to call `onlyOwner` functions anymore. Can only be called by the current owner. NOTE: Renouncing ownership will leave the contract without an owner, thereby removing any functionality that is only available to the owner."
      },
      "transferOwnership(address)": {
        "details": "Transfers ownership of the contract to a new account (`newOwner`). Can only be called by the current owner."
      }
    },
    "version": 1
  },
  "userdoc": {
    "kind": "user",
    "methods": {},
    "version": 1
  }
}