{
  "contractName": "SatiEthSwap",
  "abi": [
    {
      "inputs": [
        {
          "internalType": "contract SatiToken",
          "name": "_satiToken",
          "type": "address"
        }
      ],
      "stateMutability": "nonpayable",
      "type": "constructor"
    },
    {
      "anonymous": false,
      "inputs": [
        {
          "indexed": true,
          "internalType": "address",
          "name": "previousOwner",
          "type": "address"
        },
        {
          "indexed": true,
          "internalType": "address",
          "name": "newOwner",
          "type": "address"
        }
      ],
      "name": "OwnershipTransferred",
      "type": "event"
    },
    {
      "anonymous": false,
      "inputs": [
        {
          "indexed": false,
          "internalType": "int256",
          "name": "price",
          "type": "int256"
        },
        {
          "indexed": false,
          "internalType": "uint256",
          "name": "timeStamp",
          "type": "uint256"
        }
      ],
      "name": "Rate",
      "type": "event"
    },
    {
      "anonymous": false,
      "inputs": [
        {
          "indexed": false,
          "internalType": "string",
          "name": "swapName",
          "type": "string"
        },
        {
          "indexed": false,
          "internalType": "address",
          "name": "beneficiary",
          "type": "address"
        },
        {
          "indexed": false,
          "internalType": "uint256",
          "name": "amountSent",
          "type": "uint256"
        },
        {
          "indexed": false,
          "internalType": "uint256",
          "name": "amountReceived",
          "type": "uint256"
        }
      ],
      "name": "SwapTransfer",
      "type": "event"
    },
    {
      "inputs": [],
      "name": "getRate",
      "outputs": [
        {
          "internalType": "int256",
          "name": "",
          "type": "int256"
        },
        {
          "internalType": "uint256",
          "name": "",
          "type": "uint256"
        }
      ],
      "stateMutability": "nonpayable",
      "type": "function"
    },
    {
      "inputs": [],
      "name": "owner",
      "outputs": [
        {
          "internalType": "address",
          "name": "",
          "type": "address"
        }
      ],
      "stateMutability": "view",
      "type": "function",
      "constant": true
    },
    {
      "inputs": [],
      "name": "renounceOwnership",
      "outputs": [],
      "stateMutability": "nonpayable",
      "type": "function"
    },
    {
      "inputs": [],
      "name": "satiToken",
      "outputs": [
        {
          "internalType": "contract SatiToken",
          "name": "",
          "type": "address"
        }
      ],
      "stateMutability": "view",
      "type": "function",
      "constant": true
    },
    {
      "inputs": [
        {
          "internalType": "address",
          "name": "newOwner",
          "type": "address"
        }
      ],
      "name": "transferOwnership",
      "outputs": [],
      "stateMutability": "nonpayable",
      "type": "function"
    },
    {
      "inputs": [
        {
          "internalType": "uint256",
          "name": "_satiTokenAmount",
          "type": "uint256"
        }
      ],
      "name": "swapSatiForEth",
      "outputs": [],
      "stateMutability": "payable",
      "type": "function",
      "payable": true
    },
    {
      "inputs": [],
      "name": "swapEthForSati",
      "outputs": [],
      "stateMutability": "payable",
      "type": "function",
      "payable": true
    }
  ],
  "bytecode": "0x60806040523480156200001157600080fd5b506040516200131838038062001318833981810160405281019062000037919062000240565b739326bfa02add2366b30bacb125260af6410313316200006c62000060620000f660201b60201c565b620000fe60201b60201c565b80600160006101000a81548173ffffffffffffffffffffffffffffffffffffffff021916908373ffffffffffffffffffffffffffffffffffffffff1602179055505080600260006101000a81548173ffffffffffffffffffffffffffffffffffffffff021916908373ffffffffffffffffffffffffffffffffffffffff1602179055505062000272565b600033905090565b60008060009054906101000a900473ffffffffffffffffffffffffffffffffffffffff169050816000806101000a81548173ffffffffffffffffffffffffffffffffffffffff021916908373ffffffffffffffffffffffffffffffffffffffff1602179055508173ffffffffffffffffffffffffffffffffffffffff168173ffffffffffffffffffffffffffffffffffffffff167f8be0079c531659141344cd1fd0a4f28419497f9722a3daafe3b4186f6b6457e060405160405180910390a35050565b600080fd5b600073ffffffffffffffffffffffffffffffffffffffff82169050919050565b6000620001f482620001c7565b9050919050565b60006200020882620001e7565b9050919050565b6200021a81620001fb565b81146200022657600080fd5b50565b6000815190506200023a816200020f565b92915050565b600060208284031215620002595762000258620001c2565b5b6000620002698482850162000229565b91505092915050565b61109680620002826000396000f3fe6080604052600436106100705760003560e01c80638da5cb5b1161004e5780638da5cb5b146100d4578063a1de94ab146100ff578063e44be2521461012a578063f2fde38b1461013457610070565b8063432f865c14610075578063679aefce14610091578063715018a6146100bd575b600080fd5b61008f600480360381019061008a91906108c7565b61015d565b005b34801561009d57600080fd5b506100a661027c565b6040516100b492919061091c565b60405180910390f35b3480156100c957600080fd5b506100d261035f565b005b3480156100e057600080fd5b506100e96103e7565b6040516100f69190610986565b60405180910390f35b34801561010b57600080fd5b50610114610410565b6040516101219190610a00565b60405180910390f35b610132610436565b005b34801561014057600080fd5b5061015b60048036038101906101569190610a47565b610544565b005b61016e61016861063c565b82610644565b600061017982610726565b905061018c61018661063c565b82610748565b600260009054906101000a900473ffffffffffffffffffffffffffffffffffffffff1673ffffffffffffffffffffffffffffffffffffffff166323b872dd6101d261063c565b30856040518463ffffffff1660e01b81526004016101f293929190610a74565b6020604051808303816000875af1158015610211573d6000803e3d6000fd5b505050506040513d601f19601f820116820180604052508101906102359190610ae3565b507f8be65ed34eccaa554b6846e3a1c0c24100459b68a56f53c59a6a4bb942ba520061025f61063c565b838360405161027093929190610b6d565b60405180910390a15050565b600080600080600160009054906101000a900473ffffffffffffffffffffffffffffffffffffffff1673ffffffffffffffffffffffffffffffffffffffff1663feaf968c6040518163ffffffff1660e01b815260040160a060405180830381865afa1580156102ef573d6000803e3d6000fd5b505050506040513d601f19601f820116820180604052508101906103139190610c3a565b509350509250507fb6c1393c2251d5f83b6b4923759cf156e72f269dc654f872eab19c92b853cf5e828260405161034b92919061091c565b60405180910390a181819350935050509091565b61036761063c565b73ffffffffffffffffffffffffffffffffffffffff166103856103e7565b73ffffffffffffffffffffffffffffffffffffffff16146103db576040517f08c379a00000000000000000000000000000000000000000000000000000000081526004016103d290610d01565b60405180910390fd5b6103e560006107a6565b565b60008060009054906101000a900473ffffffffffffffffffffffffffffffffffffffff16905090565b600260009054906101000a900473ffffffffffffffffffffffffffffffffffffffff1681565b60006104413461086a565b905061044d3082610644565b6104573034610748565b600260009054906101000a900473ffffffffffffffffffffffffffffffffffffffff1673ffffffffffffffffffffffffffffffffffffffff1663a9059cbb61049d61063c565b836040518363ffffffff1660e01b81526004016104bb929190610d21565b6020604051808303816000875af11580156104da573d6000803e3d6000fd5b505050506040513d601f19601f820116820180604052508101906104fe9190610ae3565b507f8be65ed34eccaa554b6846e3a1c0c24100459b68a56f53c59a6a4bb942ba520061052861063c565b348360405161053993929190610d96565b60405180910390a150565b61054c61063c565b73ffffffffffffffffffffffffffffffffffffffff1661056a6103e7565b73ffffffffffffffffffffffffffffffffffffffff16146105c0576040517f08c379a00000000000000000000000000000000000000000000000000000000081526004016105b790610d01565b60405180910390fd5b600073ffffffffffffffffffffffffffffffffffffffff168173ffffffffffffffffffffffffffffffffffffffff161415610630576040517f08c379a000000000000000000000000000000000000000000000000000000000815260040161062790610e52565b60405180910390fd5b610639816107a6565b50565b600033905090565b80600260009054906101000a900473ffffffffffffffffffffffffffffffffffffffff1673ffffffffffffffffffffffffffffffffffffffff166370a08231846040518263ffffffff1660e01b81526004016106a09190610986565b602060405180830381865afa1580156106bd573d6000803e3d6000fd5b505050506040513d601f19601f820116820180604052508101906106e19190610e72565b1015610722576040517f08c379a000000000000000000000000000000000000000000000000000000000815260040161071990610eeb565b60405180910390fd5b5050565b60008061073161027c565b50905080836107409190610f69565b915050919050565b808273ffffffffffffffffffffffffffffffffffffffff163110156107a2576040517f08c379a000000000000000000000000000000000000000000000000000000000815260040161079990610fe6565b60405180910390fd5b5050565b60008060009054906101000a900473ffffffffffffffffffffffffffffffffffffffff169050816000806101000a81548173ffffffffffffffffffffffffffffffffffffffff021916908373ffffffffffffffffffffffffffffffffffffffff1602179055508173ffffffffffffffffffffffffffffffffffffffff168173ffffffffffffffffffffffffffffffffffffffff167f8be0079c531659141344cd1fd0a4f28419497f9722a3daafe3b4186f6b6457e060405160405180910390a35050565b60008061087561027c565b50905080836108849190611006565b915050919050565b600080fd5b6000819050919050565b6108a481610891565b81146108af57600080fd5b50565b6000813590506108c18161089b565b92915050565b6000602082840312156108dd576108dc61088c565b5b60006108eb848285016108b2565b91505092915050565b6000819050919050565b610907816108f4565b82525050565b61091681610891565b82525050565b600060408201905061093160008301856108fe565b61093e602083018461090d565b9392505050565b600073ffffffffffffffffffffffffffffffffffffffff82169050919050565b600061097082610945565b9050919050565b61098081610965565b82525050565b600060208201905061099b6000830184610977565b92915050565b6000819050919050565b60006109c66109c16109bc84610945565b6109a1565b610945565b9050919050565b60006109d8826109ab565b9050919050565b60006109ea826109cd565b9050919050565b6109fa816109df565b82525050565b6000602082019050610a1560008301846109f1565b92915050565b610a2481610965565b8114610a2f57600080fd5b50565b600081359050610a4181610a1b565b92915050565b600060208284031215610a5d57610a5c61088c565b5b6000610a6b84828501610a32565b91505092915050565b6000606082019050610a896000830186610977565b610a966020830185610977565b610aa3604083018461090d565b949350505050565b60008115159050919050565b610ac081610aab565b8114610acb57600080fd5b50565b600081519050610add81610ab7565b92915050565b600060208284031215610af957610af861088c565b5b6000610b0784828501610ace565b91505092915050565b600082825260208201905092915050565b7f5361746920746f20457468000000000000000000000000000000000000000000600082015250565b6000610b57600b83610b10565b9150610b6282610b21565b602082019050919050565b60006080820190508181036000830152610b8681610b4a565b9050610b956020830186610977565b610ba2604083018561090d565b610baf606083018461090d565b949350505050565b600069ffffffffffffffffffff82169050919050565b610bd681610bb7565b8114610be157600080fd5b50565b600081519050610bf381610bcd565b92915050565b610c02816108f4565b8114610c0d57600080fd5b50565b600081519050610c1f81610bf9565b92915050565b600081519050610c348161089b565b92915050565b600080600080600060a08688031215610c5657610c5561088c565b5b6000610c6488828901610be4565b9550506020610c7588828901610c10565b9450506040610c8688828901610c25565b9350506060610c9788828901610c25565b9250506080610ca888828901610be4565b9150509295509295909350565b7f4f776e61626c653a2063616c6c6572206973206e6f7420746865206f776e6572600082015250565b6000610ceb602083610b10565b9150610cf682610cb5565b602082019050919050565b60006020820190508181036000830152610d1a81610cde565b9050919050565b6000604082019050610d366000830185610977565b610d43602083018461090d565b9392505050565b7f45746820746f2053617469000000000000000000000000000000000000000000600082015250565b6000610d80600b83610b10565b9150610d8b82610d4a565b602082019050919050565b60006080820190508181036000830152610daf81610d73565b9050610dbe6020830186610977565b610dcb604083018561090d565b610dd8606083018461090d565b949350505050565b7f4f776e61626c653a206e6577206f776e657220697320746865207a65726f206160008201527f6464726573730000000000000000000000000000000000000000000000000000602082015250565b6000610e3c602683610b10565b9150610e4782610de0565b604082019050919050565b60006020820190508181036000830152610e6b81610e2f565b9050919050565b600060208284031215610e8857610e8761088c565b5b6000610e9684828501610c25565b91505092915050565b7f6e6f7420656e6f756768205361746920617661696c61626c6500000000000000600082015250565b6000610ed5601983610b10565b9150610ee082610e9f565b602082019050919050565b60006020820190508181036000830152610f0481610ec8565b9050919050565b7f4e487b7100000000000000000000000000000000000000000000000000000000600052601260045260246000fd5b7f4e487b7100000000000000000000000000000000000000000000000000000000600052601160045260246000fd5b6000610f7482610891565b9150610f7f83610891565b925082610f8f57610f8e610f0b565b5b828204905092915050565b7f6e6f7420656e6f75676820457468657220617661696c61626c65000000000000600082015250565b6000610fd0601a83610b10565b9150610fdb82610f9a565b602082019050919050565b60006020820190508181036000830152610fff81610fc3565b9050919050565b600061101182610891565b915061101c83610891565b9250817fffffffffffffffffffffffffffffffffffffffffffffffffffffffffffffffff048311821515161561105557611054610f3a565b5b82820290509291505056fea264697066735822122076d7b577e95f3b8558a5e108b9ffb28359cae446e287e7bf000a03cd4ecc769464736f6c634300080b0033",
  "immutableReferences": {},
  "source": "// SPDX-License-Identifier: MIT\n\npragma solidity ^0.8.11;\n\nimport \"./SatiToken.sol\";\n\nimport \"@openzeppelin/contracts/utils/Context.sol\";\nimport \"@openzeppelin/contracts/access/Ownable.sol\";\nimport \"./Ratable.sol\";\n\ncontract SatiEthSwap is Context, Ownable, Ratable {\n    SatiToken public satiToken;\n\n    event SwapTransfer(\n        string swapName,\n        address beneficiary,\n        uint256 amountSent,\n        uint256 amountReceived\n    );\n\n    constructor(SatiToken _satiToken)\n        Ratable(0x9326BFA02ADD2366b30bacB125260Af641031331)\n    {\n        satiToken = _satiToken;\n    }\n\n    function requireHasEnoughSati(\n        address _addressToValidate,\n        uint256 _requiredAmount\n    ) internal view {\n        require(\n            satiToken.balanceOf(_addressToValidate) >= _requiredAmount,\n            \"not enough Sati available\"\n        );\n    }\n\n    function requireHasEnoughEther(\n        address _addressToValidate,\n        uint256 _requiredAmount\n    ) internal view {\n        require(\n            address(_addressToValidate).balance >= _requiredAmount,\n            \"not enough Ether available\"\n        );\n    }\n\n    function getSatiTokenAmountFromRate(uint256 _weiAmount)\n        internal\n        returns (uint256)\n    {\n        (int256 exchangeRate, ) = getRate();\n        return _weiAmount * uint256(exchangeRate);\n    }\n\n    function getEthTokenAmountFromRate(uint256 _satiAmount)\n        internal\n        returns (uint256)\n    {\n        (int256 exchangeRate, ) = getRate();\n        return _satiAmount / uint256(exchangeRate);\n    }\n\n    function swapSatiForEth(uint256 _satiTokenAmount) external payable {\n        requireHasEnoughSati(_msgSender(), _satiTokenAmount);\n\n        uint256 weiAmount = getEthTokenAmountFromRate(_satiTokenAmount);\n\n        requireHasEnoughEther(address(_msgSender()), weiAmount);\n\n        satiToken.transferFrom(_msgSender(), address(this), _satiTokenAmount);\n\n        emit SwapTransfer(\n            \"Sati to Eth\",\n            _msgSender(),\n            _satiTokenAmount,\n            weiAmount\n        );\n    }\n\n    function swapEthForSati() external payable {\n        uint256 satiTokenAmount = getSatiTokenAmountFromRate(msg.value);\n\n        requireHasEnoughSati(address(this), satiTokenAmount);\n        requireHasEnoughEther(address(this), msg.value);\n\n        satiToken.transfer(_msgSender(), satiTokenAmount);\n\n        emit SwapTransfer(\n            \"Eth to Sati\",\n            _msgSender(),\n            msg.value,\n            satiTokenAmount\n        );\n    }\n}\n",
  "sourcePath": "/Users/bmarquis/Crypto/solidity-swap-exchange/contracts/source/SatiEthSwap.sol",
  "compiler": {
    "name": "solc",
    "version": "0.8.11+commit.d7f03943.Emscripten.clang"
  },
  "schemaVersion": "3.4.4",
  "updatedAt": "2022-01-26T02:37:10.897Z",
  "networkType": "ethereum",
  "devdoc": {
    "kind": "dev",
    "methods": {
      "owner()": {
        "details": "Returns the address of the current owner."
      },
      "renounceOwnership()": {
        "details": "Leaves the contract without owner. It will not be possible to call `onlyOwner` functions anymore. Can only be called by the current owner. NOTE: Renouncing ownership will leave the contract without an owner, thereby removing any functionality that is only available to the owner."
      },
      "transferOwnership(address)": {
        "details": "Transfers ownership of the contract to a new account (`newOwner`). Can only be called by the current owner."
      }
    },
    "version": 1
  },
  "userdoc": {
    "kind": "user",
    "methods": {},
    "version": 1
  }
}