{
  "contractName": "Faucet",
  "abi": [
    {
      "anonymous": false,
      "inputs": [
        {
          "indexed": false,
          "internalType": "address",
          "name": "_beneficiary",
          "type": "address"
        },
        {
          "indexed": false,
          "internalType": "uint256",
          "name": "_balance",
          "type": "uint256"
        }
      ],
      "name": "Request",
      "type": "event"
    },
    {
      "inputs": [
        {
          "internalType": "address",
          "name": "",
          "type": "address"
        }
      ],
      "name": "lockTime",
      "outputs": [
        {
          "internalType": "uint256",
          "name": "",
          "type": "uint256"
        }
      ],
      "stateMutability": "view",
      "type": "function",
      "constant": true
    },
    {
      "stateMutability": "payable",
      "type": "receive",
      "payable": true
    },
    {
      "inputs": [],
      "name": "makeItRain",
      "outputs": [],
      "stateMutability": "payable",
      "type": "function",
      "payable": true
    }
  ],
  "bytecode": "0x6080604052662386f26fc10000600160006101000a81548167ffffffffffffffff021916908367ffffffffffffffff16021790555034801561004057600080fd5b5061051d806100506000396000f3fe60806040526004361061004a576000357c0100000000000000000000000000000000000000000000000000000000900480635dae4e5014610056578063a4beda631461006057610051565b3661005157005b600080fd5b61005e61009d565b005b34801561006c57600080fd5b50610087600480360381019061008291906102cc565b610251565b6040516100949190610312565b60405180910390f35b6000803373ffffffffffffffffffffffffffffffffffffffff1673ffffffffffffffffffffffffffffffffffffffff16815260200190815260200160002054421161011d576040517f08c379a0000000000000000000000000000000000000000000000000000000008152600401610114906103b0565b60405180910390fd5b600160009054906101000a900467ffffffffffffffff1667ffffffffffffffff163073ffffffffffffffffffffffffffffffffffffffff16311015610197576040517f08c379a000000000000000000000000000000000000000000000000000000000815260040161018e90610442565b60405180910390fd5b3373ffffffffffffffffffffffffffffffffffffffff166108fc600160009054906101000a900467ffffffffffffffff1667ffffffffffffffff169081150290604051600060405180830381858888f193505050501580156101fd573d6000803e3d6000fd5b50620151804261020d9190610491565b6000803373ffffffffffffffffffffffffffffffffffffffff1673ffffffffffffffffffffffffffffffffffffffff16815260200190815260200160002081905550565b60006020528060005260406000206000915090505481565b600080fd5b600073ffffffffffffffffffffffffffffffffffffffff82169050919050565b60006102998261026e565b9050919050565b6102a98161028e565b81146102b457600080fd5b50565b6000813590506102c6816102a0565b92915050565b6000602082840312156102e2576102e1610269565b5b60006102f0848285016102b7565b91505092915050565b6000819050919050565b61030c816102f9565b82525050565b60006020820190506103276000830184610303565b92915050565b600082825260208201905092915050565b7f4c6f636b2074696d6520686173206e6f7420657870697265642c20706c65617360008201527f652074727920616761696e206c61746572000000000000000000000000000000602082015250565b600061039a60318361032d565b91506103a58261033e565b604082019050919050565b600060208201905081810360008301526103c98161038d565b9050919050565b7f466175636574206973206472792c20636f6e73696465722073656e64696e672060008201527f736f6d6520657468657220746f20697400000000000000000000000000000000602082015250565b600061042c60308361032d565b9150610437826103d0565b604082019050919050565b6000602082019050818103600083015261045b8161041f565b9050919050565b7f4e487b7100000000000000000000000000000000000000000000000000000000600052601160045260246000fd5b600061049c826102f9565b91506104a7836102f9565b9250827fffffffffffffffffffffffffffffffffffffffffffffffffffffffffffffffff038211156104dc576104db610462565b5b82820190509291505056fea2646970667358221220c69992e4d28146945b3ac0a4bab1985fe3c21dd8845f98553235339b0d348e3f64736f6c634300080b0033",
  "immutableReferences": {},
  "source": "// SPDX-License-Identifier: MIT\n\npragma solidity ^0.8.11;\n\ncontract Faucet {\n    mapping(address => uint256) public lockTime;\n\n    uint64 faucetDistribution = 0.01 ether;\n\n    event Request(address _beneficiary, uint256 _balance);\n\n    function makeItRain() external payable {\n        require(\n            block.timestamp > lockTime[msg.sender],\n            \"Lock time has not expired, please try again later\"\n        );\n        // require(\n        //     _beneficiary.balance <= 0.2 ether,\n        //     \"You already have enough ether to play around with\"\n        // );\n        require(\n            address(this).balance >= faucetDistribution,\n            \"Faucet is dry, consider sending some ether to it\"\n        );\n\n        payable(msg.sender).transfer(faucetDistribution);\n\n        lockTime[msg.sender] = block.timestamp + 1 days;\n    }\n\n    receive() external payable {}\n}\n",
  "sourcePath": "/Users/bmarquis/Crypto/solidity-swap-exchange/contracts/source/Faucet.sol",
  "compiler": {
    "name": "solc",
    "version": "0.8.11+commit.d7f03943.Emscripten.clang"
  },
  "schemaVersion": "3.4.6",
  "updatedAt": "2022-03-18T21:53:31.325Z",
  "networkType": "ethereum",
  "devdoc": {
    "kind": "dev",
    "methods": {},
    "version": 1
  },
  "userdoc": {
    "kind": "user",
    "methods": {},
    "version": 1
  }
}