{
  "contractName": "MockV3Aggregator",
  "abi": [
    {
      "inputs": [
        {
          "internalType": "uint80",
          "name": "_roundId",
          "type": "uint80"
        },
        {
          "internalType": "int256",
          "name": "_answer",
          "type": "int256"
        },
        {
          "internalType": "uint256",
          "name": "_startedAt",
          "type": "uint256"
        },
        {
          "internalType": "uint256",
          "name": "_updatedAt",
          "type": "uint256"
        },
        {
          "internalType": "uint80",
          "name": "_answeredInRound",
          "type": "uint80"
        }
      ],
      "stateMutability": "nonpayable",
      "type": "constructor"
    },
    {
      "inputs": [],
      "name": "decimals",
      "outputs": [
        {
          "internalType": "uint8",
          "name": "",
          "type": "uint8"
        }
      ],
      "stateMutability": "pure",
      "type": "function"
    },
    {
      "inputs": [],
      "name": "description",
      "outputs": [
        {
          "internalType": "string",
          "name": "",
          "type": "string"
        }
      ],
      "stateMutability": "pure",
      "type": "function"
    },
    {
      "inputs": [],
      "name": "version",
      "outputs": [
        {
          "internalType": "uint256",
          "name": "",
          "type": "uint256"
        }
      ],
      "stateMutability": "pure",
      "type": "function"
    },
    {
      "inputs": [
        {
          "internalType": "uint80",
          "name": "_roundId",
          "type": "uint80"
        }
      ],
      "name": "getRoundData",
      "outputs": [
        {
          "internalType": "uint80",
          "name": "",
          "type": "uint80"
        },
        {
          "internalType": "int256",
          "name": "",
          "type": "int256"
        },
        {
          "internalType": "uint256",
          "name": "",
          "type": "uint256"
        },
        {
          "internalType": "uint256",
          "name": "",
          "type": "uint256"
        },
        {
          "internalType": "uint80",
          "name": "",
          "type": "uint80"
        }
      ],
      "stateMutability": "view",
      "type": "function"
    },
    {
      "inputs": [],
      "name": "latestRoundData",
      "outputs": [
        {
          "internalType": "uint80",
          "name": "",
          "type": "uint80"
        },
        {
          "internalType": "int256",
          "name": "",
          "type": "int256"
        },
        {
          "internalType": "uint256",
          "name": "",
          "type": "uint256"
        },
        {
          "internalType": "uint256",
          "name": "",
          "type": "uint256"
        },
        {
          "internalType": "uint80",
          "name": "",
          "type": "uint80"
        }
      ],
      "stateMutability": "view",
      "type": "function"
    }
  ],
  "bytecode": "0x608060405234801561001057600080fd5b506040516106153803806106158339818101604052810190610032919061015d565b846000806101000a81548169ffffffffffffffffffff021916908369ffffffffffffffffffff16021790555083600181905550826002819055508160038190555080600460006101000a81548169ffffffffffffffffffff021916908369ffffffffffffffffffff16021790555050505050506101d8565b600080fd5b600069ffffffffffffffffffff82169050919050565b6100ce816100af565b81146100d957600080fd5b50565b6000815190506100eb816100c5565b92915050565b6000819050919050565b610104816100f1565b811461010f57600080fd5b50565b600081519050610121816100fb565b92915050565b6000819050919050565b61013a81610127565b811461014557600080fd5b50565b60008151905061015781610131565b92915050565b600080600080600060a08688031215610179576101786100aa565b5b6000610187888289016100dc565b955050602061019888828901610112565b94505060406101a988828901610148565b93505060606101ba88828901610148565b92505060806101cb888289016100dc565b9150509295509295909350565b61042e806101e76000396000f3fe608060405234801561001057600080fd5b5060043610610074576000357c010000000000000000000000000000000000000000000000000000000090048063313ce5671461007957806354fd4d50146100975780637284e416146100b55780639a6fc8f5146100d3578063feaf968c14610107575b600080fd5b610081610129565b60405161008e91906101ff565b60405180910390f35b61009f610132565b6040516100ac9190610233565b60405180910390f35b6100bd61013b565b6040516100ca91906102e7565b60405180910390f35b6100ed60048036038101906100e89190610350565b610152565b6040516100fe9594939291906103a5565b60405180910390f35b61010f610190565b6040516101209594939291906103a5565b60405180910390f35b60006008905090565b60006007905090565b606060405180602001604052806000815250905090565b600080600080600085600154600254600354600460009054906101000a900469ffffffffffffffffffff169450945094509450945091939590929450565b60008060008060008060009054906101000a900469ffffffffffffffffffff16600154600254600354600460009054906101000a900469ffffffffffffffffffff16945094509450945094509091929394565b600060ff82169050919050565b6101f9816101e3565b82525050565b600060208201905061021460008301846101f0565b92915050565b6000819050919050565b61022d8161021a565b82525050565b60006020820190506102486000830184610224565b92915050565b600081519050919050565b600082825260208201905092915050565b60005b8381101561028857808201518184015260208101905061026d565b83811115610297576000848401525b50505050565b6000601f19601f8301169050919050565b60006102b98261024e565b6102c38185610259565b93506102d381856020860161026a565b6102dc8161029d565b840191505092915050565b6000602082019050818103600083015261030181846102ae565b905092915050565b600080fd5b600069ffffffffffffffffffff82169050919050565b61032d8161030e565b811461033857600080fd5b50565b60008135905061034a81610324565b92915050565b60006020828403121561036657610365610309565b5b60006103748482850161033b565b91505092915050565b6103868161030e565b82525050565b6000819050919050565b61039f8161038c565b82525050565b600060a0820190506103ba600083018861037d565b6103c76020830187610396565b6103d46040830186610224565b6103e16060830185610224565b6103ee608083018461037d565b969550505050505056fea2646970667358221220b4adb56e7dcea7b951f4ca5ebff1a850fc95a6206d4a18becea2eac7297d725664736f6c634300080c0033",
  "immutableReferences": {},
  "source": "// SPDX-License-Identifier: MIT\npragma solidity ^0.8.12;\n\nimport \"@chainlink/contracts/src/v0.8/interfaces/AggregatorV3Interface.sol\";\n\ncontract MockV3Aggregator is AggregatorV3Interface {\n    uint80 roundId;\n    int256 answer;\n    uint256 startedAt;\n    uint256 updatedAt;\n    uint80 answeredInRound;\n\n    constructor(\n        uint80 _roundId,\n        int256 _answer,\n        uint256 _startedAt,\n        uint256 _updatedAt,\n        uint80 _answeredInRound\n    ) {\n        roundId = _roundId;\n        answer = _answer;\n        startedAt = _startedAt;\n        updatedAt = _updatedAt;\n        answeredInRound = _answeredInRound;\n    }\n\n    function decimals() external pure returns (uint8) {\n        return 8;\n    }\n\n    function description() external pure returns (string memory) {\n        return \"\";\n    }\n\n    function version() external pure returns (uint256) {\n        return 7;\n    }\n\n    function getRoundData(uint80 _roundId)\n        external\n        view\n        override\n        returns (\n            uint80,\n            int256,\n            uint256,\n            uint256,\n            uint80\n        )\n    {\n        return (_roundId, answer, startedAt, updatedAt, answeredInRound);\n    }\n\n    function latestRoundData()\n        external\n        view\n        override\n        returns (\n            uint80,\n            int256,\n            uint256,\n            uint256,\n            uint80\n        )\n    {\n        return (roundId, answer, startedAt, updatedAt, answeredInRound);\n    }\n}\n",
  "sourcePath": "/Users/bmarquis/Crypto/solidity-swap-exchange/contracts/source/test/MockV3Aggregator.sol",
  "compiler": {
    "name": "solc",
    "version": "0.8.12+commit.f00d7308.Emscripten.clang"
  },
  "schemaVersion": "3.4.6",
  "updatedAt": "2022-03-19T17:12:58.613Z",
  "devdoc": {
    "kind": "dev",
    "methods": {},
    "version": 1
  },
  "userdoc": {
    "kind": "user",
    "methods": {},
    "version": 1
  }
}