{
  "contractName": "SatiTokenSale",
  "abi": [
    {
      "inputs": [
        {
          "internalType": "uint256",
          "name": "_fixedExchangeRate",
          "type": "uint256"
        },
        {
          "internalType": "address payable",
          "name": "_wallet",
          "type": "address"
        },
        {
          "internalType": "contract IERC20",
          "name": "_token",
          "type": "address"
        },
        {
          "internalType": "contract KYCValidation",
          "name": "_kycValidation",
          "type": "address"
        }
      ],
      "stateMutability": "nonpayable",
      "type": "constructor"
    },
    {
      "anonymous": false,
      "inputs": [
        {
          "indexed": true,
          "internalType": "address",
          "name": "purchaser",
          "type": "address"
        },
        {
          "indexed": true,
          "internalType": "address",
          "name": "beneficiary",
          "type": "address"
        },
        {
          "indexed": false,
          "internalType": "uint256",
          "name": "value",
          "type": "uint256"
        },
        {
          "indexed": false,
          "internalType": "uint256",
          "name": "amount",
          "type": "uint256"
        }
      ],
      "name": "TokensPurchased",
      "type": "event"
    },
    {
      "inputs": [
        {
          "internalType": "address",
          "name": "beneficiary",
          "type": "address"
        }
      ],
      "name": "buyTokens",
      "outputs": [],
      "stateMutability": "payable",
      "type": "function",
      "payable": true
    },
    {
      "inputs": [],
      "name": "rate",
      "outputs": [
        {
          "internalType": "uint256",
          "name": "",
          "type": "uint256"
        }
      ],
      "stateMutability": "view",
      "type": "function",
      "constant": true
    },
    {
      "inputs": [],
      "name": "toUnit",
      "outputs": [
        {
          "internalType": "contract IERC20",
          "name": "",
          "type": "address"
        }
      ],
      "stateMutability": "view",
      "type": "function",
      "constant": true
    },
    {
      "inputs": [],
      "name": "wallet",
      "outputs": [
        {
          "internalType": "address payable",
          "name": "",
          "type": "address"
        }
      ],
      "stateMutability": "view",
      "type": "function",
      "constant": true
    },
    {
      "inputs": [],
      "name": "weiRaised",
      "outputs": [
        {
          "internalType": "uint256",
          "name": "",
          "type": "uint256"
        }
      ],
      "stateMutability": "view",
      "type": "function",
      "constant": true
    },
    {
      "stateMutability": "payable",
      "type": "receive",
      "payable": true
    }
  ],
  "bytecode": "0x60806040523480156200001157600080fd5b50604051620015f6380380620015f6833981810160405281019062000037919062000388565b83838360016000819055506000831162000088576040517f08c379a00000000000000000000000000000000000000000000000000000000081526004016200007f906200045b565b60405180910390fd5b600073ffffffffffffffffffffffffffffffffffffffff168273ffffffffffffffffffffffffffffffffffffffff161415620000fb576040517f08c379a0000000000000000000000000000000000000000000000000000000008152600401620000f290620004f3565b60405180910390fd5b600073ffffffffffffffffffffffffffffffffffffffff168173ffffffffffffffffffffffffffffffffffffffff1614156200016e576040517f08c379a000000000000000000000000000000000000000000000000000000000815260040162000165906200058b565b60405180910390fd5b8260038190555081600260006101000a81548173ffffffffffffffffffffffffffffffffffffffff021916908373ffffffffffffffffffffffffffffffffffffffff16021790555080600160006101000a81548173ffffffffffffffffffffffffffffffffffffffff021916908373ffffffffffffffffffffffffffffffffffffffff16021790555050505080600560006101000a81548173ffffffffffffffffffffffffffffffffffffffff021916908373ffffffffffffffffffffffffffffffffffffffff16021790555050505050620005ad565b600080fd5b6000819050919050565b6200025f816200024a565b81146200026b57600080fd5b50565b6000815190506200027f8162000254565b92915050565b600073ffffffffffffffffffffffffffffffffffffffff82169050919050565b6000620002b28262000285565b9050919050565b620002c481620002a5565b8114620002d057600080fd5b50565b600081519050620002e481620002b9565b92915050565b6000620002f78262000285565b9050919050565b60006200030b82620002ea565b9050919050565b6200031d81620002fe565b81146200032957600080fd5b50565b6000815190506200033d8162000312565b92915050565b60006200035082620002ea565b9050919050565b620003628162000343565b81146200036e57600080fd5b50565b600081519050620003828162000357565b92915050565b60008060008060808587031215620003a557620003a462000245565b5b6000620003b5878288016200026e565b9450506020620003c887828801620002d3565b9350506040620003db878288016200032c565b9250506060620003ee8782880162000371565b91505092959194509250565b600082825260208201905092915050565b7f43726f776473616c653a20726174652069732030000000000000000000000000600082015250565b600062000443601483620003fa565b915062000450826200040b565b602082019050919050565b60006020820190508181036000830152620004768162000434565b9050919050565b7f43726f776473616c653a2077616c6c657420697320746865207a65726f20616460008201527f6472657373000000000000000000000000000000000000000000000000000000602082015250565b6000620004db602583620003fa565b9150620004e8826200047d565b604082019050919050565b600060208201905081810360008301526200050e81620004cc565b9050919050565b7f43726f776473616c653a20746f6b656e20697320746865207a65726f2061646460008201527f7265737300000000000000000000000000000000000000000000000000000000602082015250565b600062000573602483620003fa565b9150620005808262000515565b604082019050919050565b60006020820190508181036000830152620005a68162000564565b9050919050565b61103980620005bd6000396000f3fe60806040526004361061006b576000357c0100000000000000000000000000000000000000000000000000000000900480632c4e722e146100875780634042b66f146100b2578063521eb273146100dd57806378794d5714610108578063ec8ac4d81461013357610082565b366100825761008061007b61014f565b610157565b005b600080fd5b34801561009357600080fd5b5061009c61027d565b6040516100a9919061087e565b60405180910390f35b3480156100be57600080fd5b506100c7610287565b6040516100d4919061087e565b60405180910390f35b3480156100e957600080fd5b506100f2610291565b6040516100ff91906108da565b60405180910390f35b34801561011457600080fd5b5061011d6102bb565b60405161012a9190610954565b60405180910390f35b61014d600480360381019061014891906109b2565b610157565b005b600033905090565b6002600054141561019d576040517f08c379a000000000000000000000000000000000000000000000000000000000815260040161019490610a3c565b60405180910390fd5b600260008190555060003490506101b482826102e5565b60006101bf826102fd565b90506101d68260045461031b90919063ffffffff16565b6004819055506101e68382610331565b8273ffffffffffffffffffffffffffffffffffffffff1661020561014f565b73ffffffffffffffffffffffffffffffffffffffff167f6faf93231a456e552dbc9961f58d9713ee4f2e69d15f1975b050ef0911053a7b848460405161024c929190610a5c565b60405180910390a361025e838361033f565b610266610343565b61027083836103ae565b5050600160008190555050565b6000600354905090565b6000600454905090565b6000600260009054906101000a900473ffffffffffffffffffffffffffffffffffffffff16905090565b6000600160009054906101000a900473ffffffffffffffffffffffffffffffffffffffff16905090565b6102ef82826103b2565b6102f98282610410565b5050565b6000610314600354836104c890919063ffffffff16565b9050919050565b600081836103299190610ab4565b905092915050565b61033b82826104de565b5050565b5050565b600260009054906101000a900473ffffffffffffffffffffffffffffffffffffffff1673ffffffffffffffffffffffffffffffffffffffff166108fc349081150290604051600060405180830381858888f193505050501580156103ab573d6000803e3d6000fd5b50565b5050565b808273ffffffffffffffffffffffffffffffffffffffff1631101561040c576040517f08c379a000000000000000000000000000000000000000000000000000000000815260040161040390610b56565b60405180910390fd5b5050565b600073ffffffffffffffffffffffffffffffffffffffff168273ffffffffffffffffffffffffffffffffffffffff161415610480576040517f08c379a000000000000000000000000000000000000000000000000000000000815260040161047790610be8565b60405180910390fd5b60008114156104c4576040517f08c379a00000000000000000000000000000000000000000000000000000000081526004016104bb90610c54565b60405180910390fd5b5050565b600081836104d69190610c74565b905092915050565b61052b8282600160009054906101000a900473ffffffffffffffffffffffffffffffffffffffff1673ffffffffffffffffffffffffffffffffffffffff1661052f9092919063ffffffff16565b5050565b6105cc8363a9059cbb7c010000000000000000000000000000000000000000000000000000000002848460405160240161056a929190610cdd565b604051602081830303815290604052907bffffffffffffffffffffffffffffffffffffffffffffffffffffffff19166020820180517bffffffffffffffffffffffffffffffffffffffffffffffffffffffff83818316178352505050506105d1565b505050565b6000610633826040518060400160405280602081526020017f5361666545524332303a206c6f772d6c6576656c2063616c6c206661696c65648152508573ffffffffffffffffffffffffffffffffffffffff166106989092919063ffffffff16565b905060008151111561069357808060200190518101906106539190610d3e565b610692576040517f08c379a000000000000000000000000000000000000000000000000000000000815260040161068990610ddd565b60405180910390fd5b5b505050565b60606106a784846000856106b0565b90509392505050565b6060823073ffffffffffffffffffffffffffffffffffffffff1631101561070c576040517f08c379a000000000000000000000000000000000000000000000000000000000815260040161070390610e6f565b60405180910390fd5b610715856107db565b610754576040517f08c379a000000000000000000000000000000000000000000000000000000000815260040161074b90610edb565b60405180910390fd5b6000808673ffffffffffffffffffffffffffffffffffffffff16858760405161077d9190610f75565b60006040518083038185875af1925050503d80600081146107ba576040519150601f19603f3d011682016040523d82523d6000602084013e6107bf565b606091505b50915091506107cf8282866107fe565b92505050949350505050565b6000808273ffffffffffffffffffffffffffffffffffffffff163b119050919050565b6060831561080e5782905061085e565b6000835111156108215782518084602001fd5b816040517f08c379a00000000000000000000000000000000000000000000000000000000081526004016108559190610fe1565b60405180910390fd5b9392505050565b6000819050919050565b61087881610865565b82525050565b6000602082019050610893600083018461086f565b92915050565b600073ffffffffffffffffffffffffffffffffffffffff82169050919050565b60006108c482610899565b9050919050565b6108d4816108b9565b82525050565b60006020820190506108ef60008301846108cb565b92915050565b6000819050919050565b600061091a61091561091084610899565b6108f5565b610899565b9050919050565b600061092c826108ff565b9050919050565b600061093e82610921565b9050919050565b61094e81610933565b82525050565b60006020820190506109696000830184610945565b92915050565b600080fd5b600061097f82610899565b9050919050565b61098f81610974565b811461099a57600080fd5b50565b6000813590506109ac81610986565b92915050565b6000602082840312156109c8576109c761096f565b5b60006109d68482850161099d565b91505092915050565b600082825260208201905092915050565b7f5265656e7472616e637947756172643a207265656e7472616e742063616c6c00600082015250565b6000610a26601f836109df565b9150610a31826109f0565b602082019050919050565b60006020820190508181036000830152610a5581610a19565b9050919050565b6000604082019050610a71600083018561086f565b610a7e602083018461086f565b9392505050565b7f4e487b7100000000000000000000000000000000000000000000000000000000600052601160045260246000fd5b6000610abf82610865565b9150610aca83610865565b9250827fffffffffffffffffffffffffffffffffffffffffffffffffffffffffffffffff03821115610aff57610afe610a85565b5b828201905092915050565b7f6e6f7420656e6f75676820457468657220617661696c61626c65000000000000600082015250565b6000610b40601a836109df565b9150610b4b82610b0a565b602082019050919050565b60006020820190508181036000830152610b6f81610b33565b9050919050565b7f43726f776473616c653a2062656e656669636961727920697320746865207a6560008201527f726f206164647265737300000000000000000000000000000000000000000000602082015250565b6000610bd2602a836109df565b9150610bdd82610b76565b604082019050919050565b60006020820190508181036000830152610c0181610bc5565b9050919050565b7f43726f776473616c653a20776569416d6f756e74206973203000000000000000600082015250565b6000610c3e6019836109df565b9150610c4982610c08565b602082019050919050565b60006020820190508181036000830152610c6d81610c31565b9050919050565b6000610c7f82610865565b9150610c8a83610865565b9250817fffffffffffffffffffffffffffffffffffffffffffffffffffffffffffffffff0483118215151615610cc357610cc2610a85565b5b828202905092915050565b610cd781610974565b82525050565b6000604082019050610cf26000830185610cce565b610cff602083018461086f565b9392505050565b60008115159050919050565b610d1b81610d06565b8114610d2657600080fd5b50565b600081519050610d3881610d12565b92915050565b600060208284031215610d5457610d5361096f565b5b6000610d6284828501610d29565b91505092915050565b7f5361666545524332303a204552433230206f7065726174696f6e20646964206e60008201527f6f74207375636365656400000000000000000000000000000000000000000000602082015250565b6000610dc7602a836109df565b9150610dd282610d6b565b604082019050919050565b60006020820190508181036000830152610df681610dba565b9050919050565b7f416464726573733a20696e73756666696369656e742062616c616e636520666f60008201527f722063616c6c0000000000000000000000000000000000000000000000000000602082015250565b6000610e596026836109df565b9150610e6482610dfd565b604082019050919050565b60006020820190508181036000830152610e8881610e4c565b9050919050565b7f416464726573733a2063616c6c20746f206e6f6e2d636f6e7472616374000000600082015250565b6000610ec5601d836109df565b9150610ed082610e8f565b602082019050919050565b60006020820190508181036000830152610ef481610eb8565b9050919050565b600081519050919050565b600081905092915050565b60005b83811015610f2f578082015181840152602081019050610f14565b83811115610f3e576000848401525b50505050565b6000610f4f82610efb565b610f598185610f06565b9350610f69818560208601610f11565b80840191505092915050565b6000610f818284610f44565b915081905092915050565b600081519050919050565b6000601f19601f8301169050919050565b6000610fb382610f8c565b610fbd81856109df565b9350610fcd818560208601610f11565b610fd681610f97565b840191505092915050565b60006020820190508181036000830152610ffb8184610fa8565b90509291505056fea2646970667358221220dfbfef25dc353ac3a46e68943f8a57e879cc7c2666b824f576afc08d26f26ab564736f6c634300080b0033",
  "immutableReferences": {},
  "source": "// SPDX-License-Identifier: MIT\n\npragma solidity 0.8.11;\n\nimport \"./Crowdsale.sol\";\nimport \"./KYCValidation.sol\";\nimport \"./Ratable.sol\";\n\ncontract SatiTokenSale is Crowdsale {\n    KYCValidation kycValidation;\n\n    constructor(\n        uint256 _fixedExchangeRate,\n        address payable _wallet,\n        IERC20 _token,\n        KYCValidation _kycValidation\n    ) Crowdsale(_fixedExchangeRate, _wallet, _token) {\n        kycValidation = _kycValidation;\n    }\n\n    function requireHasEnoughEther(\n        address _addressToValidate,\n        uint256 _requiredAmount\n    ) internal view {\n        require(\n            address(_addressToValidate).balance >= _requiredAmount,\n            \"not enough Ether available\"\n        );\n    }\n\n    function _preValidatePurchase(address _buyer, uint256 _weiAmount)\n        internal\n        view\n        override\n    {\n        requireHasEnoughEther(_buyer, _weiAmount);\n        super._preValidatePurchase(_buyer, _weiAmount);\n\n        // Deactivated for demo\n        // kycValidation.requireKYCCompletion(_buyer);\n    }\n}\n",
  "sourcePath": "/Users/bmarquis/Crypto/solidity-swap-exchange/contracts/source/SatiTokenSale.sol",
  "compiler": {
    "name": "solc",
    "version": "0.8.11+commit.d7f03943.Emscripten.clang"
  },
  "schemaVersion": "3.4.5",
  "updatedAt": "2022-03-04T23:43:30.678Z",
  "networkType": "ethereum",
  "devdoc": {
    "kind": "dev",
    "methods": {
      "buyTokens(address)": {
        "details": "low level token purchase ***DO NOT OVERRIDE*** This function has a non-reentrancy guard, so it shouldn't be called by another `nonReentrant` function.",
        "params": {
          "beneficiary": "Recipient of the token purchase"
        }
      },
      "rate()": {
        "returns": {
          "_0": "the number of token units a buyer gets per wei."
        }
      },
      "toUnit()": {
        "returns": {
          "_0": "the token being sold."
        }
      },
      "wallet()": {
        "returns": {
          "_0": "the address where funds are collected."
        }
      },
      "weiRaised()": {
        "returns": {
          "_0": "the amount of wei raised."
        }
      }
    },
    "version": 1
  },
  "userdoc": {
    "events": {
      "TokensPurchased(address,address,uint256,uint256)": {
        "notice": "Event for token purchase logging"
      }
    },
    "kind": "user",
    "methods": {},
    "version": 1
  }
}