{
  "contractName": "SatiSwapContractFactory",
  "abi": [
    {
      "anonymous": false,
      "inputs": [
        {
          "indexed": true,
          "internalType": "address",
          "name": "previousOwner",
          "type": "address"
        },
        {
          "indexed": true,
          "internalType": "address",
          "name": "newOwner",
          "type": "address"
        }
      ],
      "name": "OwnershipTransferred",
      "type": "event"
    },
    {
      "inputs": [
        {
          "internalType": "string",
          "name": "",
          "type": "string"
        }
      ],
      "name": "deployedSatiSwapContractsRegistry",
      "outputs": [
        {
          "internalType": "address",
          "name": "",
          "type": "address"
        }
      ],
      "stateMutability": "view",
      "type": "function",
      "constant": true
    },
    {
      "inputs": [],
      "name": "owner",
      "outputs": [
        {
          "internalType": "address",
          "name": "",
          "type": "address"
        }
      ],
      "stateMutability": "view",
      "type": "function",
      "constant": true
    },
    {
      "inputs": [],
      "name": "renounceOwnership",
      "outputs": [],
      "stateMutability": "nonpayable",
      "type": "function"
    },
    {
      "inputs": [
        {
          "internalType": "uint256",
          "name": "",
          "type": "uint256"
        }
      ],
      "name": "satiSwapPairs",
      "outputs": [
        {
          "internalType": "string",
          "name": "",
          "type": "string"
        }
      ],
      "stateMutability": "view",
      "type": "function",
      "constant": true
    },
    {
      "inputs": [
        {
          "internalType": "address",
          "name": "newOwner",
          "type": "address"
        }
      ],
      "name": "transferOwnership",
      "outputs": [],
      "stateMutability": "nonpayable",
      "type": "function"
    },
    {
      "inputs": [
        {
          "internalType": "contract SatiToken",
          "name": "_satiToken",
          "type": "address"
        },
        {
          "internalType": "contract ERC20",
          "name": "_ERC20Token",
          "type": "address"
        },
        {
          "internalType": "address",
          "name": "_ERC20TokenToUsdRate",
          "type": "address"
        }
      ],
      "name": "deployNewSwapContract",
      "outputs": [],
      "stateMutability": "nonpayable",
      "type": "function"
    },
    {
      "inputs": [],
      "name": "getAllSwapPairs",
      "outputs": [
        {
          "internalType": "string[]",
          "name": "",
          "type": "string[]"
        }
      ],
      "stateMutability": "view",
      "type": "function",
      "constant": true
    }
  ],
  "bytecode": "0x608060405234801561001057600080fd5b5061003f61002b610044640100000000026401000000009004565b61004c640100000000026401000000009004565b610110565b600033905090565b60008060009054906101000a900473ffffffffffffffffffffffffffffffffffffffff169050816000806101000a81548173ffffffffffffffffffffffffffffffffffffffff021916908373ffffffffffffffffffffffffffffffffffffffff1602179055508173ffffffffffffffffffffffffffffffffffffffff168173ffffffffffffffffffffffffffffffffffffffff167f8be0079c531659141344cd1fd0a4f28419497f9722a3daafe3b4186f6b6457e060405160405180910390a35050565b612fb68061011f6000396000f3fe60806040523480156200001157600080fd5b5060043610620000a5576000357c010000000000000000000000000000000000000000000000000000000090048063772fbbec1162000080578063772fbbec146200010c5780638da5cb5b1462000142578063984999991462000164578063f2fde38b146200018657620000a5565b80630b8cd7fe14620000aa57806334b7173214620000e0578063715018a61462000100575b600080fd5b620000c86004803603810190620000c291906200091d565b620001a6565b604051620000d79190620009f3565b60405180910390f35b620000fe6004803603810190620000f8919062000b06565b6200025b565b005b6200010a6200045a565b005b6200012a600480360381019062000124919062000cb3565b620004eb565b60405162000139919062000d15565b60405180910390f35b6200014c62000534565b6040516200015b919062000d15565b60405180910390f35b6200016e6200055d565b6040516200017d919062000e54565b60405180910390f35b620001a460048036038101906200019e919062000e78565b62000640565b005b60018181548110620001b757600080fd5b906000526020600020016000915090508054620001d49062000ed9565b80601f0160208091040260200160405190810160405280929190818152602001828054620002029062000ed9565b8015620002535780601f10620002275761010080835404028352916020019162000253565b820191906000526020600020905b8154815290600101906020018083116200023557829003601f168201915b505050505081565b6200026562000744565b73ffffffffffffffffffffffffffffffffffffffff166200028562000534565b73ffffffffffffffffffffffffffffffffffffffff1614620002de576040517f08c379a0000000000000000000000000000000000000000000000000000000008152600401620002d59062000f5f565b60405180910390fd5b6000838383604051620002f19062000810565b620002ff9392919062001011565b604051809103906000f0801580156200031c573d6000803e3d6000fd5b50905060008373ffffffffffffffffffffffffffffffffffffffff166395d89b416040518163ffffffff167c0100000000000000000000000000000000000000000000000000000000028152600401600060405180830381865afa15801562000389573d6000803e3d6000fd5b505050506040513d6000823e3d601f19601f82011682018060405250810190620003b49190620010cc565b9050600181908060018154018082558091505060019003906000526020600020016000909190919091509080519060200190620003f39291906200081e565b50816002826040516200040791906200115f565b908152602001604051809103902060006101000a81548173ffffffffffffffffffffffffffffffffffffffff021916908373ffffffffffffffffffffffffffffffffffffffff1602179055505050505050565b6200046462000744565b73ffffffffffffffffffffffffffffffffffffffff166200048462000534565b73ffffffffffffffffffffffffffffffffffffffff1614620004dd576040517f08c379a0000000000000000000000000000000000000000000000000000000008152600401620004d49062000f5f565b60405180910390fd5b620004e960006200074c565b565b6002818051602081018201805184825260208301602085012081835280955050505050506000915054906101000a900473ffffffffffffffffffffffffffffffffffffffff1681565b60008060009054906101000a900473ffffffffffffffffffffffffffffffffffffffff16905090565b60606001805480602002602001604051908101604052809291908181526020016000905b8282101562000637578382906000526020600020018054620005a39062000ed9565b80601f0160208091040260200160405190810160405280929190818152602001828054620005d19062000ed9565b8015620006225780601f10620005f65761010080835404028352916020019162000622565b820191906000526020600020905b8154815290600101906020018083116200060457829003601f168201915b50505050508152602001906001019062000581565b50505050905090565b6200064a62000744565b73ffffffffffffffffffffffffffffffffffffffff166200066a62000534565b73ffffffffffffffffffffffffffffffffffffffff1614620006c3576040517f08c379a0000000000000000000000000000000000000000000000000000000008152600401620006ba9062000f5f565b60405180910390fd5b600073ffffffffffffffffffffffffffffffffffffffff168173ffffffffffffffffffffffffffffffffffffffff16141562000736576040517f08c379a00000000000000000000000000000000000000000000000000000000081526004016200072d90620011ee565b60405180910390fd5b62000741816200074c565b50565b600033905090565b60008060009054906101000a900473ffffffffffffffffffffffffffffffffffffffff169050816000806101000a81548173ffffffffffffffffffffffffffffffffffffffff021916908373ffffffffffffffffffffffffffffffffffffffff1602179055508173ffffffffffffffffffffffffffffffffffffffff168173ffffffffffffffffffffffffffffffffffffffff167f8be0079c531659141344cd1fd0a4f28419497f9722a3daafe3b4186f6b6457e060405160405180910390a35050565b611d70806200121183390190565b8280546200082c9062000ed9565b90600052602060002090601f0160209004810192826200085057600085556200089c565b82601f106200086b57805160ff19168380011785556200089c565b828001600101855582156200089c579182015b828111156200089b5782518255916020019190600101906200087e565b5b509050620008ab9190620008af565b5090565b5b80821115620008ca576000816000905550600101620008b0565b5090565b6000604051905090565b600080fd5b600080fd5b6000819050919050565b620008f781620008e2565b81146200090357600080fd5b50565b6000813590506200091781620008ec565b92915050565b600060208284031215620009365762000935620008d8565b5b6000620009468482850162000906565b91505092915050565b600081519050919050565b600082825260208201905092915050565b60005b838110156200098b5780820151818401526020810190506200096e565b838111156200099b576000848401525b50505050565b6000601f19601f8301169050919050565b6000620009bf826200094f565b620009cb81856200095a565b9350620009dd8185602086016200096b565b620009e881620009a1565b840191505092915050565b6000602082019050818103600083015262000a0f8184620009b2565b905092915050565b600073ffffffffffffffffffffffffffffffffffffffff82169050919050565b600062000a448262000a17565b9050919050565b600062000a588262000a37565b9050919050565b62000a6a8162000a4b565b811462000a7657600080fd5b50565b60008135905062000a8a8162000a5f565b92915050565b600062000a9d8262000a37565b9050919050565b62000aaf8162000a90565b811462000abb57600080fd5b50565b60008135905062000acf8162000aa4565b92915050565b62000ae08162000a37565b811462000aec57600080fd5b50565b60008135905062000b008162000ad5565b92915050565b60008060006060848603121562000b225762000b21620008d8565b5b600062000b328682870162000a79565b935050602062000b458682870162000abe565b925050604062000b588682870162000aef565b9150509250925092565b600080fd5b600080fd5b7f4e487b7100000000000000000000000000000000000000000000000000000000600052604160045260246000fd5b62000ba682620009a1565b810181811067ffffffffffffffff8211171562000bc85762000bc762000b6c565b5b80604052505050565b600062000bdd620008ce565b905062000beb828262000b9b565b919050565b600067ffffffffffffffff82111562000c0e5762000c0d62000b6c565b5b62000c1982620009a1565b9050602081019050919050565b82818337600083830152505050565b600062000c4c62000c468462000bf0565b62000bd1565b90508281526020810184848401111562000c6b5762000c6a62000b67565b5b62000c7884828562000c26565b509392505050565b600082601f83011262000c985762000c9762000b62565b5b813562000caa84826020860162000c35565b91505092915050565b60006020828403121562000ccc5762000ccb620008d8565b5b600082013567ffffffffffffffff81111562000ced5762000cec620008dd565b5b62000cfb8482850162000c80565b91505092915050565b62000d0f8162000a37565b82525050565b600060208201905062000d2c600083018462000d04565b92915050565b600081519050919050565b600082825260208201905092915050565b6000819050602082019050919050565b600082825260208201905092915050565b600062000d7c826200094f565b62000d88818562000d5e565b935062000d9a8185602086016200096b565b62000da581620009a1565b840191505092915050565b600062000dbe838362000d6f565b905092915050565b6000602082019050919050565b600062000de08262000d32565b62000dec818562000d3d565b93508360208202850162000e008562000d4e565b8060005b8581101562000e42578484038952815162000e20858262000db0565b945062000e2d8362000dc6565b925060208a0199505060018101905062000e04565b50829750879550505050505092915050565b6000602082019050818103600083015262000e70818462000dd3565b905092915050565b60006020828403121562000e915762000e90620008d8565b5b600062000ea18482850162000aef565b91505092915050565b7f4e487b7100000000000000000000000000000000000000000000000000000000600052602260045260246000fd5b6000600282049050600182168062000ef257607f821691505b6020821081141562000f095762000f0862000eaa565b5b50919050565b7f4f776e61626c653a2063616c6c6572206973206e6f7420746865206f776e6572600082015250565b600062000f476020836200095a565b915062000f548262000f0f565b602082019050919050565b6000602082019050818103600083015262000f7a8162000f38565b9050919050565b6000819050919050565b600062000fac62000fa662000fa08462000a17565b62000f81565b62000a17565b9050919050565b600062000fc08262000f8b565b9050919050565b600062000fd48262000fb3565b9050919050565b62000fe68162000fc7565b82525050565b600062000ff98262000fb3565b9050919050565b6200100b8162000fec565b82525050565b600060608201905062001028600083018662000fdb565b62001037602083018562001000565b62001046604083018462000d04565b949350505050565b6000620010656200105f8462000bf0565b62000bd1565b90508281526020810184848401111562001084576200108362000b67565b5b620010918482856200096b565b509392505050565b600082601f830112620010b157620010b062000b62565b5b8151620010c38482602086016200104e565b91505092915050565b600060208284031215620010e557620010e4620008d8565b5b600082015167ffffffffffffffff811115620011065762001105620008dd565b5b620011148482850162001099565b91505092915050565b600081905092915050565b600062001135826200094f565b6200114181856200111d565b9350620011538185602086016200096b565b80840191505092915050565b60006200116d828462001128565b915081905092915050565b7f4f776e61626c653a206e6577206f776e657220697320746865207a65726f206160008201527f6464726573730000000000000000000000000000000000000000000000000000602082015250565b6000620011d66026836200095a565b9150620011e38262001178565b604082019050919050565b600060208201905081810360008301526200120981620011c7565b905091905056fe60806040526012600060146101000a81548160ff021916908360ff1602179055503480156200002d57600080fd5b5060405162001d7038038062001d70833981810160405281019062000053919062000214565b80806000806101000a81548173ffffffffffffffffffffffffffffffffffffffff021916908373ffffffffffffffffffffffffffffffffffffffff1602179055505082600160006101000a81548173ffffffffffffffffffffffffffffffffffffffff021916908373ffffffffffffffffffffffffffffffffffffffff16021790555081600260006101000a81548173ffffffffffffffffffffffffffffffffffffffff021916908373ffffffffffffffffffffffffffffffffffffffff16021790555050505062000270565b600080fd5b600073ffffffffffffffffffffffffffffffffffffffff82169050919050565b6000620001528262000125565b9050919050565b6000620001668262000145565b9050919050565b620001788162000159565b81146200018457600080fd5b50565b60008151905062000198816200016d565b92915050565b6000620001ab8262000145565b9050919050565b620001bd816200019e565b8114620001c957600080fd5b50565b600081519050620001dd81620001b2565b92915050565b620001ee8162000145565b8114620001fa57600080fd5b50565b6000815190506200020e81620001e3565b92915050565b60008060006060848603121562000230576200022f62000120565b5b6000620002408682870162000187565b93505060206200025386828701620001cc565b92505060406200026686828701620001fd565b9150509250925092565b611af080620002806000396000f3fe6080604052600436106100a3576000357c0100000000000000000000000000000000000000000000000000000000900480639d0ba183116100765780639d0ba18314610157578063a1de94ab14610194578063b0833072146101bf578063c94e8204146101ea578063f0b5870614610227576100a3565b80631dda1a82146100a85780633561b7df146100e557806364be1dda146101015780637a80760e1461012c575b600080fd5b3480156100b457600080fd5b506100cf60048036038101906100ca9190610fc8565b610243565b6040516100dc9190611004565b60405180910390f35b6100ff60048036038101906100fa9190610fc8565b61038d565b005b34801561010d57600080fd5b5061011661058f565b6040516101239190611004565b60405180910390f35b34801561013857600080fd5b506101416105c1565b60405161014e919061109e565b60405180910390f35b34801561016357600080fd5b5061017e600480360381019061017991906110f2565b6105e7565b60405161018b9190611138565b60405180910390f35b3480156101a057600080fd5b506101a9610798565b6040516101b69190611174565b60405180910390f35b3480156101cb57600080fd5b506101d46107be565b6040516101e19190611004565b60405180910390f35b3480156101f657600080fd5b50610211600480360381019061020c9190610fc8565b6107f0565b60405161021e9190611004565b60405180910390f35b610241600480360381019061023c9190610fc8565b61093a565b005b60008061024f83610b3c565b90508083610343600260009054906101000a900473ffffffffffffffffffffffffffffffffffffffff1673ffffffffffffffffffffffffffffffffffffffff166395d89b416040518163ffffffff167c0100000000000000000000000000000000000000000000000000000000028152600401600060405180830381865afa1580156102df573d6000803e3d6000fd5b505050506040513d6000823e3d601f19601f8201168201806040525081019061030891906112f9565b6040518060400160405280600781526020017f20746f2053544900000000000000000000000000000000000000000000000000815250610b85565b6040516103509190611389565b60405180910390207ff1067d24cb7e943024a69dc0d5e4088ab0c731a079765f6660f24f5094c50a8160405160405180910390a480915050919050565b61039e610398610bb1565b82610bb9565b60006103a9826107f0565b90506103b53082610bea565b600160009054906101000a900473ffffffffffffffffffffffffffffffffffffffff1673ffffffffffffffffffffffffffffffffffffffff166323b872dd6103fb610bb1565b30856040518463ffffffff167c0100000000000000000000000000000000000000000000000000000000028152600401610437939291906113c1565b6020604051808303816000875af1158015610456573d6000803e3d6000fd5b505050506040513d601f19601f8201168201806040525081019061047a9190611430565b50600260009054906101000a900473ffffffffffffffffffffffffffffffffffffffff1673ffffffffffffffffffffffffffffffffffffffff1663a9059cbb6104c1610bb1565b836040518363ffffffff167c01000000000000000000000000000000000000000000000000000000000281526004016104fb92919061145d565b6020604051808303816000875af115801561051a573d6000803e3d6000fd5b505050506040513d601f19601f8201168201806040525081019061053e9190611430565b508082610549610bb1565b73ffffffffffffffffffffffffffffffffffffffff167f2585a01fb30e6e678ba95ff762e7a69baaa667604e4d100d8e69dfa8205461ca60405160405180910390a45050565b60006105bc600160009054906101000a900473ffffffffffffffffffffffffffffffffffffffff16610c1b565b905090565b600260009054906101000a900473ffffffffffffffffffffffffffffffffffffffff1681565b60008060008060009054906101000a900473ffffffffffffffffffffffffffffffffffffffff1673ffffffffffffffffffffffffffffffffffffffff1663feaf968c6040518163ffffffff167c010000000000000000000000000000000000000000000000000000000002815260040160a060405180830381865afa158015610674573d6000803e3d6000fd5b505050506040513d601f19601f820116820180604052508101906106989190611509565b5093505092505060008060009054906101000a900473ffffffffffffffffffffffffffffffffffffffff1673ffffffffffffffffffffffffffffffffffffffff1663313ce5676040518163ffffffff167c0100000000000000000000000000000000000000000000000000000000028152600401602060405180830381865afa158015610729573d6000803e3d6000fd5b505050506040513d601f19601f8201168201806040525081019061074d9190611599565b9050600061075c848388610cba565b905082817fb6c1393c2251d5f83b6b4923759cf156e72f269dc654f872eab19c92b853cf5e60405160405180910390a380945050505050919050565b600160009054906101000a900473ffffffffffffffffffffffffffffffffffffffff1681565b60006107eb600260009054906101000a900473ffffffffffffffffffffffffffffffffffffffff16610c1b565b905090565b6000806107fc83610d3d565b905080836108f06040518060400160405280600781526020017f53544920746f2000000000000000000000000000000000000000000000000000815250600260009054906101000a900473ffffffffffffffffffffffffffffffffffffffff1673ffffffffffffffffffffffffffffffffffffffff166395d89b416040518163ffffffff167c0100000000000000000000000000000000000000000000000000000000028152600401600060405180830381865afa1580156108c2573d6000803e3d6000fd5b505050506040513d6000823e3d601f19601f820116820180604052508101906108eb91906112f9565b610b85565b6040516108fd9190611389565b60405180910390207ff1067d24cb7e943024a69dc0d5e4088ab0c731a079765f6660f24f5094c50a8160405160405180910390a480915050919050565b61094b610945610bb1565b82610bea565b600061095682610243565b90506109623082610bb9565b600260009054906101000a900473ffffffffffffffffffffffffffffffffffffffff1673ffffffffffffffffffffffffffffffffffffffff166323b872dd6109a8610bb1565b30856040518463ffffffff167c01000000000000000000000000000000000000000000000000000000000281526004016109e4939291906113c1565b6020604051808303816000875af1158015610a03573d6000803e3d6000fd5b505050506040513d601f19601f82011682018060405250810190610a279190611430565b50600160009054906101000a900473ffffffffffffffffffffffffffffffffffffffff1673ffffffffffffffffffffffffffffffffffffffff1663a9059cbb610a6e610bb1565b836040518363ffffffff167c0100000000000000000000000000000000000000000000000000000000028152600401610aa892919061145d565b6020604051808303816000875af1158015610ac7573d6000803e3d6000fd5b505050506040513d601f19601f82011682018060405250810190610aeb9190611430565b508034610af6610bb1565b73ffffffffffffffffffffffffffffffffffffffff167f2585a01fb30e6e678ba95ff762e7a69baaa667604e4d100d8e69dfa8205461ca60405160405180910390a45050565b600080610b57600060149054906101000a900460ff166105e7565b905080610b7384600060149054906101000a900460ff16610d86565b610b7d91906115f5565b915050919050565b60608282604051602001610b9a92919061164f565b604051602081830303815290604052905092915050565b600033905090565b610be6600160009054906101000a900473ffffffffffffffffffffffffffffffffffffffff168383610dab565b5050565b610c17600260009054906101000a900473ffffffffffffffffffffffffffffffffffffffff168383610dab565b5050565b60008173ffffffffffffffffffffffffffffffffffffffff166370a08231306040518263ffffffff167c0100000000000000000000000000000000000000000000000000000000028152600401610c729190611673565b602060405180830381865afa158015610c8f573d6000803e3d6000fd5b505050506040513d601f19601f82011682018060405250810190610cb3919061168e565b9050919050565b60008160ff168360ff161015610cf7578282610cd691906116bb565b60ff16600a610ce59190611822565b84610cf0919061186d565b9050610d36565b8160ff168360ff161115610d32578183610d1191906116bb565b60ff16600a610d209190611822565b84610d2b91906119b3565b9050610d36565b8390505b9392505050565b600080610d58600060149054906101000a900460ff166105e7565b905080610d7484600060149054906101000a900460ff16610f59565b610d7e9190611a1d565b915050919050565b60008160ff16600a610d989190611822565b83610da39190611a1d565b905092915050565b808373ffffffffffffffffffffffffffffffffffffffff166370a08231846040518263ffffffff167c0100000000000000000000000000000000000000000000000000000000028152600401610e019190611673565b602060405180830381865afa158015610e1e573d6000803e3d6000fd5b505050506040513d601f19601f82011682018060405250810190610e42919061168e565b1015610f126040518060400160405280600b81526020017f4e6f7420656e6f756768200000000000000000000000000000000000000000008152508573ffffffffffffffffffffffffffffffffffffffff166395d89b416040518163ffffffff167c0100000000000000000000000000000000000000000000000000000000028152600401600060405180830381865afa158015610ee4573d6000803e3d6000fd5b505050506040513d6000823e3d601f19601f82011682018060405250810190610f0d91906112f9565b610b85565b90610f53576040517f08c379a0000000000000000000000000000000000000000000000000000000008152600401610f4a9190611a98565b60405180910390fd5b50505050565b60008160ff16600a610f6b9190611822565b83610f7691906115f5565b905092915050565b6000604051905090565b600080fd5b600080fd5b6000819050919050565b610fa581610f92565b8114610fb057600080fd5b50565b600081359050610fc281610f9c565b92915050565b600060208284031215610fde57610fdd610f88565b5b6000610fec84828501610fb3565b91505092915050565b610ffe81610f92565b82525050565b60006020820190506110196000830184610ff5565b92915050565b600073ffffffffffffffffffffffffffffffffffffffff82169050919050565b6000819050919050565b600061106461105f61105a8461101f565b61103f565b61101f565b9050919050565b600061107682611049565b9050919050565b60006110888261106b565b9050919050565b6110988161107d565b82525050565b60006020820190506110b3600083018461108f565b92915050565b600060ff82169050919050565b6110cf816110b9565b81146110da57600080fd5b50565b6000813590506110ec816110c6565b92915050565b60006020828403121561110857611107610f88565b5b6000611116848285016110dd565b91505092915050565b6000819050919050565b6111328161111f565b82525050565b600060208201905061114d6000830184611129565b92915050565b600061115e8261106b565b9050919050565b61116e81611153565b82525050565b60006020820190506111896000830184611165565b92915050565b600080fd5b600080fd5b6000601f19601f8301169050919050565b7f4e487b7100000000000000000000000000000000000000000000000000000000600052604160045260246000fd5b6111e282611199565b810181811067ffffffffffffffff82111715611201576112006111aa565b5b80604052505050565b6000611214610f7e565b905061122082826111d9565b919050565b600067ffffffffffffffff8211156112405761123f6111aa565b5b61124982611199565b9050602081019050919050565b60005b83811015611274578082015181840152602081019050611259565b83811115611283576000848401525b50505050565b600061129c61129784611225565b61120a565b9050828152602081018484840111156112b8576112b7611194565b5b6112c3848285611256565b509392505050565b600082601f8301126112e0576112df61118f565b5b81516112f0848260208601611289565b91505092915050565b60006020828403121561130f5761130e610f88565b5b600082015167ffffffffffffffff81111561132d5761132c610f8d565b5b611339848285016112cb565b91505092915050565b600081519050919050565b600081905092915050565b600061136382611342565b61136d818561134d565b935061137d818560208601611256565b80840191505092915050565b60006113958284611358565b915081905092915050565b60006113ab8261101f565b9050919050565b6113bb816113a0565b82525050565b60006060820190506113d660008301866113b2565b6113e360208301856113b2565b6113f06040830184610ff5565b949350505050565b60008115159050919050565b61140d816113f8565b811461141857600080fd5b50565b60008151905061142a81611404565b92915050565b60006020828403121561144657611445610f88565b5b60006114548482850161141b565b91505092915050565b600060408201905061147260008301856113b2565b61147f6020830184610ff5565b9392505050565b600069ffffffffffffffffffff82169050919050565b6114a581611486565b81146114b057600080fd5b50565b6000815190506114c28161149c565b92915050565b6114d18161111f565b81146114dc57600080fd5b50565b6000815190506114ee816114c8565b92915050565b60008151905061150381610f9c565b92915050565b600080600080600060a0868803121561152557611524610f88565b5b6000611533888289016114b3565b9550506020611544888289016114df565b9450506040611555888289016114f4565b9350506060611566888289016114f4565b9250506080611577888289016114b3565b9150509295509295909350565b600081519050611593816110c6565b92915050565b6000602082840312156115af576115ae610f88565b5b60006115bd84828501611584565b91505092915050565b7f4e487b7100000000000000000000000000000000000000000000000000000000600052601160045260246000fd5b600061160082610f92565b915061160b83610f92565b9250817fffffffffffffffffffffffffffffffffffffffffffffffffffffffffffffffff0483118215151615611644576116436115c6565b5b828202905092915050565b600061165b8285611358565b91506116678284611358565b91508190509392505050565b600060208201905061168860008301846113b2565b92915050565b6000602082840312156116a4576116a3610f88565b5b60006116b2848285016114f4565b91505092915050565b60006116c6826110b9565b91506116d1836110b9565b9250828210156116e4576116e36115c6565b5b828203905092915050565b6000600282049050919050565b6000808291508390505b600185111561174657808604811115611722576117216115c6565b5b60018516156117315780820291505b808102905061173f856116ef565b9450611706565b94509492505050565b60008261175f576001905061181b565b8161176d576000905061181b565b8160018114611783576002811461178d576117bc565b600191505061181b565b60ff84111561179f5761179e6115c6565b5b8360020a9150848211156117b6576117b56115c6565b5b5061181b565b5060208310610133831016604e8410600b84101617156117f15782820a9050838111156117ec576117eb6115c6565b5b61181b565b6117fe84848460016116fc565b92509050818404811115611815576118146115c6565b5b81810290505b9392505050565b600061182d82610f92565b915061183883610f92565b92506118657fffffffffffffffffffffffffffffffffffffffffffffffffffffffffffffffff848461174f565b905092915050565b60006118788261111f565b91506118838361111f565b9250827f7fffffffffffffffffffffffffffffffffffffffffffffffffffffffffffffff04821160008413600084131616156118c2576118c16115c6565b5b817f800000000000000000000000000000000000000000000000000000000000000005831260008412600084131616156118ff576118fe6115c6565b5b827f8000000000000000000000000000000000000000000000000000000000000000058212600084136000841216161561193c5761193b6115c6565b5b827f7fffffffffffffffffffffffffffffffffffffffffffffffffffffffffffffff0582126000841260008412161615611979576119786115c6565b5b828202905092915050565b7f4e487b7100000000000000000000000000000000000000000000000000000000600052601260045260246000fd5b60006119be8261111f565b91506119c98361111f565b9250826119d9576119d8611984565b5b600160000383147f800000000000000000000000000000000000000000000000000000000000000083141615611a1257611a116115c6565b5b828205905092915050565b6000611a2882610f92565b9150611a3383610f92565b925082611a4357611a42611984565b5b828204905092915050565b600082825260208201905092915050565b6000611a6a82611342565b611a748185611a4e565b9350611a84818560208601611256565b611a8d81611199565b840191505092915050565b60006020820190508181036000830152611ab28184611a5f565b90509291505056fea264697066735822122016bdece8b046acbdbfe338a30392020e4ed96fca7f4366186da8884d4bf9c45c64736f6c634300080b0033a26469706673582212207a7c5d6460a2c296d856ae0b50526121e084cbed975f5a0b16e1efdfd6f8896464736f6c634300080b0033",
  "immutableReferences": {},
  "source": "// SPDX-License-Identifier: MIT\n\npragma solidity ^0.8.11;\n\nimport \"./SatiToken.sol\";\nimport \"@openzeppelin/contracts/access/Ownable.sol\";\nimport \"@openzeppelin/contracts/token/ERC20/ERC20.sol\";\nimport \"./SatiERC20TokenSwap.sol\";\n\ncontract SatiSwapContractFactory is Ownable {\n    string[] public satiSwapPairs;\n    mapping(string => address) public deployedSatiSwapContractsRegistry;\n\n    function deployNewSwapContract(\n        SatiToken _satiToken,\n        ERC20 _ERC20Token,\n        address _ERC20TokenToUsdRate\n    ) external onlyOwner {\n        address deployedSwapContractAddress = address(\n            new SatiERC20TokenSwap(\n                _satiToken,\n                _ERC20Token,\n                _ERC20TokenToUsdRate\n            )\n        );\n\n        string memory deployedPair = _ERC20Token.symbol();\n\n        satiSwapPairs.push(deployedPair);\n\n        deployedSatiSwapContractsRegistry[\n            deployedPair\n        ] = deployedSwapContractAddress;\n    }\n\n    function getAllSwapPairs() external view returns (string[] memory) {\n        return satiSwapPairs;\n    }\n}\n",
  "sourcePath": "/Users/bmarquis/Crypto/solidity-swap-exchange/contracts/source/SatiSwapContractFactory.sol",
  "compiler": {
    "name": "solc",
    "version": "0.8.11+commit.d7f03943.Emscripten.clang"
  },
  "schemaVersion": "3.4.5",
  "updatedAt": "2022-03-04T03:19:15.791Z",
  "networkType": "ethereum",
  "devdoc": {
    "kind": "dev",
    "methods": {
      "owner()": {
        "details": "Returns the address of the current owner."
      },
      "renounceOwnership()": {
        "details": "Leaves the contract without owner. It will not be possible to call `onlyOwner` functions anymore. Can only be called by the current owner. NOTE: Renouncing ownership will leave the contract without an owner, thereby removing any functionality that is only available to the owner."
      },
      "transferOwnership(address)": {
        "details": "Transfers ownership of the contract to a new account (`newOwner`). Can only be called by the current owner."
      }
    },
    "version": 1
  },
  "userdoc": {
    "kind": "user",
    "methods": {},
    "version": 1
  }
}