{
  "contractName": "SwapContractFactory",
  "abi": [
    {
      "anonymous": false,
      "inputs": [
        {
          "indexed": true,
          "internalType": "address",
          "name": "previousOwner",
          "type": "address"
        },
        {
          "indexed": true,
          "internalType": "address",
          "name": "newOwner",
          "type": "address"
        }
      ],
      "name": "OwnershipTransferred",
      "type": "event"
    },
    {
      "inputs": [
        {
          "internalType": "string",
          "name": "",
          "type": "string"
        }
      ],
      "name": "deployedSwapContractsRegistry",
      "outputs": [
        {
          "internalType": "address",
          "name": "swapContractAddress",
          "type": "address"
        },
        {
          "internalType": "address",
          "name": "quoteTokenAddress",
          "type": "address"
        },
        {
          "internalType": "address",
          "name": "baseTokenAddress",
          "type": "address"
        }
      ],
      "stateMutability": "view",
      "type": "function",
      "constant": true
    },
    {
      "inputs": [],
      "name": "owner",
      "outputs": [
        {
          "internalType": "address",
          "name": "",
          "type": "address"
        }
      ],
      "stateMutability": "view",
      "type": "function",
      "constant": true
    },
    {
      "inputs": [],
      "name": "renounceOwnership",
      "outputs": [],
      "stateMutability": "nonpayable",
      "type": "function"
    },
    {
      "inputs": [
        {
          "internalType": "uint256",
          "name": "",
          "type": "uint256"
        }
      ],
      "name": "swapPairs",
      "outputs": [
        {
          "internalType": "string",
          "name": "",
          "type": "string"
        }
      ],
      "stateMutability": "view",
      "type": "function",
      "constant": true
    },
    {
      "inputs": [
        {
          "internalType": "address",
          "name": "newOwner",
          "type": "address"
        }
      ],
      "name": "transferOwnership",
      "outputs": [],
      "stateMutability": "nonpayable",
      "type": "function"
    },
    {
      "inputs": [
        {
          "internalType": "contract ERC20",
          "name": "_baseToken",
          "type": "address"
        },
        {
          "internalType": "contract ERC20",
          "name": "_quoteToken",
          "type": "address"
        },
        {
          "internalType": "address",
          "name": "_exchangeRate",
          "type": "address"
        }
      ],
      "name": "deployNewSwapContract",
      "outputs": [],
      "stateMutability": "nonpayable",
      "type": "function"
    },
    {
      "inputs": [],
      "name": "getAllSwapPairs",
      "outputs": [
        {
          "internalType": "string[]",
          "name": "",
          "type": "string[]"
        }
      ],
      "stateMutability": "view",
      "type": "function",
      "constant": true
    }
  ],
  "bytecode": "0x608060405234801561001057600080fd5b5061003f61002b610044640100000000026401000000009004565b61004c640100000000026401000000009004565b610110565b600033905090565b60008060009054906101000a900473ffffffffffffffffffffffffffffffffffffffff169050816000806101000a81548173ffffffffffffffffffffffffffffffffffffffff021916908373ffffffffffffffffffffffffffffffffffffffff1602179055508173ffffffffffffffffffffffffffffffffffffffff168173ffffffffffffffffffffffffffffffffffffffff167f8be0079c531659141344cd1fd0a4f28419497f9722a3daafe3b4186f6b6457e060405160405180910390a35050565b6136e08061011f6000396000f3fe60806040523480156200001157600080fd5b5060043610620000a5576000357c0100000000000000000000000000000000000000000000000000000000900480638dc8346a11620000805780638dc8346a14620000f8578063984999991462000130578063e891749c1462000152578063f2fde38b146200018857620000a5565b806334b7173214620000aa578063715018a614620000ca5780638da5cb5b14620000d6575b600080fd5b620000c86004803603810190620000c2919062000adb565b620001a8565b005b620000d46200049d565b005b620000e06200052e565b604051620000ef919062000b48565b60405180910390f35b62000116600480360381019062000110919062000cc7565b62000557565b604051620001279392919062000d18565b60405180910390f35b6200013a620005f7565b60405162000149919062000eb8565b60405180910390f35b6200017060048036038101906200016a919062000f17565b620006da565b6040516200017f919062000f9b565b60405180910390f35b620001a66004803603810190620001a0919062000fbf565b6200078f565b005b620001b262000893565b73ffffffffffffffffffffffffffffffffffffffff16620001d26200052e565b73ffffffffffffffffffffffffffffffffffffffff16146200022b576040517f08c379a0000000000000000000000000000000000000000000000000000000008152600401620002229062001041565b60405180910390fd5b60008383836040516200023e906200095f565b6200024c93929190620010ce565b604051809103906000f08015801562000269573d6000803e3d6000fd5b50905060008173ffffffffffffffffffffffffffffffffffffffff166340794c3b6040518163ffffffff167c0100000000000000000000000000000000000000000000000000000000028152600401600060405180830381865afa158015620002d6573d6000803e3d6000fd5b505050506040513d6000823e3d601f19601f8201168201806040525081019062000301919062001189565b9050600181908060018154018082558091505060019003906000526020600020016000909190919091509080519060200190620003409291906200096d565b5060405180606001604052808373ffffffffffffffffffffffffffffffffffffffff1681526020018573ffffffffffffffffffffffffffffffffffffffff1681526020018673ffffffffffffffffffffffffffffffffffffffff16815250600282604051620003b091906200121c565b908152602001604051809103902060008201518160000160006101000a81548173ffffffffffffffffffffffffffffffffffffffff021916908373ffffffffffffffffffffffffffffffffffffffff16021790555060208201518160010160006101000a81548173ffffffffffffffffffffffffffffffffffffffff021916908373ffffffffffffffffffffffffffffffffffffffff16021790555060408201518160020160006101000a81548173ffffffffffffffffffffffffffffffffffffffff021916908373ffffffffffffffffffffffffffffffffffffffff1602179055509050505050505050565b620004a762000893565b73ffffffffffffffffffffffffffffffffffffffff16620004c76200052e565b73ffffffffffffffffffffffffffffffffffffffff161462000520576040517f08c379a0000000000000000000000000000000000000000000000000000000008152600401620005179062001041565b60405180910390fd5b6200052c60006200089b565b565b60008060009054906101000a900473ffffffffffffffffffffffffffffffffffffffff16905090565b6002818051602081018201805184825260208301602085012081835280955050505050506000915090508060000160009054906101000a900473ffffffffffffffffffffffffffffffffffffffff16908060010160009054906101000a900473ffffffffffffffffffffffffffffffffffffffff16908060020160009054906101000a900473ffffffffffffffffffffffffffffffffffffffff16905083565b60606001805480602002602001604051908101604052809291908181526020016000905b82821015620006d15783829060005260206000200180546200063d9062001264565b80601f01602080910402602001604051908101604052809291908181526020018280546200066b9062001264565b8015620006bc5780601f106200069057610100808354040283529160200191620006bc565b820191906000526020600020905b8154815290600101906020018083116200069e57829003601f168201915b5050505050815260200190600101906200061b565b50505050905090565b60018181548110620006eb57600080fd5b906000526020600020016000915090508054620007089062001264565b80601f0160208091040260200160405190810160405280929190818152602001828054620007369062001264565b8015620007875780601f106200075b5761010080835404028352916020019162000787565b820191906000526020600020905b8154815290600101906020018083116200076957829003601f168201915b505050505081565b6200079962000893565b73ffffffffffffffffffffffffffffffffffffffff16620007b96200052e565b73ffffffffffffffffffffffffffffffffffffffff161462000812576040517f08c379a0000000000000000000000000000000000000000000000000000000008152600401620008099062001041565b60405180910390fd5b600073ffffffffffffffffffffffffffffffffffffffff168173ffffffffffffffffffffffffffffffffffffffff16141562000885576040517f08c379a00000000000000000000000000000000000000000000000000000000081526004016200087c9062001310565b60405180910390fd5b62000890816200089b565b50565b600033905090565b60008060009054906101000a900473ffffffffffffffffffffffffffffffffffffffff169050816000806101000a81548173ffffffffffffffffffffffffffffffffffffffff021916908373ffffffffffffffffffffffffffffffffffffffff1602179055508173ffffffffffffffffffffffffffffffffffffffff168173ffffffffffffffffffffffffffffffffffffffff167f8be0079c531659141344cd1fd0a4f28419497f9722a3daafe3b4186f6b6457e060405160405180910390a35050565b612378806200133383390190565b8280546200097b9062001264565b90600052602060002090601f0160209004810192826200099f5760008555620009eb565b82601f10620009ba57805160ff1916838001178555620009eb565b82800160010185558215620009eb579182015b82811115620009ea578251825591602001919060010190620009cd565b5b509050620009fa9190620009fe565b5090565b5b8082111562000a19576000816000905550600101620009ff565b5090565b6000604051905090565b600080fd5b600080fd5b600073ffffffffffffffffffffffffffffffffffffffff82169050919050565b600062000a5e8262000a31565b9050919050565b600062000a728262000a51565b9050919050565b62000a848162000a65565b811462000a9057600080fd5b50565b60008135905062000aa48162000a79565b92915050565b62000ab58162000a51565b811462000ac157600080fd5b50565b60008135905062000ad58162000aaa565b92915050565b60008060006060848603121562000af75762000af662000a27565b5b600062000b078682870162000a93565b935050602062000b1a8682870162000a93565b925050604062000b2d8682870162000ac4565b9150509250925092565b62000b428162000a51565b82525050565b600060208201905062000b5f600083018462000b37565b92915050565b600080fd5b600080fd5b6000601f19601f8301169050919050565b7f4e487b7100000000000000000000000000000000000000000000000000000000600052604160045260246000fd5b62000bba8262000b6f565b810181811067ffffffffffffffff8211171562000bdc5762000bdb62000b80565b5b80604052505050565b600062000bf162000a1d565b905062000bff828262000baf565b919050565b600067ffffffffffffffff82111562000c225762000c2162000b80565b5b62000c2d8262000b6f565b9050602081019050919050565b82818337600083830152505050565b600062000c6062000c5a8462000c04565b62000be5565b90508281526020810184848401111562000c7f5762000c7e62000b6a565b5b62000c8c84828562000c3a565b509392505050565b600082601f83011262000cac5762000cab62000b65565b5b813562000cbe84826020860162000c49565b91505092915050565b60006020828403121562000ce05762000cdf62000a27565b5b600082013567ffffffffffffffff81111562000d015762000d0062000a2c565b5b62000d0f8482850162000c94565b91505092915050565b600060608201905062000d2f600083018662000b37565b62000d3e602083018562000b37565b62000d4d604083018462000b37565b949350505050565b600081519050919050565b600082825260208201905092915050565b6000819050602082019050919050565b600081519050919050565b600082825260208201905092915050565b60005b8381101562000dbd57808201518184015260208101905062000da0565b8381111562000dcd576000848401525b50505050565b600062000de08262000d81565b62000dec818562000d8c565b935062000dfe81856020860162000d9d565b62000e098162000b6f565b840191505092915050565b600062000e22838362000dd3565b905092915050565b6000602082019050919050565b600062000e448262000d55565b62000e50818562000d60565b93508360208202850162000e648562000d71565b8060005b8581101562000ea6578484038952815162000e84858262000e14565b945062000e918362000e2a565b925060208a0199505060018101905062000e68565b50829750879550505050505092915050565b6000602082019050818103600083015262000ed4818462000e37565b905092915050565b6000819050919050565b62000ef18162000edc565b811462000efd57600080fd5b50565b60008135905062000f118162000ee6565b92915050565b60006020828403121562000f305762000f2f62000a27565b5b600062000f408482850162000f00565b91505092915050565b600082825260208201905092915050565b600062000f678262000d81565b62000f73818562000f49565b935062000f8581856020860162000d9d565b62000f908162000b6f565b840191505092915050565b6000602082019050818103600083015262000fb7818462000f5a565b905092915050565b60006020828403121562000fd85762000fd762000a27565b5b600062000fe88482850162000ac4565b91505092915050565b7f4f776e61626c653a2063616c6c6572206973206e6f7420746865206f776e6572600082015250565b60006200102960208362000f49565b9150620010368262000ff1565b602082019050919050565b600060208201905081810360008301526200105c816200101a565b9050919050565b6000819050919050565b60006200108e62001088620010828462000a31565b62001063565b62000a31565b9050919050565b6000620010a2826200106d565b9050919050565b6000620010b68262001095565b9050919050565b620010c881620010a9565b82525050565b6000606082019050620010e56000830186620010bd565b620010f46020830185620010bd565b62001103604083018462000b37565b949350505050565b6000620011226200111c8462000c04565b62000be5565b90508281526020810184848401111562001141576200114062000b6a565b5b6200114e84828562000d9d565b509392505050565b600082601f8301126200116e576200116d62000b65565b5b8151620011808482602086016200110b565b91505092915050565b600060208284031215620011a257620011a162000a27565b5b600082015167ffffffffffffffff811115620011c357620011c262000a2c565b5b620011d18482850162001156565b91505092915050565b600081905092915050565b6000620011f28262000d81565b620011fe8185620011da565b93506200121081856020860162000d9d565b80840191505092915050565b60006200122a8284620011e5565b915081905092915050565b7f4e487b7100000000000000000000000000000000000000000000000000000000600052602260045260246000fd5b600060028204905060018216806200127d57607f821691505b6020821081141562001294576200129362001235565b5b50919050565b7f4f776e61626c653a206e6577206f776e657220697320746865207a65726f206160008201527f6464726573730000000000000000000000000000000000000000000000000000602082015250565b6000620012f860268362000f49565b915062001305826200129a565b604082019050919050565b600060208201905081810360008301526200132b81620012e9565b905091905056fe60806040526012600260006101000a81548160ff021916908360ff1602179055503480156200002d57600080fd5b5060405162002378380380620023788339818101604052810190620000539190620004cd565b80806000806101000a81548173ffffffffffffffffffffffffffffffffffffffff021916908373ffffffffffffffffffffffffffffffffffffffff1602179055505081600260016101000a81548173ffffffffffffffffffffffffffffffffffffffff021916908373ffffffffffffffffffffffffffffffffffffffff16021790555082600360006101000a81548173ffffffffffffffffffffffffffffffffffffffff021916908373ffffffffffffffffffffffffffffffffffffffff160217905550620002d0600360009054906101000a900473ffffffffffffffffffffffffffffffffffffffff1673ffffffffffffffffffffffffffffffffffffffff166395d89b416040518163ffffffff167c0100000000000000000000000000000000000000000000000000000000028152600401600060405180830381865afa158015620001a5573d6000803e3d6000fd5b505050506040513d6000823e3d601f19601f82011682018060405250810190620001d09190620006b2565b6040518060400160405280600181526020017f2f00000000000000000000000000000000000000000000000000000000000000815250600260019054906101000a900473ffffffffffffffffffffffffffffffffffffffff1673ffffffffffffffffffffffffffffffffffffffff166395d89b416040518163ffffffff167c0100000000000000000000000000000000000000000000000000000000028152600401600060405180830381865afa15801562000290573d6000803e3d6000fd5b505050506040513d6000823e3d601f19601f82011682018060405250810190620002bb9190620006b2565b620002f1640100000000026401000000009004565b60019080519060200190620002e79291906200035f565b50505050620007dd565b60606200032862000312858562000331640100000000026401000000009004565b8362000331640100000000026401000000009004565b90509392505050565b606082826040516020016200034892919062000750565b604051602081830303815290604052905092915050565b8280546200036d90620007a7565b90600052602060002090601f016020900481019282620003915760008555620003dd565b82601f10620003ac57805160ff1916838001178555620003dd565b82800160010185558215620003dd579182015b82811115620003dc578251825591602001919060010190620003bf565b5b509050620003ec9190620003f0565b5090565b5b808211156200040b576000816000905550600101620003f1565b5090565b6000604051905090565b600080fd5b600080fd5b600073ffffffffffffffffffffffffffffffffffffffff82169050919050565b6000620004508262000423565b9050919050565b6000620004648262000443565b9050919050565b620004768162000457565b81146200048257600080fd5b50565b60008151905062000496816200046b565b92915050565b620004a78162000443565b8114620004b357600080fd5b50565b600081519050620004c7816200049c565b92915050565b600080600060608486031215620004e957620004e862000419565b5b6000620004f98682870162000485565b93505060206200050c8682870162000485565b92505060406200051f86828701620004b6565b9150509250925092565b600080fd5b600080fd5b6000601f19601f8301169050919050565b7f4e487b7100000000000000000000000000000000000000000000000000000000600052604160045260246000fd5b6200057e8262000533565b810181811067ffffffffffffffff82111715620005a0576200059f62000544565b5b80604052505050565b6000620005b56200040f565b9050620005c3828262000573565b919050565b600067ffffffffffffffff821115620005e657620005e562000544565b5b620005f18262000533565b9050602081019050919050565b60005b838110156200061e57808201518184015260208101905062000601565b838111156200062e576000848401525b50505050565b60006200064b6200064584620005c8565b620005a9565b9050828152602081018484840111156200066a57620006696200052e565b5b62000677848285620005fe565b509392505050565b600082601f83011262000697576200069662000529565b5b8151620006a984826020860162000634565b91505092915050565b600060208284031215620006cb57620006ca62000419565b5b600082015167ffffffffffffffff811115620006ec57620006eb6200041e565b5b620006fa848285016200067f565b91505092915050565b600081519050919050565b600081905092915050565b6000620007268262000703565b6200073281856200070e565b935062000744818560208601620005fe565b80840191505092915050565b60006200075e828562000719565b91506200076c828462000719565b91508190509392505050565b7f4e487b7100000000000000000000000000000000000000000000000000000000600052602260045260246000fd5b60006002820490506001821680620007c057607f821691505b60208210811415620007d757620007d662000778565b5b50919050565b611b8b80620007ed6000396000f3fe6080604052600436106100ae576000357c0100000000000000000000000000000000000000000000000000000000900480639d0ba183116100765780639d0ba183146101ae578063ad5d203c146101eb578063c55dae6314610207578063c8a24fb114610232578063d880c3701461025d576100ae565b80630c57004a146100b3578063217a4b70146100f0578063217eb0ae1461011b57806340794c3b146101465780639b013aee14610171575b600080fd5b3480156100bf57600080fd5b506100da60048036038101906100d5919061103e565b610279565b6040516100e7919061107a565b60405180910390f35b3480156100fc57600080fd5b5061010561039c565b6040516101129190611114565b60405180910390f35b34801561012757600080fd5b506101306103c2565b60405161013d919061107a565b60405180910390f35b34801561015257600080fd5b5061015b6103f4565b60405161016891906111c8565b60405180910390f35b34801561017d57600080fd5b506101986004803603810190610193919061103e565b610482565b6040516101a5919061107a565b60405180910390f35b3480156101ba57600080fd5b506101d560048036038101906101d09190611223565b6105a5565b6040516101e29190611269565b60405180910390f35b6102056004803603810190610200919061103e565b610756565b005b34801561021357600080fd5b5061021c610958565b6040516102299190611114565b60405180910390f35b34801561023e57600080fd5b5061024761097e565b604051610254919061107a565b60405180910390f35b6102776004803603810190610272919061103e565b6109b0565b005b60008061028583610bb2565b905080836103526040518060400160405280600481526020017f41736b2000000000000000000000000000000000000000000000000000000000815250600180546102cf906112b3565b80601f01602080910402602001604051908101604052809291908181526020018280546102fb906112b3565b80156103485780601f1061031d57610100808354040283529160200191610348565b820191906000526020600020905b81548152906001019060200180831161032b57829003601f168201915b5050505050610bfb565b60405161035f9190611321565b60405180910390207f88350a00c9d980accf5486d4817c4f938edc6aa8a526efb4c9eaa7e12c69f4cb60405160405180910390a480915050919050565b600260019054906101000a900473ffffffffffffffffffffffffffffffffffffffff1681565b60006103ef600360009054906101000a900473ffffffffffffffffffffffffffffffffffffffff16610c27565b905090565b60018054610401906112b3565b80601f016020809104026020016040519081016040528092919081815260200182805461042d906112b3565b801561047a5780601f1061044f5761010080835404028352916020019161047a565b820191906000526020600020905b81548152906001019060200180831161045d57829003601f168201915b505050505081565b60008061048e83610cc6565b9050808361055b6040518060400160405280600481526020017f4269642000000000000000000000000000000000000000000000000000000000815250600180546104d8906112b3565b80601f0160208091040260200160405190810160405280929190818152602001828054610504906112b3565b80156105515780601f1061052657610100808354040283529160200191610551565b820191906000526020600020905b81548152906001019060200180831161053457829003601f168201915b5050505050610bfb565b6040516105689190611321565b60405180910390207f88350a00c9d980accf5486d4817c4f938edc6aa8a526efb4c9eaa7e12c69f4cb60405160405180910390a480915050919050565b60008060008060009054906101000a900473ffffffffffffffffffffffffffffffffffffffff1673ffffffffffffffffffffffffffffffffffffffff1663feaf968c6040518163ffffffff167c010000000000000000000000000000000000000000000000000000000002815260040160a060405180830381865afa158015610632573d6000803e3d6000fd5b505050506040513d601f19601f8201168201806040525081019061065691906113bb565b5093505092505060008060009054906101000a900473ffffffffffffffffffffffffffffffffffffffff1673ffffffffffffffffffffffffffffffffffffffff1663313ce5676040518163ffffffff167c0100000000000000000000000000000000000000000000000000000000028152600401602060405180830381865afa1580156106e7573d6000803e3d6000fd5b505050506040513d601f19601f8201168201806040525081019061070b919061144b565b9050600061071a848388610d0f565b905082817fb6c1393c2251d5f83b6b4923759cf156e72f269dc654f872eab19c92b853cf5e60405160405180910390a380945050505050919050565b610767610761610d92565b82610d9a565b600061077282610279565b905061077e3082610dcb565b600360009054906101000a900473ffffffffffffffffffffffffffffffffffffffff1673ffffffffffffffffffffffffffffffffffffffff166323b872dd6107c4610d92565b30856040518463ffffffff167c010000000000000000000000000000000000000000000000000000000002815260040161080093929190611499565b6020604051808303816000875af115801561081f573d6000803e3d6000fd5b505050506040513d601f19601f820116820180604052508101906108439190611508565b50600260019054906101000a900473ffffffffffffffffffffffffffffffffffffffff1673ffffffffffffffffffffffffffffffffffffffff1663a9059cbb61088a610d92565b836040518363ffffffff167c01000000000000000000000000000000000000000000000000000000000281526004016108c4929190611535565b6020604051808303816000875af11580156108e3573d6000803e3d6000fd5b505050506040513d601f19601f820116820180604052508101906109079190611508565b508034610912610d92565b73ffffffffffffffffffffffffffffffffffffffff167f42daeb9fe1f789384a4e1fd40506a3a12cec73b4c4ea3302b3c501c8e044aebb60405160405180910390a45050565b600360009054906101000a900473ffffffffffffffffffffffffffffffffffffffff1681565b60006109ab600260019054906101000a900473ffffffffffffffffffffffffffffffffffffffff16610c27565b905090565b6109c16109bb610d92565b82610dcb565b60006109cc82610482565b90506109d83082610d9a565b600260019054906101000a900473ffffffffffffffffffffffffffffffffffffffff1673ffffffffffffffffffffffffffffffffffffffff166323b872dd610a1e610d92565b30856040518463ffffffff167c0100000000000000000000000000000000000000000000000000000000028152600401610a5a93929190611499565b6020604051808303816000875af1158015610a79573d6000803e3d6000fd5b505050506040513d601f19601f82011682018060405250810190610a9d9190611508565b50600360009054906101000a900473ffffffffffffffffffffffffffffffffffffffff1673ffffffffffffffffffffffffffffffffffffffff1663a9059cbb610ae4610d92565b836040518363ffffffff167c0100000000000000000000000000000000000000000000000000000000028152600401610b1e929190611535565b6020604051808303816000875af1158015610b3d573d6000803e3d6000fd5b505050506040513d601f19601f82011682018060405250810190610b619190611508565b508082610b6c610d92565b73ffffffffffffffffffffffffffffffffffffffff167f42daeb9fe1f789384a4e1fd40506a3a12cec73b4c4ea3302b3c501c8e044aebb60405160405180910390a45050565b600080610bcd600260009054906101000a900460ff166105a5565b905080610be984600260009054906101000a900460ff16610dfc565b610bf3919061158d565b915050919050565b60608282604051602001610c109291906115e7565b604051602081830303815290604052905092915050565b60008173ffffffffffffffffffffffffffffffffffffffff166370a08231306040518263ffffffff167c0100000000000000000000000000000000000000000000000000000000028152600401610c7e919061160b565b602060405180830381865afa158015610c9b573d6000803e3d6000fd5b505050506040513d601f19601f82011682018060405250810190610cbf9190611626565b9050919050565b600080610ce1600260009054906101000a900460ff166105a5565b905080610cfd84600260009054906101000a900460ff16610e21565b610d079190611682565b915050919050565b60008160ff168360ff161015610d4c578282610d2b91906116b3565b60ff16600a610d3a919061181a565b84610d459190611865565b9050610d8b565b8160ff168360ff161115610d87578183610d6691906116b3565b60ff16600a610d75919061181a565b84610d80919061197c565b9050610d8b565b8390505b9392505050565b600033905090565b610dc7600360009054906101000a900473ffffffffffffffffffffffffffffffffffffffff168383610e46565b5050565b610df8600260019054906101000a900473ffffffffffffffffffffffffffffffffffffffff168383610e46565b5050565b60008160ff16600a610e0e919061181a565b83610e199190611682565b905092915050565b60008160ff16600a610e33919061181a565b83610e3e919061158d565b905092915050565b808373ffffffffffffffffffffffffffffffffffffffff166370a08231846040518263ffffffff167c0100000000000000000000000000000000000000000000000000000000028152600401610e9c919061160b565b602060405180830381865afa158015610eb9573d6000803e3d6000fd5b505050506040513d601f19601f82011682018060405250810190610edd9190611626565b1015610fad6040518060400160405280600b81526020017f4e6f7420656e6f756768200000000000000000000000000000000000000000008152508573ffffffffffffffffffffffffffffffffffffffff166395d89b416040518163ffffffff167c0100000000000000000000000000000000000000000000000000000000028152600401600060405180830381865afa158015610f7f573d6000803e3d6000fd5b505050506040513d6000823e3d601f19601f82011682018060405250810190610fa89190611b0c565b610bfb565b90610fee576040517f08c379a0000000000000000000000000000000000000000000000000000000008152600401610fe591906111c8565b60405180910390fd5b50505050565b6000604051905090565b600080fd5b600080fd5b6000819050919050565b61101b81611008565b811461102657600080fd5b50565b60008135905061103881611012565b92915050565b60006020828403121561105457611053610ffe565b5b600061106284828501611029565b91505092915050565b61107481611008565b82525050565b600060208201905061108f600083018461106b565b92915050565b600073ffffffffffffffffffffffffffffffffffffffff82169050919050565b6000819050919050565b60006110da6110d56110d084611095565b6110b5565b611095565b9050919050565b60006110ec826110bf565b9050919050565b60006110fe826110e1565b9050919050565b61110e816110f3565b82525050565b60006020820190506111296000830184611105565b92915050565b600081519050919050565b600082825260208201905092915050565b60005b8381101561116957808201518184015260208101905061114e565b83811115611178576000848401525b50505050565b6000601f19601f8301169050919050565b600061119a8261112f565b6111a4818561113a565b93506111b481856020860161114b565b6111bd8161117e565b840191505092915050565b600060208201905081810360008301526111e2818461118f565b905092915050565b600060ff82169050919050565b611200816111ea565b811461120b57600080fd5b50565b60008135905061121d816111f7565b92915050565b60006020828403121561123957611238610ffe565b5b60006112478482850161120e565b91505092915050565b6000819050919050565b61126381611250565b82525050565b600060208201905061127e600083018461125a565b92915050565b7f4e487b7100000000000000000000000000000000000000000000000000000000600052602260045260246000fd5b600060028204905060018216806112cb57607f821691505b602082108114156112df576112de611284565b5b50919050565b600081905092915050565b60006112fb8261112f565b61130581856112e5565b935061131581856020860161114b565b80840191505092915050565b600061132d82846112f0565b915081905092915050565b600069ffffffffffffffffffff82169050919050565b61135781611338565b811461136257600080fd5b50565b6000815190506113748161134e565b92915050565b61138381611250565b811461138e57600080fd5b50565b6000815190506113a08161137a565b92915050565b6000815190506113b581611012565b92915050565b600080600080600060a086880312156113d7576113d6610ffe565b5b60006113e588828901611365565b95505060206113f688828901611391565b9450506040611407888289016113a6565b9350506060611418888289016113a6565b925050608061142988828901611365565b9150509295509295909350565b600081519050611445816111f7565b92915050565b60006020828403121561146157611460610ffe565b5b600061146f84828501611436565b91505092915050565b600061148382611095565b9050919050565b61149381611478565b82525050565b60006060820190506114ae600083018661148a565b6114bb602083018561148a565b6114c8604083018461106b565b949350505050565b60008115159050919050565b6114e5816114d0565b81146114f057600080fd5b50565b600081519050611502816114dc565b92915050565b60006020828403121561151e5761151d610ffe565b5b600061152c848285016114f3565b91505092915050565b600060408201905061154a600083018561148a565b611557602083018461106b565b9392505050565b7f4e487b7100000000000000000000000000000000000000000000000000000000600052601160045260246000fd5b600061159882611008565b91506115a383611008565b9250817fffffffffffffffffffffffffffffffffffffffffffffffffffffffffffffffff04831182151516156115dc576115db61155e565b5b828202905092915050565b60006115f382856112f0565b91506115ff82846112f0565b91508190509392505050565b6000602082019050611620600083018461148a565b92915050565b60006020828403121561163c5761163b610ffe565b5b600061164a848285016113a6565b91505092915050565b7f4e487b7100000000000000000000000000000000000000000000000000000000600052601260045260246000fd5b600061168d82611008565b915061169883611008565b9250826116a8576116a7611653565b5b828204905092915050565b60006116be826111ea565b91506116c9836111ea565b9250828210156116dc576116db61155e565b5b828203905092915050565b6000600282049050919050565b6000808291508390505b600185111561173e5780860481111561171a5761171961155e565b5b60018516156117295780820291505b8081029050611737856116e7565b94506116fe565b94509492505050565b6000826117575760019050611813565b816117655760009050611813565b816001811461177b5760028114611785576117b4565b6001915050611813565b60ff8411156117975761179661155e565b5b8360020a9150848211156117ae576117ad61155e565b5b50611813565b5060208310610133831016604e8410600b84101617156117e95782820a9050838111156117e4576117e361155e565b5b611813565b6117f684848460016116f4565b9250905081840481111561180d5761180c61155e565b5b81810290505b9392505050565b600061182582611008565b915061183083611008565b925061185d7fffffffffffffffffffffffffffffffffffffffffffffffffffffffffffffffff8484611747565b905092915050565b600061187082611250565b915061187b83611250565b9250827f7fffffffffffffffffffffffffffffffffffffffffffffffffffffffffffffff04821160008413600084131616156118ba576118b961155e565b5b817f800000000000000000000000000000000000000000000000000000000000000005831260008412600084131616156118f7576118f661155e565b5b827f800000000000000000000000000000000000000000000000000000000000000005821260008413600084121616156119345761193361155e565b5b827f7fffffffffffffffffffffffffffffffffffffffffffffffffffffffffffffff05821260008412600084121616156119715761197061155e565b5b828202905092915050565b600061198782611250565b915061199283611250565b9250826119a2576119a1611653565b5b600160000383147f8000000000000000000000000000000000000000000000000000000000000000831416156119db576119da61155e565b5b828205905092915050565b600080fd5b600080fd5b7f4e487b7100000000000000000000000000000000000000000000000000000000600052604160045260246000fd5b611a288261117e565b810181811067ffffffffffffffff82111715611a4757611a466119f0565b5b80604052505050565b6000611a5a610ff4565b9050611a668282611a1f565b919050565b600067ffffffffffffffff821115611a8657611a856119f0565b5b611a8f8261117e565b9050602081019050919050565b6000611aaf611aaa84611a6b565b611a50565b905082815260208101848484011115611acb57611aca6119eb565b5b611ad684828561114b565b509392505050565b600082601f830112611af357611af26119e6565b5b8151611b03848260208601611a9c565b91505092915050565b600060208284031215611b2257611b21610ffe565b5b600082015167ffffffffffffffff811115611b4057611b3f611003565b5b611b4c84828501611ade565b9150509291505056fea26469706673582212207e8650539898fbaaf72770b54173a0e21b837531d796873189fec5547a10c38064736f6c634300080b0033a2646970667358221220f812ded12748382e10b3ef371501d0949a29ea296e6394409275bb2aa66a01eb64736f6c634300080b0033",
  "immutableReferences": {},
  "source": "// SPDX-License-Identifier: MIT\n\npragma solidity ^0.8.11;\n\nimport \"./SatiToken.sol\";\nimport \"./Utils.sol\";\nimport \"@openzeppelin/contracts/access/Ownable.sol\";\nimport \"@openzeppelin/contracts/token/ERC20/ERC20.sol\";\nimport \"./ERC20TokensSwap.sol\";\n\ncontract SwapContractFactory is Ownable, Utils {\n    struct SwapCAndTokenAddresses {\n        address swapContractAddress;\n        address quoteTokenAddress;\n        address baseTokenAddress;\n    }\n\n    string[] public swapPairs;\n    mapping(string => SwapCAndTokenAddresses)\n        public deployedSwapContractsRegistry;\n\n    function deployNewSwapContract(\n        ERC20 _baseToken,\n        ERC20 _quoteToken,\n        address _exchangeRate\n    ) external onlyOwner {\n        ERC20TokensSwap swapContract = new ERC20TokensSwap(\n            _baseToken,\n            _quoteToken,\n            _exchangeRate\n        );\n\n        string memory deployedPair = swapContract.pairName();\n\n        swapPairs.push(deployedPair);\n\n        deployedSwapContractsRegistry[deployedPair] = SwapCAndTokenAddresses({\n            swapContractAddress: address(swapContract),\n            quoteTokenAddress: address(_quoteToken),\n            baseTokenAddress: address(_baseToken)\n        });\n    }\n\n    function getAllSwapPairs() external view returns (string[] memory) {\n        return swapPairs;\n    }\n}\n",
  "sourcePath": "/Users/bmarquis/Crypto/solidity-swap-exchange/contracts/source/SwapContractFactory.sol",
  "compiler": {
    "name": "solc",
    "version": "0.8.11+commit.d7f03943.Emscripten.clang"
  },
  "schemaVersion": "3.4.6",
  "updatedAt": "2022-03-18T21:53:36.405Z",
  "networkType": "ethereum",
  "devdoc": {
    "kind": "dev",
    "methods": {
      "owner()": {
        "details": "Returns the address of the current owner."
      },
      "renounceOwnership()": {
        "details": "Leaves the contract without owner. It will not be possible to call `onlyOwner` functions anymore. Can only be called by the current owner. NOTE: Renouncing ownership will leave the contract without an owner, thereby removing any functionality that is only available to the owner."
      },
      "transferOwnership(address)": {
        "details": "Transfers ownership of the contract to a new account (`newOwner`). Can only be called by the current owner."
      }
    },
    "version": 1
  },
  "userdoc": {
    "kind": "user",
    "methods": {},
    "version": 1
  }
}