{
  "contractName": "ERC20TokensSwap",
  "abi": [
    {
      "inputs": [
        {
          "internalType": "contract ERC20",
          "name": "_baseToken",
          "type": "address"
        },
        {
          "internalType": "contract ERC20",
          "name": "_quoteToken",
          "type": "address"
        },
        {
          "internalType": "address",
          "name": "_exchangeRate",
          "type": "address"
        }
      ],
      "stateMutability": "nonpayable",
      "type": "constructor"
    },
    {
      "anonymous": false,
      "inputs": [
        {
          "indexed": true,
          "internalType": "int256",
          "name": "scaledPrice",
          "type": "int256"
        },
        {
          "indexed": true,
          "internalType": "uint256",
          "name": "timeStamp",
          "type": "uint256"
        }
      ],
      "name": "Rate",
      "type": "event"
    },
    {
      "anonymous": false,
      "inputs": [
        {
          "indexed": true,
          "internalType": "string",
          "name": "exchangeType",
          "type": "string"
        },
        {
          "indexed": true,
          "internalType": "uint256",
          "name": "sellingAmount",
          "type": "uint256"
        },
        {
          "indexed": true,
          "internalType": "uint256",
          "name": "buyingAmount",
          "type": "uint256"
        }
      ],
      "name": "SwapRateInfo",
      "type": "event"
    },
    {
      "anonymous": false,
      "inputs": [
        {
          "indexed": true,
          "internalType": "address",
          "name": "beneficiary",
          "type": "address"
        },
        {
          "indexed": true,
          "internalType": "uint256",
          "name": "amountSent",
          "type": "uint256"
        },
        {
          "indexed": true,
          "internalType": "uint256",
          "name": "amountReceived",
          "type": "uint256"
        }
      ],
      "name": "SwapTransferInfo",
      "type": "event"
    },
    {
      "inputs": [],
      "name": "baseToken",
      "outputs": [
        {
          "internalType": "contract ERC20",
          "name": "",
          "type": "address"
        }
      ],
      "stateMutability": "view",
      "type": "function"
    },
    {
      "inputs": [
        {
          "internalType": "uint8",
          "name": "_scalingDecimal",
          "type": "uint8"
        }
      ],
      "name": "getScaledRate",
      "outputs": [
        {
          "internalType": "int256",
          "name": "",
          "type": "int256"
        }
      ],
      "stateMutability": "nonpayable",
      "type": "function"
    },
    {
      "inputs": [],
      "name": "pairName",
      "outputs": [
        {
          "internalType": "string",
          "name": "",
          "type": "string"
        }
      ],
      "stateMutability": "view",
      "type": "function"
    },
    {
      "inputs": [],
      "name": "quoteToken",
      "outputs": [
        {
          "internalType": "contract ERC20",
          "name": "",
          "type": "address"
        }
      ],
      "stateMutability": "view",
      "type": "function"
    },
    {
      "inputs": [],
      "name": "getAvailableBaseTokenLiquidity",
      "outputs": [
        {
          "internalType": "uint256",
          "name": "",
          "type": "uint256"
        }
      ],
      "stateMutability": "view",
      "type": "function"
    },
    {
      "inputs": [],
      "name": "getAvailableQuoteTokenLiquidity",
      "outputs": [
        {
          "internalType": "uint256",
          "name": "",
          "type": "uint256"
        }
      ],
      "stateMutability": "view",
      "type": "function"
    },
    {
      "inputs": [
        {
          "internalType": "uint256",
          "name": "_quoteTokenAmount",
          "type": "uint256"
        }
      ],
      "name": "getBidPrice",
      "outputs": [
        {
          "internalType": "uint256",
          "name": "",
          "type": "uint256"
        }
      ],
      "stateMutability": "nonpayable",
      "type": "function"
    },
    {
      "inputs": [
        {
          "internalType": "uint256",
          "name": "_quoteTokenAmount",
          "type": "uint256"
        }
      ],
      "name": "swapQuoteForBaseToken",
      "outputs": [],
      "stateMutability": "payable",
      "type": "function"
    },
    {
      "inputs": [
        {
          "internalType": "uint256",
          "name": "_baseTokenAmount",
          "type": "uint256"
        }
      ],
      "name": "getAskPrice",
      "outputs": [
        {
          "internalType": "uint256",
          "name": "",
          "type": "uint256"
        }
      ],
      "stateMutability": "nonpayable",
      "type": "function"
    },
    {
      "inputs": [
        {
          "internalType": "uint256",
          "name": "_baseTokenAmount",
          "type": "uint256"
        }
      ],
      "name": "swapBaseForQuoteToken",
      "outputs": [],
      "stateMutability": "payable",
      "type": "function"
    }
  ],
  "bytecode": "0x60806040526012600260006101000a81548160ff021916908360ff1602179055503480156200002d57600080fd5b5060405162002378380380620023788339818101604052810190620000539190620004cd565b80806000806101000a81548173ffffffffffffffffffffffffffffffffffffffff021916908373ffffffffffffffffffffffffffffffffffffffff1602179055505081600260016101000a81548173ffffffffffffffffffffffffffffffffffffffff021916908373ffffffffffffffffffffffffffffffffffffffff16021790555082600360006101000a81548173ffffffffffffffffffffffffffffffffffffffff021916908373ffffffffffffffffffffffffffffffffffffffff160217905550620002d0600360009054906101000a900473ffffffffffffffffffffffffffffffffffffffff1673ffffffffffffffffffffffffffffffffffffffff166395d89b416040518163ffffffff167c0100000000000000000000000000000000000000000000000000000000028152600401600060405180830381865afa158015620001a5573d6000803e3d6000fd5b505050506040513d6000823e3d601f19601f82011682018060405250810190620001d09190620006b2565b6040518060400160405280600181526020017f2f00000000000000000000000000000000000000000000000000000000000000815250600260019054906101000a900473ffffffffffffffffffffffffffffffffffffffff1673ffffffffffffffffffffffffffffffffffffffff166395d89b416040518163ffffffff167c0100000000000000000000000000000000000000000000000000000000028152600401600060405180830381865afa15801562000290573d6000803e3d6000fd5b505050506040513d6000823e3d601f19601f82011682018060405250810190620002bb9190620006b2565b620002f1640100000000026401000000009004565b60019080519060200190620002e79291906200035f565b50505050620007dd565b60606200032862000312858562000331640100000000026401000000009004565b8362000331640100000000026401000000009004565b90509392505050565b606082826040516020016200034892919062000750565b604051602081830303815290604052905092915050565b8280546200036d90620007a7565b90600052602060002090601f016020900481019282620003915760008555620003dd565b82601f10620003ac57805160ff1916838001178555620003dd565b82800160010185558215620003dd579182015b82811115620003dc578251825591602001919060010190620003bf565b5b509050620003ec9190620003f0565b5090565b5b808211156200040b576000816000905550600101620003f1565b5090565b6000604051905090565b600080fd5b600080fd5b600073ffffffffffffffffffffffffffffffffffffffff82169050919050565b6000620004508262000423565b9050919050565b6000620004648262000443565b9050919050565b620004768162000457565b81146200048257600080fd5b50565b60008151905062000496816200046b565b92915050565b620004a78162000443565b8114620004b357600080fd5b50565b600081519050620004c7816200049c565b92915050565b600080600060608486031215620004e957620004e862000419565b5b6000620004f98682870162000485565b93505060206200050c8682870162000485565b92505060406200051f86828701620004b6565b9150509250925092565b600080fd5b600080fd5b6000601f19601f8301169050919050565b7f4e487b7100000000000000000000000000000000000000000000000000000000600052604160045260246000fd5b6200057e8262000533565b810181811067ffffffffffffffff82111715620005a0576200059f62000544565b5b80604052505050565b6000620005b56200040f565b9050620005c3828262000573565b919050565b600067ffffffffffffffff821115620005e657620005e562000544565b5b620005f18262000533565b9050602081019050919050565b60005b838110156200061e57808201518184015260208101905062000601565b838111156200062e576000848401525b50505050565b60006200064b6200064584620005c8565b620005a9565b9050828152602081018484840111156200066a57620006696200052e565b5b62000677848285620005fe565b509392505050565b600082601f83011262000697576200069662000529565b5b8151620006a984826020860162000634565b91505092915050565b600060208284031215620006cb57620006ca62000419565b5b600082015167ffffffffffffffff811115620006ec57620006eb6200041e565b5b620006fa848285016200067f565b91505092915050565b600081519050919050565b600081905092915050565b6000620007268262000703565b6200073281856200070e565b935062000744818560208601620005fe565b80840191505092915050565b60006200075e828562000719565b91506200076c828462000719565b91508190509392505050565b7f4e487b7100000000000000000000000000000000000000000000000000000000600052602260045260246000fd5b60006002820490506001821680620007c057607f821691505b60208210811415620007d757620007d662000778565b5b50919050565b611b8b80620007ed6000396000f3fe6080604052600436106100ae576000357c0100000000000000000000000000000000000000000000000000000000900480639d0ba183116100765780639d0ba183146101ae578063ad5d203c146101eb578063c55dae6314610207578063c8a24fb114610232578063d880c3701461025d576100ae565b80630c57004a146100b3578063217a4b70146100f0578063217eb0ae1461011b57806340794c3b146101465780639b013aee14610171575b600080fd5b3480156100bf57600080fd5b506100da60048036038101906100d5919061103e565b610279565b6040516100e7919061107a565b60405180910390f35b3480156100fc57600080fd5b5061010561039c565b6040516101129190611114565b60405180910390f35b34801561012757600080fd5b506101306103c2565b60405161013d919061107a565b60405180910390f35b34801561015257600080fd5b5061015b6103f4565b60405161016891906111c8565b60405180910390f35b34801561017d57600080fd5b506101986004803603810190610193919061103e565b610482565b6040516101a5919061107a565b60405180910390f35b3480156101ba57600080fd5b506101d560048036038101906101d09190611223565b6105a5565b6040516101e29190611269565b60405180910390f35b6102056004803603810190610200919061103e565b610756565b005b34801561021357600080fd5b5061021c610958565b6040516102299190611114565b60405180910390f35b34801561023e57600080fd5b5061024761097e565b604051610254919061107a565b60405180910390f35b6102776004803603810190610272919061103e565b6109b0565b005b60008061028583610bb2565b905080836103526040518060400160405280600481526020017f41736b2000000000000000000000000000000000000000000000000000000000815250600180546102cf906112b3565b80601f01602080910402602001604051908101604052809291908181526020018280546102fb906112b3565b80156103485780601f1061031d57610100808354040283529160200191610348565b820191906000526020600020905b81548152906001019060200180831161032b57829003601f168201915b5050505050610bfb565b60405161035f9190611321565b60405180910390207f88350a00c9d980accf5486d4817c4f938edc6aa8a526efb4c9eaa7e12c69f4cb60405160405180910390a480915050919050565b600260019054906101000a900473ffffffffffffffffffffffffffffffffffffffff1681565b60006103ef600360009054906101000a900473ffffffffffffffffffffffffffffffffffffffff16610c27565b905090565b60018054610401906112b3565b80601f016020809104026020016040519081016040528092919081815260200182805461042d906112b3565b801561047a5780601f1061044f5761010080835404028352916020019161047a565b820191906000526020600020905b81548152906001019060200180831161045d57829003601f168201915b505050505081565b60008061048e83610cc6565b9050808361055b6040518060400160405280600481526020017f4269642000000000000000000000000000000000000000000000000000000000815250600180546104d8906112b3565b80601f0160208091040260200160405190810160405280929190818152602001828054610504906112b3565b80156105515780601f1061052657610100808354040283529160200191610551565b820191906000526020600020905b81548152906001019060200180831161053457829003601f168201915b5050505050610bfb565b6040516105689190611321565b60405180910390207f88350a00c9d980accf5486d4817c4f938edc6aa8a526efb4c9eaa7e12c69f4cb60405160405180910390a480915050919050565b60008060008060009054906101000a900473ffffffffffffffffffffffffffffffffffffffff1673ffffffffffffffffffffffffffffffffffffffff1663feaf968c6040518163ffffffff167c010000000000000000000000000000000000000000000000000000000002815260040160a060405180830381865afa158015610632573d6000803e3d6000fd5b505050506040513d601f19601f8201168201806040525081019061065691906113bb565b5093505092505060008060009054906101000a900473ffffffffffffffffffffffffffffffffffffffff1673ffffffffffffffffffffffffffffffffffffffff1663313ce5676040518163ffffffff167c0100000000000000000000000000000000000000000000000000000000028152600401602060405180830381865afa1580156106e7573d6000803e3d6000fd5b505050506040513d601f19601f8201168201806040525081019061070b919061144b565b9050600061071a848388610d0f565b905082817fb6c1393c2251d5f83b6b4923759cf156e72f269dc654f872eab19c92b853cf5e60405160405180910390a380945050505050919050565b610767610761610d92565b82610d9a565b600061077282610279565b905061077e3082610dcb565b600360009054906101000a900473ffffffffffffffffffffffffffffffffffffffff1673ffffffffffffffffffffffffffffffffffffffff166323b872dd6107c4610d92565b30856040518463ffffffff167c010000000000000000000000000000000000000000000000000000000002815260040161080093929190611499565b6020604051808303816000875af115801561081f573d6000803e3d6000fd5b505050506040513d601f19601f820116820180604052508101906108439190611508565b50600260019054906101000a900473ffffffffffffffffffffffffffffffffffffffff1673ffffffffffffffffffffffffffffffffffffffff1663a9059cbb61088a610d92565b836040518363ffffffff167c01000000000000000000000000000000000000000000000000000000000281526004016108c4929190611535565b6020604051808303816000875af11580156108e3573d6000803e3d6000fd5b505050506040513d601f19601f820116820180604052508101906109079190611508565b508034610912610d92565b73ffffffffffffffffffffffffffffffffffffffff167f42daeb9fe1f789384a4e1fd40506a3a12cec73b4c4ea3302b3c501c8e044aebb60405160405180910390a45050565b600360009054906101000a900473ffffffffffffffffffffffffffffffffffffffff1681565b60006109ab600260019054906101000a900473ffffffffffffffffffffffffffffffffffffffff16610c27565b905090565b6109c16109bb610d92565b82610dcb565b60006109cc82610482565b90506109d83082610d9a565b600260019054906101000a900473ffffffffffffffffffffffffffffffffffffffff1673ffffffffffffffffffffffffffffffffffffffff166323b872dd610a1e610d92565b30856040518463ffffffff167c0100000000000000000000000000000000000000000000000000000000028152600401610a5a93929190611499565b6020604051808303816000875af1158015610a79573d6000803e3d6000fd5b505050506040513d601f19601f82011682018060405250810190610a9d9190611508565b50600360009054906101000a900473ffffffffffffffffffffffffffffffffffffffff1673ffffffffffffffffffffffffffffffffffffffff1663a9059cbb610ae4610d92565b836040518363ffffffff167c0100000000000000000000000000000000000000000000000000000000028152600401610b1e929190611535565b6020604051808303816000875af1158015610b3d573d6000803e3d6000fd5b505050506040513d601f19601f82011682018060405250810190610b619190611508565b508082610b6c610d92565b73ffffffffffffffffffffffffffffffffffffffff167f42daeb9fe1f789384a4e1fd40506a3a12cec73b4c4ea3302b3c501c8e044aebb60405160405180910390a45050565b600080610bcd600260009054906101000a900460ff166105a5565b905080610be984600260009054906101000a900460ff16610dfc565b610bf3919061158d565b915050919050565b60608282604051602001610c109291906115e7565b604051602081830303815290604052905092915050565b60008173ffffffffffffffffffffffffffffffffffffffff166370a08231306040518263ffffffff167c0100000000000000000000000000000000000000000000000000000000028152600401610c7e919061160b565b602060405180830381865afa158015610c9b573d6000803e3d6000fd5b505050506040513d601f19601f82011682018060405250810190610cbf9190611626565b9050919050565b600080610ce1600260009054906101000a900460ff166105a5565b905080610cfd84600260009054906101000a900460ff16610e21565b610d079190611682565b915050919050565b60008160ff168360ff161015610d4c578282610d2b91906116b3565b60ff16600a610d3a919061181a565b84610d459190611865565b9050610d8b565b8160ff168360ff161115610d87578183610d6691906116b3565b60ff16600a610d75919061181a565b84610d80919061197c565b9050610d8b565b8390505b9392505050565b600033905090565b610dc7600360009054906101000a900473ffffffffffffffffffffffffffffffffffffffff168383610e46565b5050565b610df8600260019054906101000a900473ffffffffffffffffffffffffffffffffffffffff168383610e46565b5050565b60008160ff16600a610e0e919061181a565b83610e199190611682565b905092915050565b60008160ff16600a610e33919061181a565b83610e3e919061158d565b905092915050565b808373ffffffffffffffffffffffffffffffffffffffff166370a08231846040518263ffffffff167c0100000000000000000000000000000000000000000000000000000000028152600401610e9c919061160b565b602060405180830381865afa158015610eb9573d6000803e3d6000fd5b505050506040513d601f19601f82011682018060405250810190610edd9190611626565b1015610fad6040518060400160405280600b81526020017f4e6f7420656e6f756768200000000000000000000000000000000000000000008152508573ffffffffffffffffffffffffffffffffffffffff166395d89b416040518163ffffffff167c0100000000000000000000000000000000000000000000000000000000028152600401600060405180830381865afa158015610f7f573d6000803e3d6000fd5b505050506040513d6000823e3d601f19601f82011682018060405250810190610fa89190611b0c565b610bfb565b90610fee576040517f08c379a0000000000000000000000000000000000000000000000000000000008152600401610fe591906111c8565b60405180910390fd5b50505050565b6000604051905090565b600080fd5b600080fd5b6000819050919050565b61101b81611008565b811461102657600080fd5b50565b60008135905061103881611012565b92915050565b60006020828403121561105457611053610ffe565b5b600061106284828501611029565b91505092915050565b61107481611008565b82525050565b600060208201905061108f600083018461106b565b92915050565b600073ffffffffffffffffffffffffffffffffffffffff82169050919050565b6000819050919050565b60006110da6110d56110d084611095565b6110b5565b611095565b9050919050565b60006110ec826110bf565b9050919050565b60006110fe826110e1565b9050919050565b61110e816110f3565b82525050565b60006020820190506111296000830184611105565b92915050565b600081519050919050565b600082825260208201905092915050565b60005b8381101561116957808201518184015260208101905061114e565b83811115611178576000848401525b50505050565b6000601f19601f8301169050919050565b600061119a8261112f565b6111a4818561113a565b93506111b481856020860161114b565b6111bd8161117e565b840191505092915050565b600060208201905081810360008301526111e2818461118f565b905092915050565b600060ff82169050919050565b611200816111ea565b811461120b57600080fd5b50565b60008135905061121d816111f7565b92915050565b60006020828403121561123957611238610ffe565b5b60006112478482850161120e565b91505092915050565b6000819050919050565b61126381611250565b82525050565b600060208201905061127e600083018461125a565b92915050565b7f4e487b7100000000000000000000000000000000000000000000000000000000600052602260045260246000fd5b600060028204905060018216806112cb57607f821691505b602082108114156112df576112de611284565b5b50919050565b600081905092915050565b60006112fb8261112f565b61130581856112e5565b935061131581856020860161114b565b80840191505092915050565b600061132d82846112f0565b915081905092915050565b600069ffffffffffffffffffff82169050919050565b61135781611338565b811461136257600080fd5b50565b6000815190506113748161134e565b92915050565b61138381611250565b811461138e57600080fd5b50565b6000815190506113a08161137a565b92915050565b6000815190506113b581611012565b92915050565b600080600080600060a086880312156113d7576113d6610ffe565b5b60006113e588828901611365565b95505060206113f688828901611391565b9450506040611407888289016113a6565b9350506060611418888289016113a6565b925050608061142988828901611365565b9150509295509295909350565b600081519050611445816111f7565b92915050565b60006020828403121561146157611460610ffe565b5b600061146f84828501611436565b91505092915050565b600061148382611095565b9050919050565b61149381611478565b82525050565b60006060820190506114ae600083018661148a565b6114bb602083018561148a565b6114c8604083018461106b565b949350505050565b60008115159050919050565b6114e5816114d0565b81146114f057600080fd5b50565b600081519050611502816114dc565b92915050565b60006020828403121561151e5761151d610ffe565b5b600061152c848285016114f3565b91505092915050565b600060408201905061154a600083018561148a565b611557602083018461106b565b9392505050565b7f4e487b7100000000000000000000000000000000000000000000000000000000600052601160045260246000fd5b600061159882611008565b91506115a383611008565b9250817fffffffffffffffffffffffffffffffffffffffffffffffffffffffffffffffff04831182151516156115dc576115db61155e565b5b828202905092915050565b60006115f382856112f0565b91506115ff82846112f0565b91508190509392505050565b6000602082019050611620600083018461148a565b92915050565b60006020828403121561163c5761163b610ffe565b5b600061164a848285016113a6565b91505092915050565b7f4e487b7100000000000000000000000000000000000000000000000000000000600052601260045260246000fd5b600061168d82611008565b915061169883611008565b9250826116a8576116a7611653565b5b828204905092915050565b60006116be826111ea565b91506116c9836111ea565b9250828210156116dc576116db61155e565b5b828203905092915050565b6000600282049050919050565b6000808291508390505b600185111561173e5780860481111561171a5761171961155e565b5b60018516156117295780820291505b8081029050611737856116e7565b94506116fe565b94509492505050565b6000826117575760019050611813565b816117655760009050611813565b816001811461177b5760028114611785576117b4565b6001915050611813565b60ff8411156117975761179661155e565b5b8360020a9150848211156117ae576117ad61155e565b5b50611813565b5060208310610133831016604e8410600b84101617156117e95782820a9050838111156117e4576117e361155e565b5b611813565b6117f684848460016116f4565b9250905081840481111561180d5761180c61155e565b5b81810290505b9392505050565b600061182582611008565b915061183083611008565b925061185d7fffffffffffffffffffffffffffffffffffffffffffffffffffffffffffffffff8484611747565b905092915050565b600061187082611250565b915061187b83611250565b9250827f7fffffffffffffffffffffffffffffffffffffffffffffffffffffffffffffff04821160008413600084131616156118ba576118b961155e565b5b817f800000000000000000000000000000000000000000000000000000000000000005831260008412600084131616156118f7576118f661155e565b5b827f800000000000000000000000000000000000000000000000000000000000000005821260008413600084121616156119345761193361155e565b5b827f7fffffffffffffffffffffffffffffffffffffffffffffffffffffffffffffff05821260008412600084121616156119715761197061155e565b5b828202905092915050565b600061198782611250565b915061199283611250565b9250826119a2576119a1611653565b5b600160000383147f8000000000000000000000000000000000000000000000000000000000000000831416156119db576119da61155e565b5b828205905092915050565b600080fd5b600080fd5b7f4e487b7100000000000000000000000000000000000000000000000000000000600052604160045260246000fd5b611a288261117e565b810181811067ffffffffffffffff82111715611a4757611a466119f0565b5b80604052505050565b6000611a5a610ff4565b9050611a668282611a1f565b919050565b600067ffffffffffffffff821115611a8657611a856119f0565b5b611a8f8261117e565b9050602081019050919050565b6000611aaf611aaa84611a6b565b611a50565b905082815260208101848484011115611acb57611aca6119eb565b5b611ad684828561114b565b509392505050565b600082601f830112611af357611af26119e6565b5b8151611b03848260208601611a9c565b91505092915050565b600060208284031215611b2257611b21610ffe565b5b600082015167ffffffffffffffff811115611b4057611b3f611003565b5b611b4c84828501611ade565b9150509291505056fea26469706673582212201a7f2af9625aeaa51287eedab27f38de20e66617c4db775ab6ecb1158cfc5c6a64736f6c634300080c0033",
  "immutableReferences": {},
  "source": "// SPDX-License-Identifier: MIT\n\npragma solidity ^0.8.12;\n\nimport \"./SatiToken.sol\";\nimport \"@openzeppelin/contracts/utils/Context.sol\";\nimport \"./Swapable.sol\";\nimport \"./ISwapable.sol\";\n\n// STI: 0x4d89B61B074ffbF8df0C459900c42972164beB34\n\n// BAT: (token: 0x7dad0d1c1a012b8ab5f7c2fb93469440726fe7e5, rate: 0x9441D7556e7820B5ca42082cfa99487D56AcA958)\n// LINK: (token: 0xa36085f69e2889c224210f603d836748e7dc0088, rate: 0x396c5E36DD0a0F5a5D33dae44368D4193f69a1F0)\n\n// 0x4d89B61B074ffbF8df0C459900c42972164beB34,0xa36085f69e2889c224210f603d836748e7dc0088,0x396c5E36DD0a0F5a5D33dae44368D4193f69a1F0\n\n//0x2c400743A8852052c6F26F5a5E0c7CCc6C9d8d42\n\ncontract ERC20TokensSwap is Context, Swapable {\n    ERC20 public quoteToken;\n    ERC20 public baseToken;\n\n    constructor(\n        ERC20 _baseToken,\n        ERC20 _quoteToken,\n        address _exchangeRate\n    ) Ratable(_exchangeRate) {\n        quoteToken = _quoteToken;\n        baseToken = _baseToken;\n        pairName = concatenateThree(\n            baseToken.symbol(),\n            \"/\",\n            quoteToken.symbol()\n        );\n    }\n\n    function requireHasEnoughQuoteToken(\n        address _addressToValidate,\n        uint256 _requiredAmount\n    ) internal view {\n        requireHasEnoughToken(quoteToken, _addressToValidate, _requiredAmount);\n    }\n\n    function requireHasEnoughBaseToken(\n        address _addressToValidate,\n        uint256 _requiredAmount\n    ) internal view {\n        requireHasEnoughToken(baseToken, _addressToValidate, _requiredAmount);\n    }\n\n    function getAvailableBaseTokenLiquidity() public view returns (uint256) {\n        return getAvailableTokenAmount(baseToken);\n    }\n\n    function getAvailableQuoteTokenLiquidity() public view returns (uint256) {\n        return getAvailableTokenAmount(quoteToken);\n    }\n\n    //////////////////////////\n    ///// Buy base token /////\n    //////////////////////////\n\n    function getBidPrice(uint256 _quoteTokenAmount)\n        public\n        override\n        returns (uint256)\n    {\n        uint256 baseTokenAmountToExchange = getBaseTokenAmountFromRate(\n            _quoteTokenAmount\n        );\n\n        emit SwapRateInfo(\n            concatenateTwo(\"Bid \", pairName),\n            _quoteTokenAmount,\n            baseTokenAmountToExchange\n        );\n\n        return baseTokenAmountToExchange;\n    }\n\n    function swapQuoteForBaseToken(uint256 _quoteTokenAmount)\n        external\n        payable\n        override\n    {\n        requireHasEnoughQuoteToken(_msgSender(), _quoteTokenAmount);\n\n        uint256 baseTokenAmount = getBidPrice(_quoteTokenAmount);\n\n        requireHasEnoughBaseToken(address(this), baseTokenAmount);\n\n        quoteToken.transferFrom(_msgSender(), address(this), _quoteTokenAmount);\n        baseToken.transfer(_msgSender(), baseTokenAmount);\n\n        emit SwapTransferInfo(_msgSender(), _quoteTokenAmount, baseTokenAmount);\n    }\n\n    ///////////////////////////\n    ///// Sell base token /////\n    ///////////////////////////\n\n    function getAskPrice(uint256 _baseTokenAmount)\n        public\n        override\n        returns (uint256)\n    {\n        uint256 quoteTokenToExchange = getQuoteTokenAmountForFromRate(\n            _baseTokenAmount\n        );\n\n        emit SwapRateInfo(\n            concatenateTwo(\"Ask \", pairName),\n            _baseTokenAmount,\n            quoteTokenToExchange\n        );\n\n        return quoteTokenToExchange;\n    }\n\n    function swapBaseForQuoteToken(uint256 _baseTokenAmount)\n        external\n        payable\n        override\n    {\n        requireHasEnoughBaseToken(_msgSender(), _baseTokenAmount);\n\n        uint256 quoteTokenAmount = getAskPrice(_baseTokenAmount);\n\n        requireHasEnoughQuoteToken(address(this), quoteTokenAmount);\n\n        baseToken.transferFrom(_msgSender(), address(this), _baseTokenAmount);\n        quoteToken.transfer(_msgSender(), quoteTokenAmount);\n\n        emit SwapTransferInfo(_msgSender(), msg.value, quoteTokenAmount);\n    }\n}\n",
  "sourcePath": "/Users/bmarquis/Crypto/solidity-swap-exchange/contracts/source/ERC20TokensSwap.sol",
  "compiler": {
    "name": "solc",
    "version": "0.8.12+commit.f00d7308.Emscripten.clang"
  },
  "schemaVersion": "3.4.6",
  "updatedAt": "2022-03-19T17:13:43.911Z",
  "devdoc": {
    "kind": "dev",
    "methods": {},
    "version": 1
  },
  "userdoc": {
    "kind": "user",
    "methods": {},
    "version": 1
  }
}