{
  "contractName": "EthQuoteSwap",
  "abi": [
    {
      "inputs": [
        {
          "internalType": "contract SatiToken",
          "name": "_quoteToken",
          "type": "address"
        },
        {
          "internalType": "address",
          "name": "_ethToUsdRate",
          "type": "address"
        }
      ],
      "stateMutability": "nonpayable",
      "type": "constructor"
    },
    {
      "anonymous": false,
      "inputs": [
        {
          "indexed": true,
          "internalType": "address",
          "name": "previousOwner",
          "type": "address"
        },
        {
          "indexed": true,
          "internalType": "address",
          "name": "newOwner",
          "type": "address"
        }
      ],
      "name": "OwnershipTransferred",
      "type": "event"
    },
    {
      "anonymous": false,
      "inputs": [
        {
          "indexed": true,
          "internalType": "int256",
          "name": "scaledPrice",
          "type": "int256"
        },
        {
          "indexed": true,
          "internalType": "uint256",
          "name": "timeStamp",
          "type": "uint256"
        }
      ],
      "name": "Rate",
      "type": "event"
    },
    {
      "anonymous": false,
      "inputs": [
        {
          "indexed": true,
          "internalType": "string",
          "name": "exchangeType",
          "type": "string"
        },
        {
          "indexed": true,
          "internalType": "uint256",
          "name": "sellingAmount",
          "type": "uint256"
        },
        {
          "indexed": true,
          "internalType": "uint256",
          "name": "buyingAmount",
          "type": "uint256"
        }
      ],
      "name": "SwapRateInfo",
      "type": "event"
    },
    {
      "anonymous": false,
      "inputs": [
        {
          "indexed": true,
          "internalType": "address",
          "name": "beneficiary",
          "type": "address"
        },
        {
          "indexed": true,
          "internalType": "uint256",
          "name": "amountSent",
          "type": "uint256"
        },
        {
          "indexed": true,
          "internalType": "uint256",
          "name": "amountReceived",
          "type": "uint256"
        }
      ],
      "name": "SwapTransferInfo",
      "type": "event"
    },
    {
      "inputs": [
        {
          "internalType": "uint8",
          "name": "_scalingDecimal",
          "type": "uint8"
        }
      ],
      "name": "getScaledRate",
      "outputs": [
        {
          "internalType": "int256",
          "name": "",
          "type": "int256"
        }
      ],
      "stateMutability": "nonpayable",
      "type": "function"
    },
    {
      "inputs": [],
      "name": "owner",
      "outputs": [
        {
          "internalType": "address",
          "name": "",
          "type": "address"
        }
      ],
      "stateMutability": "view",
      "type": "function"
    },
    {
      "inputs": [],
      "name": "pairName",
      "outputs": [
        {
          "internalType": "string",
          "name": "",
          "type": "string"
        }
      ],
      "stateMutability": "view",
      "type": "function"
    },
    {
      "inputs": [],
      "name": "quoteToken",
      "outputs": [
        {
          "internalType": "contract SatiToken",
          "name": "",
          "type": "address"
        }
      ],
      "stateMutability": "view",
      "type": "function"
    },
    {
      "inputs": [],
      "name": "renounceOwnership",
      "outputs": [],
      "stateMutability": "nonpayable",
      "type": "function"
    },
    {
      "inputs": [
        {
          "internalType": "address",
          "name": "newOwner",
          "type": "address"
        }
      ],
      "name": "transferOwnership",
      "outputs": [],
      "stateMutability": "nonpayable",
      "type": "function"
    },
    {
      "inputs": [
        {
          "internalType": "uint256",
          "name": "_baseTokenAmount",
          "type": "uint256"
        }
      ],
      "name": "getAskPrice",
      "outputs": [
        {
          "internalType": "uint256",
          "name": "",
          "type": "uint256"
        }
      ],
      "stateMutability": "nonpayable",
      "type": "function"
    },
    {
      "inputs": [
        {
          "internalType": "uint256",
          "name": "_baseTokenAmount",
          "type": "uint256"
        }
      ],
      "name": "swapBaseForQuoteToken",
      "outputs": [],
      "stateMutability": "payable",
      "type": "function"
    },
    {
      "inputs": [
        {
          "internalType": "uint256",
          "name": "_quoteToken",
          "type": "uint256"
        }
      ],
      "name": "getBidPrice",
      "outputs": [
        {
          "internalType": "uint256",
          "name": "",
          "type": "uint256"
        }
      ],
      "stateMutability": "nonpayable",
      "type": "function"
    },
    {
      "inputs": [
        {
          "internalType": "uint256",
          "name": "_quoteTokenAmount",
          "type": "uint256"
        }
      ],
      "name": "swapQuoteForBaseToken",
      "outputs": [],
      "stateMutability": "payable",
      "type": "function"
    }
  ],
  "bytecode": "0x60806040526012600360006101000a81548160ff021916908360ff1602179055503480156200002d57600080fd5b50604051620023d8380380620023d8833981810160405281019062000053919062000495565b8062000086620000716200022d640100000000026401000000009004565b62000235640100000000026401000000009004565b80600160006101000a81548173ffffffffffffffffffffffffffffffffffffffff021916908373ffffffffffffffffffffffffffffffffffffffff1602179055505081600360016101000a81548173ffffffffffffffffffffffffffffffffffffffff021916908373ffffffffffffffffffffffffffffffffffffffff1602179055506200020d6040518060400160405280600481526020017f4554482f00000000000000000000000000000000000000000000000000000000815250600360019054906101000a900473ffffffffffffffffffffffffffffffffffffffff1673ffffffffffffffffffffffffffffffffffffffff166395d89b416040518163ffffffff167c0100000000000000000000000000000000000000000000000000000000028152600401600060405180830381865afa158015620001cd573d6000803e3d6000fd5b505050506040513d6000823e3d601f19601f82011682018060405250810190620001f8919062000665565b620002f9640100000000026401000000009004565b600290805190602001906200022492919062000327565b50505062000790565b600033905090565b60008060009054906101000a900473ffffffffffffffffffffffffffffffffffffffff169050816000806101000a81548173ffffffffffffffffffffffffffffffffffffffff021916908373ffffffffffffffffffffffffffffffffffffffff1602179055508173ffffffffffffffffffffffffffffffffffffffff168173ffffffffffffffffffffffffffffffffffffffff167f8be0079c531659141344cd1fd0a4f28419497f9722a3daafe3b4186f6b6457e060405160405180910390a35050565b606082826040516020016200031092919062000703565b604051602081830303815290604052905092915050565b82805462000335906200075a565b90600052602060002090601f016020900481019282620003595760008555620003a5565b82601f106200037457805160ff1916838001178555620003a5565b82800160010185558215620003a5579182015b82811115620003a457825182559160200191906001019062000387565b5b509050620003b49190620003b8565b5090565b5b80821115620003d3576000816000905550600101620003b9565b5090565b6000604051905090565b600080fd5b600080fd5b600073ffffffffffffffffffffffffffffffffffffffff82169050919050565b60006200041882620003eb565b9050919050565b60006200042c826200040b565b9050919050565b6200043e816200041f565b81146200044a57600080fd5b50565b6000815190506200045e8162000433565b92915050565b6200046f816200040b565b81146200047b57600080fd5b50565b6000815190506200048f8162000464565b92915050565b60008060408385031215620004af57620004ae620003e1565b5b6000620004bf858286016200044d565b9250506020620004d2858286016200047e565b9150509250929050565b600080fd5b600080fd5b6000601f19601f8301169050919050565b7f4e487b7100000000000000000000000000000000000000000000000000000000600052604160045260246000fd5b6200053182620004e6565b810181811067ffffffffffffffff82111715620005535762000552620004f7565b5b80604052505050565b600062000568620003d7565b905062000576828262000526565b919050565b600067ffffffffffffffff821115620005995762000598620004f7565b5b620005a482620004e6565b9050602081019050919050565b60005b83811015620005d1578082015181840152602081019050620005b4565b83811115620005e1576000848401525b50505050565b6000620005fe620005f8846200057b565b6200055c565b9050828152602081018484840111156200061d576200061c620004e1565b5b6200062a848285620005b1565b509392505050565b600082601f8301126200064a5762000649620004dc565b5b81516200065c848260208601620005e7565b91505092915050565b6000602082840312156200067e576200067d620003e1565b5b600082015167ffffffffffffffff8111156200069f576200069e620003e6565b5b620006ad8482850162000632565b91505092915050565b600081519050919050565b600081905092915050565b6000620006d982620006b6565b620006e58185620006c1565b9350620006f7818560208601620005b1565b80840191505092915050565b6000620007118285620006cc565b91506200071f8284620006cc565b91508190509392505050565b7f4e487b7100000000000000000000000000000000000000000000000000000000600052602260045260246000fd5b600060028204905060018216806200077357607f821691505b602082108114156200078a57620007896200072b565b5b50919050565b611c3880620007a06000396000f3fe6080604052600436106100ae576000357c0100000000000000000000000000000000000000000000000000000000900480639b013aee116100765780639b013aee146101885780639d0ba183146101c5578063ad5d203c14610202578063d880c3701461021e578063f2fde38b1461023a576100ae565b80630c57004a146100b3578063217a4b70146100f057806340794c3b1461011b578063715018a6146101465780638da5cb5b1461015d575b600080fd5b3480156100bf57600080fd5b506100da60048036038101906100d59190610e7d565b610263565b6040516100e79190610eb9565b60405180910390f35b3480156100fc57600080fd5b506101056102bc565b6040516101129190610f53565b60405180910390f35b34801561012757600080fd5b506101306102e2565b60405161013d9190611007565b60405180910390f35b34801561015257600080fd5b5061015b610370565b005b34801561016957600080fd5b506101726103f8565b60405161017f919061104a565b60405180910390f35b34801561019457600080fd5b506101af60048036038101906101aa9190610e7d565b610421565b6040516101bc9190610eb9565b60405180910390f35b3480156101d157600080fd5b506101ec60048036038101906101e7919061109e565b61047a565b6040516101f991906110e4565b60405180910390f35b61021c60048036038101906102179190610e7d565b61062d565b005b61023860048036038101906102339190610e7d565b610762565b005b34801561024657600080fd5b50610261600480360381019061025c919061112b565b6108a7565b005b60008061026f8361099f565b9050808360405161027f906111af565b60405180910390207f88350a00c9d980accf5486d4817c4f938edc6aa8a526efb4c9eaa7e12c69f4cb60405160405180910390a480915050919050565b600360019054906101000a900473ffffffffffffffffffffffffffffffffffffffff1681565b600280546102ef906111f3565b80601f016020809104026020016040519081016040528092919081815260200182805461031b906111f3565b80156103685780601f1061033d57610100808354040283529160200191610368565b820191906000526020600020905b81548152906001019060200180831161034b57829003601f168201915b505050505081565b6103786109e8565b73ffffffffffffffffffffffffffffffffffffffff166103966103f8565b73ffffffffffffffffffffffffffffffffffffffff16146103ec576040517f08c379a00000000000000000000000000000000000000000000000000000000081526004016103e390611271565b60405180910390fd5b6103f660006109f0565b565b60008060009054906101000a900473ffffffffffffffffffffffffffffffffffffffff16905090565b60008061042d83610ab4565b9050808360405161043d906112dd565b60405180910390207f88350a00c9d980accf5486d4817c4f938edc6aa8a526efb4c9eaa7e12c69f4cb60405160405180910390a480915050919050565b6000806000600160009054906101000a900473ffffffffffffffffffffffffffffffffffffffff1673ffffffffffffffffffffffffffffffffffffffff1663feaf968c6040518163ffffffff167c010000000000000000000000000000000000000000000000000000000002815260040160a060405180830381865afa158015610508573d6000803e3d6000fd5b505050506040513d601f19601f8201168201806040525081019061052c9190611375565b509350509250506000600160009054906101000a900473ffffffffffffffffffffffffffffffffffffffff1673ffffffffffffffffffffffffffffffffffffffff1663313ce5676040518163ffffffff167c0100000000000000000000000000000000000000000000000000000000028152600401602060405180830381865afa1580156105be573d6000803e3d6000fd5b505050506040513d601f19601f820116820180604052508101906105e29190611405565b905060006105f1848388610afd565b905082817fb6c1393c2251d5f83b6b4923759cf156e72f269dc654f872eab19c92b853cf5e60405160405180910390a380945050505050919050565b600061063882610263565b90506106443082610b80565b61064e3083610bb1565b600360019054906101000a900473ffffffffffffffffffffffffffffffffffffffff1673ffffffffffffffffffffffffffffffffffffffff1663a9059cbb6106946109e8565b836040518363ffffffff167c01000000000000000000000000000000000000000000000000000000000281526004016106ce929190611432565b6020604051808303816000875af11580156106ed573d6000803e3d6000fd5b505050506040513d601f19601f820116820180604052508101906107119190611493565b50808261071c6109e8565b73ffffffffffffffffffffffffffffffffffffffff167f42daeb9fe1f789384a4e1fd40506a3a12cec73b4c4ea3302b3c501c8e044aebb60405160405180910390a45050565b61077361076d6109e8565b82610b80565b600061077e82610421565b905061079161078b6109e8565b82610bb1565b600360019054906101000a900473ffffffffffffffffffffffffffffffffffffffff1673ffffffffffffffffffffffffffffffffffffffff166323b872dd6107d76109e8565b30856040518463ffffffff167c0100000000000000000000000000000000000000000000000000000000028152600401610813939291906114c0565b6020604051808303816000875af1158015610832573d6000803e3d6000fd5b505050506040513d601f19601f820116820180604052508101906108569190611493565b5080826108616109e8565b73ffffffffffffffffffffffffffffffffffffffff167f42daeb9fe1f789384a4e1fd40506a3a12cec73b4c4ea3302b3c501c8e044aebb60405160405180910390a45050565b6108af6109e8565b73ffffffffffffffffffffffffffffffffffffffff166108cd6103f8565b73ffffffffffffffffffffffffffffffffffffffff1614610923576040517f08c379a000000000000000000000000000000000000000000000000000000000815260040161091a90611271565b60405180910390fd5b600073ffffffffffffffffffffffffffffffffffffffff168173ffffffffffffffffffffffffffffffffffffffff161415610993576040517f08c379a000000000000000000000000000000000000000000000000000000000815260040161098a90611569565b60405180910390fd5b61099c816109f0565b50565b6000806109ba600360009054906101000a900460ff1661047a565b9050806109d684600360009054906101000a900460ff16610c0f565b6109e091906115b8565b915050919050565b600033905090565b60008060009054906101000a900473ffffffffffffffffffffffffffffffffffffffff169050816000806101000a81548173ffffffffffffffffffffffffffffffffffffffff021916908373ffffffffffffffffffffffffffffffffffffffff1602179055508173ffffffffffffffffffffffffffffffffffffffff168173ffffffffffffffffffffffffffffffffffffffff167f8be0079c531659141344cd1fd0a4f28419497f9722a3daafe3b4186f6b6457e060405160405180910390a35050565b600080610acf600360009054906101000a900460ff1661047a565b905080610aeb84600360009054906101000a900460ff16610c34565b610af59190611641565b915050919050565b60008160ff168360ff161015610b3a578282610b199190611672565b60ff16600a610b2891906117d9565b84610b339190611824565b9050610b79565b8160ff168360ff161115610b75578183610b549190611672565b60ff16600a610b6391906117d9565b84610b6e919061193b565b9050610b79565b8390505b9392505050565b610bad600360019054906101000a900473ffffffffffffffffffffffffffffffffffffffff168383610c59565b5050565b808273ffffffffffffffffffffffffffffffffffffffff16311015610c0b576040517f08c379a0000000000000000000000000000000000000000000000000000000008152600401610c02906119f1565b60405180910390fd5b5050565b60008160ff16600a610c2191906117d9565b83610c2c9190611641565b905092915050565b60008160ff16600a610c4691906117d9565b83610c5191906115b8565b905092915050565b808373ffffffffffffffffffffffffffffffffffffffff166370a08231846040518263ffffffff167c0100000000000000000000000000000000000000000000000000000000028152600401610caf919061104a565b602060405180830381865afa158015610ccc573d6000803e3d6000fd5b505050506040513d601f19601f82011682018060405250810190610cf09190611a11565b1015610dc06040518060400160405280600b81526020017f4e6f7420656e6f756768200000000000000000000000000000000000000000008152508573ffffffffffffffffffffffffffffffffffffffff166395d89b416040518163ffffffff167c0100000000000000000000000000000000000000000000000000000000028152600401600060405180830381865afa158015610d92573d6000803e3d6000fd5b505050506040513d6000823e3d601f19601f82011682018060405250810190610dbb9190611b64565b610e07565b90610e01576040517f08c379a0000000000000000000000000000000000000000000000000000000008152600401610df89190611007565b60405180910390fd5b50505050565b60608282604051602001610e1c929190611bde565b604051602081830303815290604052905092915050565b6000604051905090565b600080fd5b600080fd5b6000819050919050565b610e5a81610e47565b8114610e6557600080fd5b50565b600081359050610e7781610e51565b92915050565b600060208284031215610e9357610e92610e3d565b5b6000610ea184828501610e68565b91505092915050565b610eb381610e47565b82525050565b6000602082019050610ece6000830184610eaa565b92915050565b600073ffffffffffffffffffffffffffffffffffffffff82169050919050565b6000819050919050565b6000610f19610f14610f0f84610ed4565b610ef4565b610ed4565b9050919050565b6000610f2b82610efe565b9050919050565b6000610f3d82610f20565b9050919050565b610f4d81610f32565b82525050565b6000602082019050610f686000830184610f44565b92915050565b600081519050919050565b600082825260208201905092915050565b60005b83811015610fa8578082015181840152602081019050610f8d565b83811115610fb7576000848401525b50505050565b6000601f19601f8301169050919050565b6000610fd982610f6e565b610fe38185610f79565b9350610ff3818560208601610f8a565b610ffc81610fbd565b840191505092915050565b600060208201905081810360008301526110218184610fce565b905092915050565b600061103482610ed4565b9050919050565b61104481611029565b82525050565b600060208201905061105f600083018461103b565b92915050565b600060ff82169050919050565b61107b81611065565b811461108657600080fd5b50565b60008135905061109881611072565b92915050565b6000602082840312156110b4576110b3610e3d565b5b60006110c284828501611089565b91505092915050565b6000819050919050565b6110de816110cb565b82525050565b60006020820190506110f960008301846110d5565b92915050565b61110881611029565b811461111357600080fd5b50565b600081359050611125816110ff565b92915050565b60006020828403121561114157611140610e3d565b5b600061114f84828501611116565b91505092915050565b600081905092915050565b7f45544820746f2053544900000000000000000000000000000000000000000000600082015250565b6000611199600a83611158565b91506111a482611163565b600a82019050919050565b60006111ba8261118c565b9150819050919050565b7f4e487b7100000000000000000000000000000000000000000000000000000000600052602260045260246000fd5b6000600282049050600182168061120b57607f821691505b6020821081141561121f5761121e6111c4565b5b50919050565b7f4f776e61626c653a2063616c6c6572206973206e6f7420746865206f776e6572600082015250565b600061125b602083610f79565b915061126682611225565b602082019050919050565b6000602082019050818103600083015261128a8161124e565b9050919050565b7f53544920746f2045544800000000000000000000000000000000000000000000600082015250565b60006112c7600a83611158565b91506112d282611291565b600a82019050919050565b60006112e8826112ba565b9150819050919050565b600069ffffffffffffffffffff82169050919050565b611311816112f2565b811461131c57600080fd5b50565b60008151905061132e81611308565b92915050565b61133d816110cb565b811461134857600080fd5b50565b60008151905061135a81611334565b92915050565b60008151905061136f81610e51565b92915050565b600080600080600060a0868803121561139157611390610e3d565b5b600061139f8882890161131f565b95505060206113b08882890161134b565b94505060406113c188828901611360565b93505060606113d288828901611360565b92505060806113e38882890161131f565b9150509295509295909350565b6000815190506113ff81611072565b92915050565b60006020828403121561141b5761141a610e3d565b5b6000611429848285016113f0565b91505092915050565b6000604082019050611447600083018561103b565b6114546020830184610eaa565b9392505050565b60008115159050919050565b6114708161145b565b811461147b57600080fd5b50565b60008151905061148d81611467565b92915050565b6000602082840312156114a9576114a8610e3d565b5b60006114b78482850161147e565b91505092915050565b60006060820190506114d5600083018661103b565b6114e2602083018561103b565b6114ef6040830184610eaa565b949350505050565b7f4f776e61626c653a206e6577206f776e657220697320746865207a65726f206160008201527f6464726573730000000000000000000000000000000000000000000000000000602082015250565b6000611553602683610f79565b915061155e826114f7565b604082019050919050565b6000602082019050818103600083015261158281611546565b9050919050565b7f4e487b7100000000000000000000000000000000000000000000000000000000600052601160045260246000fd5b60006115c382610e47565b91506115ce83610e47565b9250817fffffffffffffffffffffffffffffffffffffffffffffffffffffffffffffffff048311821515161561160757611606611589565b5b828202905092915050565b7f4e487b7100000000000000000000000000000000000000000000000000000000600052601260045260246000fd5b600061164c82610e47565b915061165783610e47565b92508261166757611666611612565b5b828204905092915050565b600061167d82611065565b915061168883611065565b92508282101561169b5761169a611589565b5b828203905092915050565b6000600282049050919050565b6000808291508390505b60018511156116fd578086048111156116d9576116d8611589565b5b60018516156116e85780820291505b80810290506116f6856116a6565b94506116bd565b94509492505050565b60008261171657600190506117d2565b8161172457600090506117d2565b816001811461173a576002811461174457611773565b60019150506117d2565b60ff84111561175657611755611589565b5b8360020a91508482111561176d5761176c611589565b5b506117d2565b5060208310610133831016604e8410600b84101617156117a85782820a9050838111156117a3576117a2611589565b5b6117d2565b6117b584848460016116b3565b925090508184048111156117cc576117cb611589565b5b81810290505b9392505050565b60006117e482610e47565b91506117ef83610e47565b925061181c7fffffffffffffffffffffffffffffffffffffffffffffffffffffffffffffffff8484611706565b905092915050565b600061182f826110cb565b915061183a836110cb565b9250827f7fffffffffffffffffffffffffffffffffffffffffffffffffffffffffffffff048211600084136000841316161561187957611878611589565b5b817f800000000000000000000000000000000000000000000000000000000000000005831260008412600084131616156118b6576118b5611589565b5b827f800000000000000000000000000000000000000000000000000000000000000005821260008413600084121616156118f3576118f2611589565b5b827f7fffffffffffffffffffffffffffffffffffffffffffffffffffffffffffffff05821260008412600084121616156119305761192f611589565b5b828202905092915050565b6000611946826110cb565b9150611951836110cb565b92508261196157611960611612565b5b600160000383147f80000000000000000000000000000000000000000000000000000000000000008314161561199a57611999611589565b5b828205905092915050565b7f4e6f7420656e6f75676820455448000000000000000000000000000000000000600082015250565b60006119db600e83610f79565b91506119e6826119a5565b602082019050919050565b60006020820190508181036000830152611a0a816119ce565b9050919050565b600060208284031215611a2757611a26610e3d565b5b6000611a3584828501611360565b91505092915050565b600080fd5b600080fd5b7f4e487b7100000000000000000000000000000000000000000000000000000000600052604160045260246000fd5b611a8082610fbd565b810181811067ffffffffffffffff82111715611a9f57611a9e611a48565b5b80604052505050565b6000611ab2610e33565b9050611abe8282611a77565b919050565b600067ffffffffffffffff821115611ade57611add611a48565b5b611ae782610fbd565b9050602081019050919050565b6000611b07611b0284611ac3565b611aa8565b905082815260208101848484011115611b2357611b22611a43565b5b611b2e848285610f8a565b509392505050565b600082601f830112611b4b57611b4a611a3e565b5b8151611b5b848260208601611af4565b91505092915050565b600060208284031215611b7a57611b79610e3d565b5b600082015167ffffffffffffffff811115611b9857611b97610e42565b5b611ba484828501611b36565b91505092915050565b6000611bb882610f6e565b611bc28185611158565b9350611bd2818560208601610f8a565b80840191505092915050565b6000611bea8285611bad565b9150611bf68284611bad565b9150819050939250505056fea264697066735822122093e9a6af1b9319fa373c8b1b2e7d61ce2160164d8310813cb03f351fe1c5914264736f6c634300080b0033",
  "immutableReferences": {},
  "source": "// SPDX-License-Identifier: MIT\n\npragma solidity ^0.8.11;\n\nimport \"./SatiToken.sol\";\n\nimport \"@openzeppelin/contracts/utils/Context.sol\";\nimport \"@openzeppelin/contracts/access/Ownable.sol\";\nimport \"./Swapable.sol\";\nimport \"./ISwapable.sol\";\n\ncontract EthQuoteSwap is Context, Ownable, Swapable {\n    SatiToken public quoteToken;\n\n    constructor(SatiToken _quoteToken, address _ethToUsdRate)\n        Ratable(_ethToUsdRate)\n    {\n        quoteToken = _quoteToken;\n        pairName = concatenateTwo(\"ETH/\", quoteToken.symbol());\n    }\n\n    function requireHasEnoughBaseToken(\n        address _addressToValidate,\n        uint256 _requiredAmount\n    ) internal view {\n        requireHasEnoughToken(quoteToken, _addressToValidate, _requiredAmount);\n    }\n\n    function requireHasEnoughQuoteToken(\n        address _addressToValidate,\n        uint256 _requiredAmount\n    ) internal view {\n        require(\n            address(_addressToValidate).balance >= _requiredAmount,\n            \"Not enough ETH\"\n        );\n    }\n\n    //////////////////\n    //// Buy Sati ////\n    //////////////////\n\n    function getAskPrice(uint256 _baseTokenAmount)\n        public\n        override\n        returns (uint256)\n    {\n        uint256 tokenAmountToExchange = getQuoteTokenAmountForFromRate(\n            _baseTokenAmount\n        );\n\n        emit SwapRateInfo(\n            \"ETH to STI\",\n            _baseTokenAmount,\n            tokenAmountToExchange\n        );\n\n        return tokenAmountToExchange;\n    }\n\n    function swapBaseForQuoteToken(uint256 _baseTokenAmount)\n        external\n        payable\n        override\n    {\n        uint256 quoteTokenAmount = getAskPrice(_baseTokenAmount);\n\n        requireHasEnoughBaseToken(address(this), quoteTokenAmount);\n        requireHasEnoughQuoteToken(address(this), _baseTokenAmount);\n\n        quoteToken.transfer(_msgSender(), quoteTokenAmount);\n\n        emit SwapTransferInfo(_msgSender(), _baseTokenAmount, quoteTokenAmount);\n    }\n\n    ///////////////////\n    //// Sell Sati ////\n    ///////////////////\n\n    function getBidPrice(uint256 _quoteToken)\n        public\n        override\n        returns (uint256)\n    {\n        uint256 tokenAmountToExchange = getBaseTokenAmountFromRate(_quoteToken);\n\n        emit SwapRateInfo(\"STI to ETH\", _quoteToken, tokenAmountToExchange);\n\n        return tokenAmountToExchange;\n    }\n\n    function swapQuoteForBaseToken(uint256 _quoteTokenAmount)\n        external\n        payable\n        override\n    {\n        requireHasEnoughBaseToken(_msgSender(), _quoteTokenAmount);\n\n        uint256 weiAmount = getBidPrice(_quoteTokenAmount);\n\n        requireHasEnoughQuoteToken(address(_msgSender()), weiAmount);\n\n        quoteToken.transferFrom(_msgSender(), address(this), _quoteTokenAmount);\n\n        emit SwapTransferInfo(_msgSender(), _quoteTokenAmount, weiAmount);\n    }\n}\n",
  "sourcePath": "/Users/bmarquis/Crypto/solidity-swap-exchange/contracts/source/EthQuoteSwap.sol",
  "compiler": {
    "name": "solc",
    "version": "0.8.11+commit.d7f03943.Emscripten.clang"
  },
  "schemaVersion": "3.4.6",
  "updatedAt": "2022-03-15T02:29:33.185Z",
  "devdoc": {
    "kind": "dev",
    "methods": {
      "owner()": {
        "details": "Returns the address of the current owner."
      },
      "renounceOwnership()": {
        "details": "Leaves the contract without owner. It will not be possible to call `onlyOwner` functions anymore. Can only be called by the current owner. NOTE: Renouncing ownership will leave the contract without an owner, thereby removing any functionality that is only available to the owner."
      },
      "transferOwnership(address)": {
        "details": "Transfers ownership of the contract to a new account (`newOwner`). Can only be called by the current owner."
      }
    },
    "version": 1
  },
  "userdoc": {
    "kind": "user",
    "methods": {},
    "version": 1
  }
}