{
  "contractName": "Faucet",
  "abi": [
    {
      "anonymous": false,
      "inputs": [
        {
          "indexed": false,
          "internalType": "address",
          "name": "_beneficiary",
          "type": "address"
        },
        {
          "indexed": false,
          "internalType": "uint256",
          "name": "_balance",
          "type": "uint256"
        }
      ],
      "name": "Request",
      "type": "event"
    },
    {
      "inputs": [
        {
          "internalType": "address",
          "name": "",
          "type": "address"
        }
      ],
      "name": "lockTime",
      "outputs": [
        {
          "internalType": "uint256",
          "name": "",
          "type": "uint256"
        }
      ],
      "stateMutability": "view",
      "type": "function",
      "constant": true
    },
    {
      "stateMutability": "payable",
      "type": "receive",
      "payable": true
    },
    {
      "inputs": [
        {
          "internalType": "address payable",
          "name": "_beneficiary",
          "type": "address"
        }
      ],
      "name": "makeItRain",
      "outputs": [],
      "stateMutability": "payable",
      "type": "function",
      "payable": true
    }
  ],
  "bytecode": "0x6080604052662386f26fc10000600160006101000a81548167ffffffffffffffff021916908367ffffffffffffffff16021790555034801561004057600080fd5b50610673806100506000396000f3fe60806040526004361061004a576000357c010000000000000000000000000000000000000000000000000000000090048063a4beda6314610056578063ee5fda2e1461009357610051565b3661005157005b600080fd5b34801561006257600080fd5b5061007d6004803603810190610078919061032f565b6100af565b60405161008a9190610375565b60405180910390f35b6100ad60048036038101906100a891906103ce565b6100c7565b005b60006020528060005260406000206000915090505481565b7fe31c60e37ab1301f69f01b436a1d13486e6c16cc22c888a08c0e64a39230b6ac818273ffffffffffffffffffffffffffffffffffffffff163160405161010f92919061045a565b60405180910390a16000803373ffffffffffffffffffffffffffffffffffffffff1673ffffffffffffffffffffffffffffffffffffffff168152602001908152602001600020544211610197576040517f08c379a000000000000000000000000000000000000000000000000000000000815260040161018e90610506565b60405180910390fd5b600160009054906101000a900467ffffffffffffffff1667ffffffffffffffff163073ffffffffffffffffffffffffffffffffffffffff16311015610211576040517f08c379a000000000000000000000000000000000000000000000000000000000815260040161020890610598565b60405180910390fd5b8073ffffffffffffffffffffffffffffffffffffffff166108fc600160009054906101000a900467ffffffffffffffff1667ffffffffffffffff169081150290604051600060405180830381858888f19350505050158015610277573d6000803e3d6000fd5b50620151804261028791906105e7565b6000803373ffffffffffffffffffffffffffffffffffffffff1673ffffffffffffffffffffffffffffffffffffffff1681526020019081526020016000208190555050565b600080fd5b600073ffffffffffffffffffffffffffffffffffffffff82169050919050565b60006102fc826102d1565b9050919050565b61030c816102f1565b811461031757600080fd5b50565b60008135905061032981610303565b92915050565b600060208284031215610345576103446102cc565b5b60006103538482850161031a565b91505092915050565b6000819050919050565b61036f8161035c565b82525050565b600060208201905061038a6000830184610366565b92915050565b600061039b826102d1565b9050919050565b6103ab81610390565b81146103b657600080fd5b50565b6000813590506103c8816103a2565b92915050565b6000602082840312156103e4576103e36102cc565b5b60006103f2848285016103b9565b91505092915050565b6000819050919050565b600061042061041b610416846102d1565b6103fb565b6102d1565b9050919050565b600061043282610405565b9050919050565b600061044482610427565b9050919050565b61045481610439565b82525050565b600060408201905061046f600083018561044b565b61047c6020830184610366565b9392505050565b600082825260208201905092915050565b7f4c6f636b2074696d6520686173206e6f7420657870697265642c20706c65617360008201527f652074727920616761696e206c61746572000000000000000000000000000000602082015250565b60006104f0603183610483565b91506104fb82610494565b604082019050919050565b6000602082019050818103600083015261051f816104e3565b9050919050565b7f466175636574206973206472792c20636f6e73696465722073656e64696e672060008201527f736f6d6520657468657220746f20697400000000000000000000000000000000602082015250565b6000610582603083610483565b915061058d82610526565b604082019050919050565b600060208201905081810360008301526105b181610575565b9050919050565b7f4e487b7100000000000000000000000000000000000000000000000000000000600052601160045260246000fd5b60006105f28261035c565b91506105fd8361035c565b9250827fffffffffffffffffffffffffffffffffffffffffffffffffffffffffffffffff03821115610632576106316105b8565b5b82820190509291505056fea26469706673582212207664b9eee261beb1df8734f1719e945bcb6190244a33a88fd3b72b3ad4b1be7364736f6c634300080b0033",
  "immutableReferences": {},
  "source": "// SPDX-License-Identifier: MIT\n\npragma solidity ^0.8.11;\n\ncontract Faucet {\n    mapping(address => uint256) public lockTime;\n\n    uint64 faucetDistribution = 0.01 ether;\n\n    event Request(address _beneficiary, uint256 _balance);\n\n    function makeItRain(address payable _beneficiary) external payable {\n        emit Request(_beneficiary, _beneficiary.balance);\n\n        require(\n            block.timestamp > lockTime[msg.sender],\n            \"Lock time has not expired, please try again later\"\n        );\n        // require(\n        //     _beneficiary.balance <= 0.2 ether,\n        //     \"You already have enough ether to play around with\"\n        // );\n        require(\n            address(this).balance >= faucetDistribution,\n            \"Faucet is dry, consider sending some ether to it\"\n        );\n\n        _beneficiary.transfer(faucetDistribution);\n\n        lockTime[msg.sender] = block.timestamp + 1 days;\n    }\n\n    receive() external payable {}\n}\n",
  "sourcePath": "/Users/bmarquis/Crypto/solidity-swap-exchange/contracts/source/Faucet.sol",
  "compiler": {
    "name": "solc",
    "version": "0.8.11+commit.d7f03943.Emscripten.clang"
  },
  "schemaVersion": "3.4.5",
  "updatedAt": "2022-03-01T22:40:51.601Z",
  "networkType": "ethereum",
  "devdoc": {
    "kind": "dev",
    "methods": {},
    "version": 1
  },
  "userdoc": {
    "kind": "user",
    "methods": {},
    "version": 1
  }
}