{
  "contractName": "KYCValidation",
  "abi": [
    {
      "inputs": [
        {
          "internalType": "address",
          "name": "",
          "type": "address"
        }
      ],
      "name": "KYCCompletedRegistry",
      "outputs": [
        {
          "internalType": "bool",
          "name": "",
          "type": "bool"
        }
      ],
      "stateMutability": "view",
      "type": "function",
      "constant": true
    },
    {
      "inputs": [
        {
          "internalType": "address",
          "name": "_userAddress",
          "type": "address"
        }
      ],
      "name": "seKYCCompletedFor",
      "outputs": [],
      "stateMutability": "nonpayable",
      "type": "function"
    },
    {
      "inputs": [
        {
          "internalType": "address",
          "name": "_userAddress",
          "type": "address"
        }
      ],
      "name": "seKYCRevokedFor",
      "outputs": [],
      "stateMutability": "nonpayable",
      "type": "function"
    },
    {
      "inputs": [
        {
          "internalType": "address",
          "name": "_buyer",
          "type": "address"
        }
      ],
      "name": "requireKYCCompletion",
      "outputs": [],
      "stateMutability": "view",
      "type": "function",
      "constant": true
    }
  ],
  "bytecode": "0x608060405234801561001057600080fd5b50610405806100206000396000f3fe608060405234801561001057600080fd5b5060043610610069576000357c01000000000000000000000000000000000000000000000000000000009004806311e1464b1461006e57806337d6c8821461008a57806387c1172f146100ba578063b33d5a1f146100d6575b600080fd5b610088600480360381019061008391906102c9565b6100f2565b005b6100a4600480360381019061009f91906102c9565b61013d565b6040516100b19190610311565b60405180910390f35b6100d460048036038101906100cf91906102c9565b61015d565b005b6100f060048036038101906100eb91906102c9565b6101b7565b005b6100fb81610211565b61013a576040517f08c379a0000000000000000000000000000000000000000000000000000000008152600401610131906103af565b60405180910390fd5b50565b60006020528060005260406000206000915054906101000a900460ff1681565b60008060008373ffffffffffffffffffffffffffffffffffffffff1673ffffffffffffffffffffffffffffffffffffffff16815260200190815260200160002060006101000a81548160ff02191690831515021790555050565b60016000808373ffffffffffffffffffffffffffffffffffffffff1673ffffffffffffffffffffffffffffffffffffffff16815260200190815260200160002060006101000a81548160ff02191690831515021790555050565b60008060008373ffffffffffffffffffffffffffffffffffffffff1673ffffffffffffffffffffffffffffffffffffffff16815260200190815260200160002060009054906101000a900460ff169050919050565b600080fd5b600073ffffffffffffffffffffffffffffffffffffffff82169050919050565b60006102968261026b565b9050919050565b6102a68161028b565b81146102b157600080fd5b50565b6000813590506102c38161029d565b92915050565b6000602082840312156102df576102de610266565b5b60006102ed848285016102b4565b91505092915050565b60008115159050919050565b61030b816102f6565b82525050565b60006020820190506103266000830184610302565b92915050565b600082825260208201905092915050565b7f596f75206d75737420636f6d706c657465204b5943206265666f72652070757260008201527f63686173696e6720746f6b656e73000000000000000000000000000000000000602082015250565b6000610399602e8361032c565b91506103a48261033d565b604082019050919050565b600060208201905081810360008301526103c88161038c565b905091905056fea264697066735822122012192e703ce57d2fa01d58dabab6327ddece8fb5c9179f99d09bfaa2f14b1d5564736f6c634300080b0033",
  "immutableReferences": {},
  "source": "// SPDX-License-Identifier: MIT\n\npragma solidity ^0.8.11;\n\ncontract KYCValidation {\n    mapping(address => bool) public KYCCompletedRegistry;\n\n    function seKYCCompletedFor(address _userAddress) external {\n        KYCCompletedRegistry[_userAddress] = true;\n    }\n\n    function seKYCRevokedFor(address _userAddress) external {\n        KYCCompletedRegistry[_userAddress] = false;\n    }\n\n    function isKYCCompletedFor(address _userAddress)\n        internal\n        view\n        returns (bool)\n    {\n        return KYCCompletedRegistry[_userAddress];\n    }\n\n    function requireKYCCompletion(address _buyer) external view {\n        require(\n            isKYCCompletedFor(_buyer),\n            \"You must complete KYC before purchasing tokens\"\n        );\n    }\n}\n",
  "sourcePath": "/Users/bmarquis/Crypto/solidity-swap-exchange/contracts/source/KYCValidation.sol",
  "compiler": {
    "name": "solc",
    "version": "0.8.11+commit.d7f03943.Emscripten.clang"
  },
  "schemaVersion": "3.4.5",
  "updatedAt": "2022-03-02T03:45:34.764Z",
  "networkType": "ethereum",
  "devdoc": {
    "kind": "dev",
    "methods": {},
    "version": 1
  },
  "userdoc": {
    "kind": "user",
    "methods": {},
    "version": 1
  }
}