{
  "contractName": "Ratable",
  "abi": [
    {
      "inputs": [
        {
          "internalType": "address",
          "name": "_priceFeedContract",
          "type": "address"
        }
      ],
      "stateMutability": "nonpayable",
      "type": "constructor"
    },
    {
      "anonymous": false,
      "inputs": [
        {
          "indexed": true,
          "internalType": "int256",
          "name": "scaledPrice",
          "type": "int256"
        },
        {
          "indexed": true,
          "internalType": "uint256",
          "name": "timeStamp",
          "type": "uint256"
        }
      ],
      "name": "Rate",
      "type": "event"
    },
    {
      "inputs": [
        {
          "internalType": "uint8",
          "name": "_scalingDecimal",
          "type": "uint8"
        }
      ],
      "name": "getScaledRate",
      "outputs": [
        {
          "internalType": "int256",
          "name": "",
          "type": "int256"
        }
      ],
      "stateMutability": "nonpayable",
      "type": "function"
    }
  ],
  "bytecode": "0x608060405234801561001057600080fd5b5060405161098f38038061098f833981810160405281019061003291906100db565b806000806101000a81548173ffffffffffffffffffffffffffffffffffffffff021916908373ffffffffffffffffffffffffffffffffffffffff16021790555050610108565b600080fd5b600073ffffffffffffffffffffffffffffffffffffffff82169050919050565b60006100a88261007d565b9050919050565b6100b88161009d565b81146100c357600080fd5b50565b6000815190506100d5816100af565b92915050565b6000602082840312156100f1576100f0610078565b5b60006100ff848285016100c6565b91505092915050565b610878806101176000396000f3fe608060405234801561001057600080fd5b5060043610610048576000357c0100000000000000000000000000000000000000000000000000000000900480639d0ba1831461004d575b600080fd5b610067600480360381019061006291906102ef565b61007d565b6040516100749190610335565b60405180910390f35b60008060008060009054906101000a900473ffffffffffffffffffffffffffffffffffffffff1673ffffffffffffffffffffffffffffffffffffffff1663feaf968c6040518163ffffffff167c010000000000000000000000000000000000000000000000000000000002815260040160a060405180830381865afa15801561010a573d6000803e3d6000fd5b505050506040513d601f19601f8201168201806040525081019061012e91906103f4565b5093505092505060008060009054906101000a900473ffffffffffffffffffffffffffffffffffffffff1673ffffffffffffffffffffffffffffffffffffffff1663313ce5676040518163ffffffff167c0100000000000000000000000000000000000000000000000000000000028152600401602060405180830381865afa1580156101bf573d6000803e3d6000fd5b505050506040513d601f19601f820116820180604052508101906101e39190610484565b905060006101f284838861022e565b905082817fb6c1393c2251d5f83b6b4923759cf156e72f269dc654f872eab19c92b853cf5e60405160405180910390a380945050505050919050565b60008160ff168360ff16101561026b57828261024a91906104e0565b60ff16600a6102599190610647565b846102649190610692565b90506102aa565b8160ff168360ff1611156102a657818361028591906104e0565b60ff16600a6102949190610647565b8461029f91906107d8565b90506102aa565b8390505b9392505050565b600080fd5b600060ff82169050919050565b6102cc816102b6565b81146102d757600080fd5b50565b6000813590506102e9816102c3565b92915050565b600060208284031215610305576103046102b1565b5b6000610313848285016102da565b91505092915050565b6000819050919050565b61032f8161031c565b82525050565b600060208201905061034a6000830184610326565b92915050565b600069ffffffffffffffffffff82169050919050565b61036f81610350565b811461037a57600080fd5b50565b60008151905061038c81610366565b92915050565b61039b8161031c565b81146103a657600080fd5b50565b6000815190506103b881610392565b92915050565b6000819050919050565b6103d1816103be565b81146103dc57600080fd5b50565b6000815190506103ee816103c8565b92915050565b600080600080600060a086880312156104105761040f6102b1565b5b600061041e8882890161037d565b955050602061042f888289016103a9565b9450506040610440888289016103df565b9350506060610451888289016103df565b92505060806104628882890161037d565b9150509295509295909350565b60008151905061047e816102c3565b92915050565b60006020828403121561049a576104996102b1565b5b60006104a88482850161046f565b91505092915050565b7f4e487b7100000000000000000000000000000000000000000000000000000000600052601160045260246000fd5b60006104eb826102b6565b91506104f6836102b6565b925082821015610509576105086104b1565b5b828203905092915050565b6000600282049050919050565b6000808291508390505b600185111561056b57808604811115610547576105466104b1565b5b60018516156105565780820291505b808102905061056485610514565b945061052b565b94509492505050565b6000826105845760019050610640565b816105925760009050610640565b81600181146105a857600281146105b2576105e1565b6001915050610640565b60ff8411156105c4576105c36104b1565b5b8360020a9150848211156105db576105da6104b1565b5b50610640565b5060208310610133831016604e8410600b84101617156106165782820a905083811115610611576106106104b1565b5b610640565b6106238484846001610521565b9250905081840481111561063a576106396104b1565b5b81810290505b9392505050565b6000610652826103be565b915061065d836103be565b925061068a7fffffffffffffffffffffffffffffffffffffffffffffffffffffffffffffffff8484610574565b905092915050565b600061069d8261031c565b91506106a88361031c565b9250827f7fffffffffffffffffffffffffffffffffffffffffffffffffffffffffffffff04821160008413600084131616156106e7576106e66104b1565b5b817f80000000000000000000000000000000000000000000000000000000000000000583126000841260008413161615610724576107236104b1565b5b827f80000000000000000000000000000000000000000000000000000000000000000582126000841360008412161615610761576107606104b1565b5b827f7fffffffffffffffffffffffffffffffffffffffffffffffffffffffffffffff058212600084126000841216161561079e5761079d6104b1565b5b828202905092915050565b7f4e487b7100000000000000000000000000000000000000000000000000000000600052601260045260246000fd5b60006107e38261031c565b91506107ee8361031c565b9250826107fe576107fd6107a9565b5b600160000383147f800000000000000000000000000000000000000000000000000000000000000083141615610837576108366104b1565b5b82820590509291505056fea26469706673582212209864b18f3cf38adf7f91bbe1b74f72396c5667d0391c94a85e128525609849cd64736f6c634300080b0033",
  "immutableReferences": {},
  "source": "// SPDX-License-Identifier: MIT\n\npragma solidity ^0.8.11;\n\nimport \"@chainlink/contracts/src/v0.8/interfaces/AggregatorV3Interface.sol\";\n\ncontract Ratable {\n    event Rate(int256 indexed scaledPrice, uint256 indexed timeStamp);\n\n    AggregatorV3Interface internal priceFeed;\n\n    constructor(address _priceFeedContract) {\n        priceFeed = AggregatorV3Interface(_priceFeedContract);\n    }\n\n    function scaleTokenForMultiplication(uint256 _tokenAmount, uint8 _decimals)\n        internal\n        pure\n        returns (uint256)\n    {\n        return _tokenAmount / uint256(10**uint256(_decimals));\n    }\n\n    function scaleTokenForDivision(uint256 _tokenAmount, uint8 _decimals)\n        internal\n        pure\n        returns (uint256)\n    {\n        return _tokenAmount * uint256(10**uint256(_decimals));\n    }\n\n    function scalePrice(\n        int256 _price,\n        uint8 _priceDecimals,\n        uint8 _decimals\n    ) internal pure returns (int256) {\n        if (_priceDecimals < _decimals) {\n            return _price * int256(10**uint256(_decimals - _priceDecimals));\n        } else if (_priceDecimals > _decimals) {\n            return _price / int256(10**uint256(_priceDecimals - _decimals));\n        }\n        return _price;\n    }\n\n    function getScaledRate(uint8 _scalingDecimal) public returns (int256) {\n        (, int256 price, , uint256 timeStamp, ) = priceFeed.latestRoundData();\n        uint8 decimals = priceFeed.decimals();\n\n        int256 scaledPrice = scalePrice(price, decimals, _scalingDecimal);\n\n        emit Rate(scaledPrice, timeStamp);\n\n        return scaledPrice;\n    }\n}\n",
  "sourcePath": "/Users/bmarquis/Crypto/solidity-swap-exchange/contracts/source/Ratable.sol",
  "compiler": {
    "name": "solc",
    "version": "0.8.11+commit.d7f03943.Emscripten.clang"
  },
  "schemaVersion": "3.4.6",
  "updatedAt": "2022-03-15T01:08:21.181Z",
  "devdoc": {
    "kind": "dev",
    "methods": {},
    "version": 1
  },
  "userdoc": {
    "kind": "user",
    "methods": {},
    "version": 1
  }
}