{
  "contractName": "SatiTokenSale",
  "abi": [
    {
      "inputs": [
        {
          "internalType": "uint8",
          "name": "_fixedExchangeRate",
          "type": "uint8"
        },
        {
          "internalType": "address payable",
          "name": "_wallet",
          "type": "address"
        },
        {
          "internalType": "contract IERC20",
          "name": "_token",
          "type": "address"
        },
        {
          "internalType": "contract KYCValidation",
          "name": "_kycValidation",
          "type": "address"
        }
      ],
      "stateMutability": "nonpayable",
      "type": "constructor"
    },
    {
      "anonymous": false,
      "inputs": [
        {
          "indexed": true,
          "internalType": "address",
          "name": "purchaser",
          "type": "address"
        },
        {
          "indexed": true,
          "internalType": "address",
          "name": "beneficiary",
          "type": "address"
        },
        {
          "indexed": false,
          "internalType": "uint256",
          "name": "value",
          "type": "uint256"
        },
        {
          "indexed": false,
          "internalType": "uint256",
          "name": "amount",
          "type": "uint256"
        }
      ],
      "name": "TokensPurchased",
      "type": "event"
    },
    {
      "inputs": [
        {
          "internalType": "address",
          "name": "beneficiary",
          "type": "address"
        }
      ],
      "name": "buyTokens",
      "outputs": [],
      "stateMutability": "payable",
      "type": "function",
      "payable": true
    },
    {
      "inputs": [],
      "name": "rate",
      "outputs": [
        {
          "internalType": "uint256",
          "name": "",
          "type": "uint256"
        }
      ],
      "stateMutability": "view",
      "type": "function",
      "constant": true
    },
    {
      "inputs": [],
      "name": "toUnit",
      "outputs": [
        {
          "internalType": "contract IERC20",
          "name": "",
          "type": "address"
        }
      ],
      "stateMutability": "view",
      "type": "function",
      "constant": true
    },
    {
      "inputs": [],
      "name": "wallet",
      "outputs": [
        {
          "internalType": "address payable",
          "name": "",
          "type": "address"
        }
      ],
      "stateMutability": "view",
      "type": "function",
      "constant": true
    },
    {
      "inputs": [],
      "name": "weiRaised",
      "outputs": [
        {
          "internalType": "uint256",
          "name": "",
          "type": "uint256"
        }
      ],
      "stateMutability": "view",
      "type": "function",
      "constant": true
    },
    {
      "stateMutability": "payable",
      "type": "receive",
      "payable": true
    }
  ],
  "bytecode": "0x60806040523480156200001157600080fd5b50604051620016be380380620016be83398181016040528101906200003791906200038e565b8360ff1683836001600081905550600083116200008b576040517f08c379a0000000000000000000000000000000000000000000000000000000008152600401620000829062000461565b60405180910390fd5b600073ffffffffffffffffffffffffffffffffffffffff168273ffffffffffffffffffffffffffffffffffffffff161415620000fe576040517f08c379a0000000000000000000000000000000000000000000000000000000008152600401620000f590620004f9565b60405180910390fd5b600073ffffffffffffffffffffffffffffffffffffffff168173ffffffffffffffffffffffffffffffffffffffff16141562000171576040517f08c379a0000000000000000000000000000000000000000000000000000000008152600401620001689062000591565b60405180910390fd5b8260038190555081600260006101000a81548173ffffffffffffffffffffffffffffffffffffffff021916908373ffffffffffffffffffffffffffffffffffffffff16021790555080600160006101000a81548173ffffffffffffffffffffffffffffffffffffffff021916908373ffffffffffffffffffffffffffffffffffffffff16021790555050505080600560006101000a81548173ffffffffffffffffffffffffffffffffffffffff021916908373ffffffffffffffffffffffffffffffffffffffff16021790555050505050620005b3565b600080fd5b600060ff82169050919050565b62000265816200024d565b81146200027157600080fd5b50565b60008151905062000285816200025a565b92915050565b600073ffffffffffffffffffffffffffffffffffffffff82169050919050565b6000620002b8826200028b565b9050919050565b620002ca81620002ab565b8114620002d657600080fd5b50565b600081519050620002ea81620002bf565b92915050565b6000620002fd826200028b565b9050919050565b60006200031182620002f0565b9050919050565b620003238162000304565b81146200032f57600080fd5b50565b600081519050620003438162000318565b92915050565b60006200035682620002f0565b9050919050565b620003688162000349565b81146200037457600080fd5b50565b60008151905062000388816200035d565b92915050565b60008060008060808587031215620003ab57620003aa62000248565b5b6000620003bb8782880162000274565b9450506020620003ce87828801620002d9565b9350506040620003e18782880162000332565b9250506060620003f48782880162000377565b91505092959194509250565b600082825260208201905092915050565b7f43726f776473616c653a20726174652069732030000000000000000000000000600082015250565b60006200044960148362000400565b9150620004568262000411565b602082019050919050565b600060208201905081810360008301526200047c816200043a565b9050919050565b7f43726f776473616c653a2077616c6c657420697320746865207a65726f20616460008201527f6472657373000000000000000000000000000000000000000000000000000000602082015250565b6000620004e160258362000400565b9150620004ee8262000483565b604082019050919050565b600060208201905081810360008301526200051481620004d2565b9050919050565b7f43726f776473616c653a20746f6b656e20697320746865207a65726f2061646460008201527f7265737300000000000000000000000000000000000000000000000000000000602082015250565b60006200057960248362000400565b915062000586826200051b565b604082019050919050565b60006020820190508181036000830152620005ac816200056a565b9050919050565b6110fb80620005c36000396000f3fe60806040526004361061006b576000357c0100000000000000000000000000000000000000000000000000000000900480632c4e722e146100875780634042b66f146100b2578063521eb273146100dd57806378794d5714610108578063ec8ac4d81461013357610082565b366100825761008061007b61014f565b610157565b005b600080fd5b34801561009357600080fd5b5061009c61027d565b6040516100a99190610925565b60405180910390f35b3480156100be57600080fd5b506100c7610287565b6040516100d49190610925565b60405180910390f35b3480156100e957600080fd5b506100f2610291565b6040516100ff9190610981565b60405180910390f35b34801561011457600080fd5b5061011d6102bb565b60405161012a91906109fb565b60405180910390f35b61014d60048036038101906101489190610a59565b610157565b005b600033905090565b6002600054141561019d576040517f08c379a000000000000000000000000000000000000000000000000000000000815260040161019490610ae3565b60405180910390fd5b600260008190555060003490506101b482826102e5565b60006101bf826103a4565b90506101d6826004546103c290919063ffffffff16565b6004819055506101e683826103d8565b8273ffffffffffffffffffffffffffffffffffffffff1661020561014f565b73ffffffffffffffffffffffffffffffffffffffff167f6faf93231a456e552dbc9961f58d9713ee4f2e69d15f1975b050ef0911053a7b848460405161024c929190610b03565b60405180910390a361025e83836103e6565b6102666103ea565b6102708383610455565b5050600160008190555050565b6000600354905090565b6000600454905090565b6000600260009054906101000a900473ffffffffffffffffffffffffffffffffffffffff16905090565b6000600160009054906101000a900473ffffffffffffffffffffffffffffffffffffffff16905090565b6102ef8282610459565b6102f982826104b7565b600560009054906101000a900473ffffffffffffffffffffffffffffffffffffffff1673ffffffffffffffffffffffffffffffffffffffff166311e1464b836040518263ffffffff167c01000000000000000000000000000000000000000000000000000000000281526004016103709190610b3b565b60006040518083038186803b15801561038857600080fd5b505afa15801561039c573d6000803e3d6000fd5b505050505050565b60006103bb6003548361056f90919063ffffffff16565b9050919050565b600081836103d09190610b85565b905092915050565b6103e28282610585565b5050565b5050565b600260009054906101000a900473ffffffffffffffffffffffffffffffffffffffff1673ffffffffffffffffffffffffffffffffffffffff166108fc349081150290604051600060405180830381858888f19350505050158015610452573d6000803e3d6000fd5b50565b5050565b808273ffffffffffffffffffffffffffffffffffffffff163110156104b3576040517f08c379a00000000000000000000000000000000000000000000000000000000081526004016104aa90610c27565b60405180910390fd5b5050565b600073ffffffffffffffffffffffffffffffffffffffff168273ffffffffffffffffffffffffffffffffffffffff161415610527576040517f08c379a000000000000000000000000000000000000000000000000000000000815260040161051e90610cb9565b60405180910390fd5b600081141561056b576040517f08c379a000000000000000000000000000000000000000000000000000000000815260040161056290610d25565b60405180910390fd5b5050565b6000818361057d9190610d45565b905092915050565b6105d28282600160009054906101000a900473ffffffffffffffffffffffffffffffffffffffff1673ffffffffffffffffffffffffffffffffffffffff166105d69092919063ffffffff16565b5050565b6106738363a9059cbb7c0100000000000000000000000000000000000000000000000000000000028484604051602401610611929190610d9f565b604051602081830303815290604052907bffffffffffffffffffffffffffffffffffffffffffffffffffffffff19166020820180517bffffffffffffffffffffffffffffffffffffffffffffffffffffffff8381831617835250505050610678565b505050565b60006106da826040518060400160405280602081526020017f5361666545524332303a206c6f772d6c6576656c2063616c6c206661696c65648152508573ffffffffffffffffffffffffffffffffffffffff1661073f9092919063ffffffff16565b905060008151111561073a57808060200190518101906106fa9190610e00565b610739576040517f08c379a000000000000000000000000000000000000000000000000000000000815260040161073090610e9f565b60405180910390fd5b5b505050565b606061074e8484600085610757565b90509392505050565b6060823073ffffffffffffffffffffffffffffffffffffffff163110156107b3576040517f08c379a00000000000000000000000000000000000000000000000000000000081526004016107aa90610f31565b60405180910390fd5b6107bc85610882565b6107fb576040517f08c379a00000000000000000000000000000000000000000000000000000000081526004016107f290610f9d565b60405180910390fd5b6000808673ffffffffffffffffffffffffffffffffffffffff1685876040516108249190611037565b60006040518083038185875af1925050503d8060008114610861576040519150601f19603f3d011682016040523d82523d6000602084013e610866565b606091505b50915091506108768282866108a5565b92505050949350505050565b6000808273ffffffffffffffffffffffffffffffffffffffff163b119050919050565b606083156108b557829050610905565b6000835111156108c85782518084602001fd5b816040517f08c379a00000000000000000000000000000000000000000000000000000000081526004016108fc91906110a3565b60405180910390fd5b9392505050565b6000819050919050565b61091f8161090c565b82525050565b600060208201905061093a6000830184610916565b92915050565b600073ffffffffffffffffffffffffffffffffffffffff82169050919050565b600061096b82610940565b9050919050565b61097b81610960565b82525050565b60006020820190506109966000830184610972565b92915050565b6000819050919050565b60006109c16109bc6109b784610940565b61099c565b610940565b9050919050565b60006109d3826109a6565b9050919050565b60006109e5826109c8565b9050919050565b6109f5816109da565b82525050565b6000602082019050610a1060008301846109ec565b92915050565b600080fd5b6000610a2682610940565b9050919050565b610a3681610a1b565b8114610a4157600080fd5b50565b600081359050610a5381610a2d565b92915050565b600060208284031215610a6f57610a6e610a16565b5b6000610a7d84828501610a44565b91505092915050565b600082825260208201905092915050565b7f5265656e7472616e637947756172643a207265656e7472616e742063616c6c00600082015250565b6000610acd601f83610a86565b9150610ad882610a97565b602082019050919050565b60006020820190508181036000830152610afc81610ac0565b9050919050565b6000604082019050610b186000830185610916565b610b256020830184610916565b9392505050565b610b3581610a1b565b82525050565b6000602082019050610b506000830184610b2c565b92915050565b7f4e487b7100000000000000000000000000000000000000000000000000000000600052601160045260246000fd5b6000610b908261090c565b9150610b9b8361090c565b9250827fffffffffffffffffffffffffffffffffffffffffffffffffffffffffffffffff03821115610bd057610bcf610b56565b5b828201905092915050565b7f6e6f7420656e6f75676820457468657220617661696c61626c65000000000000600082015250565b6000610c11601a83610a86565b9150610c1c82610bdb565b602082019050919050565b60006020820190508181036000830152610c4081610c04565b9050919050565b7f43726f776473616c653a2062656e656669636961727920697320746865207a6560008201527f726f206164647265737300000000000000000000000000000000000000000000602082015250565b6000610ca3602a83610a86565b9150610cae82610c47565b604082019050919050565b60006020820190508181036000830152610cd281610c96565b9050919050565b7f43726f776473616c653a20776569416d6f756e74206973203000000000000000600082015250565b6000610d0f601983610a86565b9150610d1a82610cd9565b602082019050919050565b60006020820190508181036000830152610d3e81610d02565b9050919050565b6000610d508261090c565b9150610d5b8361090c565b9250817fffffffffffffffffffffffffffffffffffffffffffffffffffffffffffffffff0483118215151615610d9457610d93610b56565b5b828202905092915050565b6000604082019050610db46000830185610b2c565b610dc16020830184610916565b9392505050565b60008115159050919050565b610ddd81610dc8565b8114610de857600080fd5b50565b600081519050610dfa81610dd4565b92915050565b600060208284031215610e1657610e15610a16565b5b6000610e2484828501610deb565b91505092915050565b7f5361666545524332303a204552433230206f7065726174696f6e20646964206e60008201527f6f74207375636365656400000000000000000000000000000000000000000000602082015250565b6000610e89602a83610a86565b9150610e9482610e2d565b604082019050919050565b60006020820190508181036000830152610eb881610e7c565b9050919050565b7f416464726573733a20696e73756666696369656e742062616c616e636520666f60008201527f722063616c6c0000000000000000000000000000000000000000000000000000602082015250565b6000610f1b602683610a86565b9150610f2682610ebf565b604082019050919050565b60006020820190508181036000830152610f4a81610f0e565b9050919050565b7f416464726573733a2063616c6c20746f206e6f6e2d636f6e7472616374000000600082015250565b6000610f87601d83610a86565b9150610f9282610f51565b602082019050919050565b60006020820190508181036000830152610fb681610f7a565b9050919050565b600081519050919050565b600081905092915050565b60005b83811015610ff1578082015181840152602081019050610fd6565b83811115611000576000848401525b50505050565b600061101182610fbd565b61101b8185610fc8565b935061102b818560208601610fd3565b80840191505092915050565b60006110438284611006565b915081905092915050565b600081519050919050565b6000601f19601f8301169050919050565b60006110758261104e565b61107f8185610a86565b935061108f818560208601610fd3565b61109881611059565b840191505092915050565b600060208201905081810360008301526110bd818461106a565b90509291505056fea26469706673582212207b3520128fd4ccce0a26c9bdd1c28847168e651bba30ff6f65a8c898b89b0a5a64736f6c634300080b0033",
  "immutableReferences": {},
  "source": "// SPDX-License-Identifier: MIT\n\npragma solidity 0.8.11;\n\nimport \"./Crowdsale.sol\";\nimport \"./KYCValidation.sol\";\nimport \"./Ratable.sol\";\n\ncontract SatiTokenSale is Crowdsale {\n    KYCValidation kycValidation;\n\n    constructor(\n        uint8 _fixedExchangeRate,\n        address payable _wallet,\n        IERC20 _token,\n        KYCValidation _kycValidation\n    ) Crowdsale(_fixedExchangeRate, _wallet, _token) {\n        kycValidation = _kycValidation;\n    }\n\n    function requireHasEnoughEther(\n        address _addressToValidate,\n        uint256 _requiredAmount\n    ) internal view {\n        require(\n            address(_addressToValidate).balance >= _requiredAmount,\n            \"not enough Ether available\"\n        );\n    }\n\n    function _preValidatePurchase(address _buyer, uint256 _weiAmount)\n        internal\n        view\n        override\n    {\n        requireHasEnoughEther(_buyer, _weiAmount);\n        super._preValidatePurchase(_buyer, _weiAmount);\n        kycValidation.requireKYCCompletion(_buyer);\n    }\n}\n",
  "sourcePath": "/Users/bmarquis/Crypto/solidity-swap-exchange/contracts/source/SatiTokenSale.sol",
  "compiler": {
    "name": "solc",
    "version": "0.8.11+commit.d7f03943.Emscripten.clang"
  },
  "schemaVersion": "3.4.5",
  "updatedAt": "2022-03-02T03:45:34.743Z",
  "networkType": "ethereum",
  "devdoc": {
    "kind": "dev",
    "methods": {
      "buyTokens(address)": {
        "details": "low level token purchase ***DO NOT OVERRIDE*** This function has a non-reentrancy guard, so it shouldn't be called by another `nonReentrant` function.",
        "params": {
          "beneficiary": "Recipient of the token purchase"
        }
      },
      "rate()": {
        "returns": {
          "_0": "the number of token units a buyer gets per wei."
        }
      },
      "toUnit()": {
        "returns": {
          "_0": "the token being sold."
        }
      },
      "wallet()": {
        "returns": {
          "_0": "the address where funds are collected."
        }
      },
      "weiRaised()": {
        "returns": {
          "_0": "the amount of wei raised."
        }
      }
    },
    "version": 1
  },
  "userdoc": {
    "events": {
      "TokensPurchased(address,address,uint256,uint256)": {
        "notice": "Event for token purchase logging"
      }
    },
    "kind": "user",
    "methods": {},
    "version": 1
  }
}